:10000000401D0020F1170000B74A0000C51700008E
:10001000C5170000C5170000C5170000000000004C
:100020000000000000000000000000002D1400008F
:10003000C517000000000000D9130000C51700001C
:10004000DD140000DD140000DD140000DD140000EC
:10005000DD140000DD140000DD140000DD140000DC
:10006000DD140000DD140000DD140000DD140000CC
:10007000DD140000DD140000DD140000DD140000BC
:10008000DD140000DD140000DD140000DD140000AC
:10009000DD140000DD140000DD140000DD1400009C
:1000A000DD140000DD140000DD140000DD1400008C
:1000B000DD140000DD140000DD140000DD1400007C
:1000C000DD140000DD140000DD140000DD1400006C
:1000D000DD140000DD140000DD140000DD1400005C
:1000E000DD140000DD140000DD140000DD1400004C
:1000F000DD140000DD140000DD140000DD1400003C
:1001000053B94AB9002908BF00281CBF4FF0FF317E
:100110004FF0FF3000F00CB8ADF1080C6DE904CEE3
:1001200000F008F8DDF804E0DDE9022304B07047D0
:10013000704700BF2DE9F04786468C460846089E6A
:10014000154674461946002B40F0C2808542B2FA2B
:1001500082F245D94AB1C2F1200300FA02FC2EFA1C
:1001600003F3954043EA0C0C94404FEA154EA8B2B5
:10017000BCFBFEF8230C0EFB18CC08FB00F943EA8D
:100180000C43994528D9EB1808F1FF3704D299455B
:1001900002D9A8F102072B44A3EB0903A4B2B3FBD5
:1001A000FEFC0EFB1C330CFB00F044EA0344A042AF
:1001B00014D92C190CF1FF3304D2A04202D9ACF1AE
:1001C00002032C44241A43EA07401EB1D440002302
:1001D00034607360BDE8F0874746DDE76346F1E7CA
:1001E00092BB431B01214FEA154EAFB2B3FBFEFC9D
:1001F000200C0EFB1C330CFB07F840EA0343984528
:1002000062D9EB180CF1FF3004D2984502D9ACF159
:1002100002002B44A3EB0803A4B2B3FBFEFC0EFBCD
:100220001C330CFB07F744EA0344A7424ED92C19B0
:100230000CF1FF3304D2A74202D9ACF102032C44E3
:10024000E41B43EA0040C0E7C2F1200320FA03F1B7
:10025000954090402EFA03F303434FEA154EAFB298
:10026000B1FBFEFC0EFB1C10190C0CFB07F841EA5D
:100270000041884504FA02F422D969180CF1FF30D4
:1002800004D2884502D9ACF102002944A1EB08014F
:100290009BB2B1FBFEFC0EFB1C110CFB07F743EA03
:1002A00001439F420ED9EB180CF1FF3104D29F425B
:1002B00002D9ACF102012B44DB1B41EA004192E779
:1002C0006046E3E76146F7E76046A3E76346B7E7C2
:1002D000834206D916B9002108467BE7C6E900E04B
:1002E000F9E7B3FA83F78FB9834201D3724508D88F
:1002F000BEEB020460EB030301209C461EB9002103
:1003000068E73846FAE7C6E9004CF8E7C7F1200C81
:10031000BB4022FA0CF41C432EFA0CF120FA0CF329
:10032000B84001434FEA14490EFA07F5B3FBF9F858
:100330001FFA84FE09FB18300B0C08FB0EFA43EA87
:1003400000439A4502FA07F240D9E31808F1FF305A
:1003500004D29A4502D9A8F102002344A3EB0A0370
:1003600089B2B3FBF9F809FB183308FB0EFE41EA2A
:1003700003418E452CD9611808F1FF3304D28E4514
:1003800002D9A8F10203214443EA0040A0FB0298ED
:10039000A1EB0E014145CE46434602D306D14D4561
:1003A00004D2B9EB020E68EB04030138002EA6D08C
:1003B000B5EB0E0261EB030101FA0CFC22FA07F324
:1003C0004CEA0303F940C6E9003198E74046C5E727
:1003D0004346D9E737B520481F4C04F0E5FD002817
:1003E00037D0204604F0E0FD002832D01B484FF4FF
:1003F000D01104F0E3F900282BDB19484FF48031C9
:1004000004F0DCF9002824DB2569A36801A95B68F6
:100410002046984770B12B68990414D4A368DB6810
:100420004FF4005120469847002140F6CD4003F09C
:10043000F5FDEAE72A68019B5340920403F4006348
:1004400004D4002BEAD1A3681B69E9E7002BE5D0AF
:10045000F9E703B030BD00BF00530000285500008D
:1004600030550000014B1B68184700BF00000020FA
:10047000014B1860704700BF0000002007B50B4615
:10048000002102460091034800F014F903B05DF822
:1004900004FB00BF650400002DE9F047058B04460E
:1004A0002807904611D4022905F0070540F0CD80B9
:1004B000204604F0BBF978B10138218B042811D80B
:1004C000DFE800F0C3106D85950001290CBF45F0F1
:1004D000100545F02005258388F31188BFF36F8F41
:1004E000BDE8F08701F0070AAA4500F0A6800027C2
:1004F000B9463E46A368002B00F0BD8041F00801DC
:10050000218388F31188BFF36F8FA168002900F061
:10051000BB800D68002900F0B780D1F80480334615
:1005200052462046C047002D76D02B6829461D46EE
:10053000F0E701F007035A1F012A1BD8002221F01F
:100540000701062B276889B2C4E9002209D13B467E
:1005500003E0628B013262831B68002BF9D141F00A
:1005600002012183204604F061F900287BD041F08C
:10057000200177E0042B0AD121F0070189B2218301
:10058000204604F053F910B141F020012183218B62
:1005900001F0070AAA4550D00027B946AAE7236907
:1005A00021F0070141F00601062DD3F800902183C8
:1005B0002DD1B9F1000F40D041F00801218388F31B
:1005C0001188BFF36F8F3A492046C84729E021F0D0
:1005D0000701236941F0040189B2042DD3F8049086
:1005E0002183E6D000273E464FF0040A82E721F03F
:1005F0000701236941F0050189B2052DD3F8089060
:100600002183D6D000273E464FF0050A72E7002727
:100610003E464FF0060A6DE72B4687E7B9F1000F1B
:10062000D1D14FF02003EFF3118883F31288BFF389
:100630006F8F238B23F008032383258BEA062ED5A7
:1006400025F01003238305F007056669218B002E32
:10065000BFF66FAF00232768C4E9003321F007011C
:1006600041F001012183218B01F0070AAA454FF0D7
:1006700000097FF43FAF002F9BD041F00801218398
:1006800088F31188BFF36F8F002FC7D03D683946BC
:1006900033465246204604F0F5F82F46F4E7AB0601
:1006A0007FF51AAF25F02003238305F00705FFE649
:1006B000B14800002DE9F04F814695B08B461746B2
:1006C0001C460025387808B9284658E37B1C2528A5
:1006D000039306D05946C8470028C0F2508301351D
:1006E000FBE1182200210EA804F011FA7B78252BDB
:1006F0007DD00023781C98469E469C461E460146A7
:1007000010F8012B2B2A00F0A18000F29880202AFB
:1007100000F09F80232A00F09F802BB19DF840308D
:1007200043F040038DF84030B8F1000F05D09DF83C
:10073000403043F020038DF84030BEF1000F05D06B
:100740009DF8403043F010038DF84030BCF1000FAD
:1007500005D09DF8403043F008038DF840302EB1AD
:100760009DF8403043F004038DF840309DF8403050
:1007700003F04400442803D16FF386138DF8403012
:100780009DF840302A2A43F080038DF840307FD115
:100790009DF8412042F001024B1C8DF841201A784F
:1007A0002E2A9DF841200CBF0121002161F3410256
:1007B0008DF8412078D15A782A2A6ED00133002250
:1007C0004FF00A0C194611F8010BA0F13006092E62
:1007D00040F295809DF840101292C1F3400040EA2B
:1007E000D2700A4660F341028DF840205CE0BA1CEA
:1007F00003928DF843309DF84130DA0740F12E81A5
:1008000054F8048BB8F1000F07DA9DF8402042F04D
:1008100004028DF84020C8F100085E0740F12781EE
:1008200054F804ABBAF1000F80F226819DF84130F4
:100830006FF341038DF841304FF0FF3A1CE12D2A50
:100840000DD0302A7FF469AF012358E74FF0010C37
:1008500055E74FF0010E52E74FF001084FE7012630
:100860004DE70EFB0262303A0346184610F8016B62
:10087000A6F1300CBCF1090FF3D999428FD09DF845
:1008800040101192D20F62F341018DF8401086E7BB
:100890000B4600224FF00A0EE7E79DF8412042F098
:1008A00004028DF8412002331A786C2A47D02BD8E5
:1008B000682A31D06A2A4BD04C2A51D01A4612F8F5
:1008C000013B0392782B9DF841208DF8433000F2D4
:1008D000BE806D2B51D8692B00F2B980572B67D899
:1008E000412B03D0453B022B00F2B1809DF84230F2
:1008F000042262F302038DF84230012373E00CFB03
:100900000202303A0B465DE7742A25D07A2AD5D107
:100910009DF8412006210CE05A78682A9DF8412074
:1009200006D1012161F3C6028DF841200233C5E7EB
:10093000022161F3C6028DF841200133BEE75A78E7
:100940006C2A9DF8412001D10421EBE70321F0E757
:100950009DF841200521ECE79DF841200721E8E7BB
:10096000BDF8402022F4F04222F0020242F480421C
:1009700042F00202ADF84020DFE76E3BD9B201231E
:100980008B4040F282410B4237D113F0240F51D1FA
:10099000D8075CD59DF84230032161F302038DF83E
:1009A000423002F07803A3F140014B424B411AE080
:1009B000A3F15801C9B2012000FA01F111F4624F0C
:1009C00094D140F6010631421DD111F4043F3ED0CE
:1009D0009DF8423060F3020302F07802402A8DF85D
:1009E000423034D000239DF84020C2F340010B4335
:1009F00063F341028DF84020FDE69DF8423002216C
:100A000061F30203E8E79DF84210022002F0780249
:100A100060F30201402A8DF8421002BF9DF8401099
:100A200041F001018DF84010632BDBD1131E18BF7C
:100A30000123D8E79DF84230032161F3020312F04D
:100A4000780F8DF8423014BF01230023CBE79DF8C7
:100A5000403043F001038DF84030C3E79DF940205A
:100A6000002AB4BFDDF844804FF0FF38D5E6980780
:100A70007FF5E2AEDDF848A09DF841100023CDE9F6
:100A800011339DF8423003F00703012BC1F3C3017A
:100A900033D1CB1E042B04D8DFE803F021464621D6
:100AA0002100236801294FEAE372CDE90E321CD1FF
:100AB0009DF93830DA17CDE90E3204349DF8403014
:100AC00013F0030650D0039B3A465946484603F0BC
:100AD000CCFF0028C0F253810544039FF2E554F88F
:100AE000043BDA17CDE90E32E8E70229E5D11AB264
:100AF00043F3C033CDE90E23DFE7022B24D1CB1E15
:100B0000042B04D8DFE803F018101018180001298E
:100B100054F8043B4FF0000214D00229CDE90E3204
:100B2000CCD19BB20E93C9E7073424F00704F4E854
:100B30000223CDE90E23C1E754F8043B0E930023B2
:100B40000F93BBE7DBB2CDE7042B08D1073424F0C9
:100B50000704D4E900230834CDE90E23AEE7032BC4
:100B6000ACD154F8043BDDE79DF843007828B4D8B5
:100B700062281CD825283FF4ADAD5828ADD10DF121
:100B800036030093DDE90E0108AB10AA03F027FF3E
:100B9000BAF1000F074680F29A80002F9DD00DF128
:100BA0003603D81B002E00F0C1800130BEE0633850
:100BB000152892D801A252F820F000BF910C000035
:100BC000A30C0000DB0A0000DB0A0000DB0A0000C7
:100BD000DB0A0000A30C0000DB0A0000DB0A0000B7
:100BE000DB0A0000DB0A0000310D0000C90C000028
:100BF000EF0C0000DB0A0000DB0A0000150C00000F
:100C0000DB0A0000C90C0000DB0A0000DB0A000060
:100C1000C90C0000BAF1000F0E9F35DB5146384673
:100C200003F061FF07EB000A002F3FF456AF0026E8
:100C30009DF8423013F01002059200F093800230CC
:100C40005B06119A48BF129B0492104448BFC0181B
:100C5000B8F1000F40F3A0809DF84020A8EB0008F9
:100C6000C2F380035007069300F19680510640F1CD
:100C700089803EB159463046C84700287FDB069B35
:100C800001351E4630227EE0384603F025FFC9E7D5
:100C90000E9B8DF82030002608AF0DF1210A0120AF
:100CA000C6E719075CBFC3F300135E01DDE90E233D
:100CB00048BF2B26002BBFF662AF524263EB4303C3
:100CC000CDE90E232D265AE7002658E700269DF889
:100CD00040200DF13603DB1B6FF386129A458DF829
:100CE00040207FF65AAFAAEB0303119355E70E9805
:100CF00090B30DF13603009310AA08AB002103F066
:100D00006EFEBDF8423003F0EF0343F4F04343F0CE
:100D10001003BAF1000F0746ADF84230D6DA0028CA
:100D20003FF4DBAE0DF13603181A00269A467FE732
:100D30000E9B07293FF6D1AEDFE801F00C04060C4C
:100D400008080C0C1D70C8E61D80C6E6EA17C3E94A
:100D50000052C2E61D60C0E62E4F064607F1050AA6
:100D6000052065E71A0748BF013069E70793104679
:100D700006925946C8470028DDE9062304DA15B073
:100D8000BDE8F08F202243461946002903F1FF33C6
:100D9000ECDC45446D1A98462EB159463046C8479A
:100DA0000028ECDB01359DF84230DA0601D41B0740
:100DB00005D559463020C8470028E0DB0135059BA2
:100DC00033B19DF843005946C8470028D7DB0135A9
:100DD000049E2E4405E059463020C8470028CEDB4B
:100DE0000135731B002BF6DC53463A4659464846FC
:100DF00003F03BFE0028C2DB0544A844A8EB050332
:100E0000002B7FF76AAE59462020C8470028B6DB82
:100E10000135F3E70957000008B504464FF02002FA
:100E2000EFF3118382F31288BFF36F8F01F0C0FDDF
:100E3000204600F05FFE034803F0E1FC00F030FACA
:100E4000FCE700BF0F57000001F0E4BD2DE9F843B7
:100E500005464FF02003EFF3118683F31288BFF3AA
:100E60006F8F0E4B0E4F1C68DFF838804FF00C0967
:100E70002CB986F31188BFF36F8FBDE8F883D4E9EE
:100E80000123002D18BF13462BB198F8102009FB41
:100E900002F2B85C98472468EAE700BFE00200204D
:100EA000D40200205009002070B5194B1C7CBFF300
:100EB0005B8F04F01F0301229A40164B610903EB7C
:100EC0008103D04353E8001F01EA000543E80056C0
:100ED000002EF7D1BFF35B8F0A4213D00E4B0F4D9C
:100EE0008BB10C236343EA18E85C517803F027FECA
:100EF0000020FFF7ABFF0C235C432A1900232B5182
:100F0000C2E9013370BD83F31188BFF36F8FEFE740
:100F100050090020E80200203F4B0000D4020020CE
:100F20002DE9F041354B07461D7C4FF02003EFF3D0
:100F3000118883F31288BFF36F8F0C24304B314E2E
:100F40006C431A19195D00294CD007CA06EB040C32
:100F50008CE8070000221A5588F31188BFF36F8FC1
:100F60000C236B43F218F05C002839D07B1C10D0A6
:100F7000D2F808C0244C254A4FF400400021ECFB75
:100F8000004100232046FFF7BBF80121381A01F089
:100F9000D3FC02F089FF0120FFF758FFBFF35B8FFE
:100FA0001B4B6A0903EB820305F01F0101228A40F3
:100FB00053E8000F104343E800010029F8D1BFF3C4
:100FC0005B8F144B3BB10C2303FB05F03318305CF3
:100FD000597803F0A8FDFFF767FF02F079FF0120C1
:100FE000BDE8F0810146284600F016F80028B3D08D
:100FF00007C8344484E80700AEE700BF500900206A
:10100000C8020020D40200203F420F0040420F00DF
:10101000E8020020274B00002DE9F04F85B00E4676
:1010200003A900F043F81E4B039DD3F800A0DFF89E
:101030007480431E1BB203EB4303044605EB830598
:101040004FF400474FF0000B24B9A146484605B0C5
:10105000BDE8F08F6868144AC4465946E0FB07C1F2
:1010600000236046FFF74CF80190A8680E4AC4467A
:101070005946E0FB07C100236046FFF741F8BAF18B
:10108000FF3FA94601D0824505D9731CDED0019BE4
:101090001844B042DAD9013CA4B20C3DD4E700BFF9
:1010A000040000203F420F0040420F0008B9024BED
:1010B0000B600020704700BF38550000014803F066
:1010C000D5B900BF3855000038B5044618B90F4BE4
:1010D0000F485B6898476168B1F5683F0FD0B1F57C
:1010E000680F0CD00B4DA94209D011F4686107D0EC
:1010F0000948214603F0A6FF00232360656038BD40
:101100002068142203F003FDF8E700BFD0000020A0
:101110003B5700002C5F5CA9EC07002008B520B30A
:101120004368B3F5683F10D101220368BFF35B8FBA
:1011300053E8001F002903D143E800200028F7D11D
:10114000BFF35B8F0DD1002008BD094A93420AD03E
:1011500000684FF0FF324FF0FF3302F09FFB002892
:10116000F1D00448F0E70448EEE76FF4E040EBE725
:101170002C5F5CA9E98FFFFFEA8FFFFF08B5D8B1AC
:101180004368B3F5683F10D100220368BFF35B8F5B
:1011900053E8001F012903D143E800200028F7D1BC
:1011A000BFF35B8F0BD1002008BD074A934208D0E4
:1011B000006802F0EDFBF6E76FF4E040F4E7034867
:1011C000F2E70348F0E700BF2C5F5CA9E98FFFFF5F
:1011D000EA8FFFFF10B5044618B91D4B1D485B6828
:1011E00098476368B3F5683F2FD0B3F5680F2CD0EC
:1011F000194A934219D1236803BB18484FF0FF32B4
:101200004FF0FF33214602F071FA08B923681BB989
:101210000F4B13485B68984720681422002103F0A5
:1012200076FC4FF46863636008E0B3F5683F0DD85F
:101230003A2B03D040F6BA629342DED1206803F025
:101240003FFF636843F03A03636010BD054AF3E76C
:10125000D00000203B5700002C5F5CA9EC07002069
:10126000615700003A00003A08B506490648402395
:10127000142203F0D9FEBDE808400449044803F0F5
:1012800067B900BFEC020020EC07002040550000C9
:1012900054550000014910220A60704710ED00E02B
:1012A00072B6404080F31188BFF36F8FBFF34F8F4A
:1012B00030BF62B6BFF36F8F704700BF72B6494050
:1012C00081F31188BFF34F8F20BF80F3118862B67E
:1012D000704700BF40B2002807DB044A41090123E0
:1012E00000F01F00834042F82130704700E100E029
:1012F00040B200280CDB4309064900F01F002033F0
:101300000122824041F82320BFF34F8FBFF36F8F3C
:10131000704700BF00E100E0054B420900F01F00EC
:1013200053F82220012303FA00F01040704700BF59
:1013300000E100E040B20028A8BF00F1604001F1E8
:101340000101B8BF064B4FEA4111ACBF00F5614047
:1013500000F00F00C9B2B4BF195480F800137047F1
:1013600014ED00E030BFFFF7FDBF00BF0B4A08B52A
:101370000B4B22F07F029A60BFF34F8FBFF36F8F4A
:10138000D3F8882022F47002C3F8882002F0EAF82B
:1013900002F0C4FE00F020FA02F028F9000000007C
:1013A00000ED00E0094A0A4993680968996709490C
:1013B00058674B6843F080534B60002383F31188D8
:1013C000BFF36F8F9368986F704700BF500900207C
:1013D0005456000000ED00E012498A684FF03000DA
:1013E0001044EFF3098C80E8F01F202080F312886E
:1013F000BFF36F8F0C4F4FF000668A698A603E60C2
:10140000506F0023536780F3118804B5104600F035
:101410007FFABDE8044002F1300090E8F01F8CF341
:10142000098870475009002004ED00E01EF0040F09
:101430000CBFEFF30880EFF30980816911F8021CFB
:101440000229FFD001B503F02EFB01BD42F8203C7C
:10145000009B42F81C3C0A49019B42F8183C029B45
:1014600042F8143C21F001014FF0807342F8043C33
:1014700042F8081C0023203A02654367704700BF0A
:1014800019480000094A0346906870B113F1160F1D
:10149000406E05D0A0F140029A4205D8834203D2A3
:1014A000814228BF0020704700207047500900206B
:1014B00008B5094B0D461446986000F029FA2046FD
:1014C00085F30988002163B681F31188BFF36F8F1C
:1014D0000022002303F0A0F95009002001B572B6E4
:1014E0000B4A506900281EBF0021516103F0D9FD4D
:1014F00062B6EFF30580A0F110004FEAC000054985
:10150000014409C99847BDE8014003490847000064
:1015100050090020305300001D150000044B99684D
:101520009869884203D003494FF080520A6070479F
:101530005009002004ED00E070B5264B15469A6A6C
:1015400012F0100F9A6A14BF1124102412F0080F21
:101550009A6A18BF1224920706460AD5586B9A6AEF
:10156000140634D519B19A6A22F080029A621324C3
:1015700001E06FF01500174B9A6A12F0010F9A6A9A
:1015800018BF142412F0200F9A6A18BF1524D2062F
:1015900002D49B6A9B070AD50E4B5B68190506D5DA
:1015A0003146FFF76FFF10B180F309880224094B21
:1015B0009A6A920642BF5A6A22F400525A629A6AA2
:1015C00042F0FF029A6200232B70204670BD6FF03C
:1015D0001500CCE700ED00E0134B9A6A12F0007F93
:1015E0009A6A14BF1E201D2012F0807F9A6A18BFCD
:1015F0001F2012F4002F9A6A18BF212012F4802FA6
:101600009A6A18BF222012F4003F9A6A18BF23205A
:1016100012F4803F9A6A6FEA02426FEA12429A62BB
:1016200018BF2420704700BF00ED00E010B5194B33
:101630000246986A9C6A10F4805F14BF1720162037
:1016400014F4006F9C6A18BF1820A40509D5986B84
:10165000986A000404D51AB19A6A22F400429A6288
:1016600019200C4B9A6A12F4806F9A6A18BF1A20DC
:10167000D2050CD49B6A13F4005F18BF1C20054AE6
:10168000936A43F47F43936200230B7010BD1B20C9
:10169000F5E700BF00ED00E070B5454B5B688AB030
:1016A0000546C3F30803002686F31188BFF36F8F46
:1016B00002F07F40B0F17F4F11D102F00C000828FA
:1016C0000DD010074CBF0D4601260022033B8DF8BC
:1016D0000720032B05D8DFE803F01E5D615A35466D
:1016E000F3E700249DF807309BB92022294602A881
:1016F00003F002FA099B002E54D0C3F3080222B96A
:101700006FEA53236FEA4323099302A9204603F0AB
:10171000C8F90AB070BD264BDA6A9107E1D4DA6ADB
:10172000002ADEDBDA6A5200DBD55A69A96942F485
:1017300080725A61BFF34F8FBFF36F8F5A6931F8D0
:10174000021C22F480725A61BFF34F8FBFF36F8F78
:101750004DF6027291420AD09A6AD2B24AB10DF1A4
:10176000070201212846FFF7E7FE0446BAE72C6886
:10177000B8E79A6A12F47F4F05D00DF107010120F6
:10178000FFF754FFF1E79B6AB3F5803FA9D3FFF75A
:1017900023FFEAE70DF107020021E3E70DF107015E
:1017A0000020EDE723F4FF7323F00103ACE700BF53
:1017B00000ED00E0024A536943F0100353617047A3
:1017C00000ED00E0EFF30880EFF3098101B5724608
:1017D000FFF762FF01BD00BF044800232021C218AB
:1017E0000133302B82F80013F9D1704700E100E09B
:1017F000002080F31488BFF36F8FFFF725FB0020D4
:101800000D490860BFF34F8F0C4880F3088800F043
:101810002BF8202080F3118809484FF40461401808
:1018200080F30988EFF314800221084380F31488C1
:10183000BFF36F8FFFF79AFD94ED00E0401D00208D
:10184000800F00200749D1F890200023C2F307221F
:101850001846934200DB7047C1F89830C1F8A000E9
:101860000133F6E700ED00E008B572B6002383F31C
:101870001388FFF7E7FF144B4FF0FF32C3F88020C7
:10188000C3F88420C3F88820C3F88C20C3F89020C4
:10189000C3F89420C3F89820C3F89C20C3F8802193
:1018A000C3F88421C3F88821C3F88C21C3F89021A0
:1018B000C3F89421C3F89821C3F89C2162B6BFF302
:1018C0004F8FBFF36F8F08BD00E100E0084B9B68AE
:1018D00083420BD1EFF3058343B1064B5A6842F0C4
:1018E00080525A605A6A22F400425A6202F0B6BB31
:1018F0005009002000ED00E0024B034A034801219B
:1019000000F070B8000004200000002064550000C2
:10191000426E054B403A1A60044A4021C3E9011265
:101920001846012100F068B80808002000000B15D7
:10193000F0B5204E00258D4239DA446874B353B1B6
:1019400004F1FF3C14EA0C0F2FD11F2C2DD907688E
:101950001CEA070F29D1202C0768D0F808C05FFACD
:1019600082FE1ED9B4F1004F1DD8013CB4FA84F4B4
:10197000C4F11F046400BEF1070F4CEA040C14D834
:1019800027F01F04144344F01004C6F89820C6F84A
:101990009C404CF00104C6F8A040013201350C30E7
:1019A000C9E70824E7E73E24E5E76FF01502104693
:1019B000F0BD00BF00ED00E0044B0522C3F8942009
:1019C000BFF34F8FBFF36F8F704700BF00ED00E094
:1019D000BFF35F8F024B0022C3F89420704700BF13
:1019E00000ED00E010B5034C01232278FFF7A0FFC3
:1019F000207010BD5C0B002008B5094A0023127846
:101A0000FFF796FF10F1160F02D0064A072800DDF7
:101A100008BDC2F89800C2F8A0300130F6E700BF58
:101A20005C0B002000ED00E014490868082810B5A0
:101A300021D8FFF7CDFF124C49680022904201F1F6
:101A40000C0105D10F4B1870FFF7B6FF002010BD39
:101A5000C4F8982051F80C3C23F01F03134343F0C3
:101A60001003C4F89C3051F8043C43F00103C4F85F
:101A7000A0300132E2E74FF0FF30E8E77055000098
:101A800000ED00E05C0B0020014B1860704700BFC8
:101A90002800002010B54FF02003EFF3118083F3EE
:101AA0001288BFF36F8F114A0123C2F840354FF0FF
:101AB00080424FF08051C2F87835D1F83041082C7F
:101AC00008D1D1F83411052904D8094C615C09B159
:101AD000C2F838364FF080430122C3F8802580F3E6
:101AE0001188BFF36F8F002010BD00BF00E00140E0
:101AF000A15700004FF08043C0B2C3F81C05BFF3EC
:101B00004F8F0549054BCA6802F4E0621343CB606E
:101B1000BFF34F8F00BFFDE700ED00E00400FA05C2
:101B200020B1034B800143F001031847704700BF09
:101B300020550000084B70B5C31A0D4607499B108D
:101B4000044659430648402203F01BF82B46014641
:101B50002046BDE87040184728080020B76DDBB666
:101B6000D052000073B50C4C0C4A4023041B009368
:101B70000D460B460A49A41061430646094803F086
:101B80002DF8011E05DA30462B4602B0BDE8704044
:101B9000184702B070BD00BF28080020494C000063
:101BA000B76DDBB6D0520000002270B501210446AB
:101BB0001046FFF7BFFB0F4801F0AEF80E4B9842FE
:101BC00015D103F046F926690C49304602F07EFE35
:101BD00000280BDB012535642469084904F11C0049
:101BE00002F074FE002801DBE564002070BD6FF098
:101BF0000400FBE7351C00000000AD0B9055000011
:101C000070B501460C2309484B43C418D4E90E565D
:101C1000403300221844A26302F0A0FF2DB13246E7
:101C20002B460348BDE87040184770BD28080020C7
:101C3000D052000010B1012804D07047034B1B6C38
:101C40005B0701D1FFF7DCBF704700BF2808002009
:101C500008B54FF02003EFF3118183F31288BFF32F
:101C60006F8F124A136843F002001060DA0708D43D
:101C700081F31188BFF36F8F0120BDE8084003F0A6
:101C8000F5B84FF08043D3F80C24D3F80C34D307C5
:101C9000EED5074802F062FF81F31188BFF36F8F22
:101CA0000020BDE80840FFF7ABBF00BF7808002068
:101CB000680800201FB500220123CDE90223094A4C
:101CC000CDF800D06B46CDF804D002F0B6FF002866
:101CD00005DB4FF480420023684601F0B5FE05B0F5
:101CE0005DF804FB674C000010B54FF02003EFF3E4
:101CF000118483F31288BFF36F8F074A136823F0B0
:101D00000201DB07116002D4012003F0EBF884F339
:101D10001188BFF36F8F10BD780800202DE9F041C6
:101D20003849BFF35B8F0746012251E8003F41E885
:101D300000200028F9D1BFF35B8F33B93249334813
:101D40004B60CB608A6002F0D4FD7B1E012B2BD848
:101D5000012F07D14FF08043D3F81C3403F0030365
:101D6000012B21D003F097F90546F8B9284B1B78D1
:101D7000E3B14FF080430222C3F808230646DFF8A0
:101D800094804FF08044D4F81834D4F81824D20347
:101D900016D503F00303012B01D0012F10D15DB341
:101DA00086F31188BFF36F8FBDE8F0814FF02003F9
:101DB000EFF3118683F31288BFF36F8F0125DEE7FF
:101DC000ADB13046FFF77AFAD4F81835002BDAD1E6
:101DD000D4F80421002AD6D0C4F80431D4F8043150
:101DE0000123C4F81835C8F88031A360CBE700217F
:101DF000212002F013F9E7E74FF080430222C3F8F5
:101E00000423D1E7240800201408002044080020FF
:101E10006F0F002000E100E008B5074803F0C4F8A8
:101E200038B10648FFF730FE0448FEF721FB0020DA
:101E300008BD6FF01200FBE718530000411E0000C0
:101E40000A2838B5074D044604D1AB680D215B68FC
:101E500028469847AB6803485B68E1B2984720463C
:101E600038BD00BF1853000030B54068057B01F055
:101E70001F04B2F5001F85B044EA451405D1204681
:101E800001F0CCF9002005B030BD0025B2F5800F7F
:101E9000CDE9025514D1B3F1007F0CBF0423052313
:101EA0008DF808300023194602AA204600F0F4FFFE
:101EB0001F4B984239D10121204601F067F9E1E733
:101EC000B3F1C06F26D0B3F1007F14BF012302230A
:101ED0008DF808308368CB40D907E3D4B2F1A07FF6
:101EE000E0D16209012A04F01F03124A03F5E073EE
:101EF00018BF4FF0A04252F82330DB07D2D40DF1C7
:101F000007052946204601F0EDF80B4B984203D017
:101F10000395C7E70323DBE7284601F031F9044BBB
:101F20009842F5D06FF00B00ADE76FF01500AAE70F
:101F30000000AD0B000300500400AD0B10B501F024
:101F40000FF9044668B901F0E3F8084B98420AD14A
:101F50000748214601F0C0F8224605210620FFF778
:101F6000E9F9002010BD6FF00400FBE70000AD0BA5
:101F7000751F0000420970B5034602D0012A17D030
:101F800070BD0D4E326951680029F9D003F01F036E
:101F900001250C689D400029F2D08A682A4002D0B1
:101FA0004B68304698472CB1236821461C46F2E71F
:101FB000024EE7E72346F8E700530000E85200002E
:101FC0002DE9FF4147683B7B01F01F0545EA4315BA
:101FD0000E4628460DF10301144601F083F814F46F
:101FE000403F80460BD1284601F040F93D4B9845D3
:101FF00003D19DF8030001F0BDF800200CE00023A0
:10200000194602AA2846CDE9023300F045FF354BB8
:10201000984204D06FF0150004B0BDE8F08180450F
:1020200003D19DF8030001F0A5F8A3034BD540F2BE
:1020300006332340B3F5837F19D00CD8062B17D075
:1020400004D8ABB1022BE5D1042311E0B3F5807FB6
:10205000E0D101230CE040F20222934227D0B3F5F5
:10206000407F26D0B3F5007FD4D1022300E00723C0
:102070008DF8043084F48033C3F30043E0068DF818
:10208000053054BFC4F34013032321038DF80630F9
:1020900011D57A680123B340C2F80835002201A99E
:1020A000284600F0A7FF0F4B9842A6D0B2E70523C1
:1020B000DEE70323DCE7620341BF01237A68B34014
:1020C000C2F80C35EAE7E3064FF0000354BFC4F34F
:1020D000401403241A4601A928468DF8044000F054
:1020E000DBFEE0E70000AD0B2DE9F0415A4E00EBBE
:1020F00081010127814202D10020BDE8F0810468FE
:1021000004F07F03C4F343257F2B4FEA144408BF38
:102110004FF0FF33222C00F29B80DFE804F0122402
:1021200029442C404499999999477099999999997A
:1021300099999999737B7E81999999848A8D9093C5
:102140009600C2F80C354FEA531CBCF1010F03F0A6
:102150001F0414BF4FF0A04CB44607FA04F4CCF8A7
:102160000845012402E0C2F814350024A64624E004
:10217000C2F80835E7E7C2F8083500244FEA531ED5
:10218000BEF1010F14BF4FF0A04EB64603F01F0C76
:1021900007FA0CFCCEF80CC54FF0010E0DE0C2F8AA
:1021A0000C350124EAE7C2F81035DEE7C2F808353D
:1021B000002DDAD10024A646062550F804CB0CF4F5
:1021C0000058B8F1000F4FEA0525CCF3C11803F011
:1021D0001F0C4FEA53131CBF01244FF0000E45EAB9
:1021E0008805012B0CBF33464FF0A04345EA0E058E
:1021F0000CF5E07C45EA440543F82C507AE7C2F838
:102200000C35D5E7C2F860350468C4F38034002C7F
:10221000C7D098E7C2F86435F6E7C2F86835F3E747
:10222000C2F86C35F0E7C2F8243501244FF0000EF7
:10223000C3E7C2F8283586E7C2F83035F5E7C2F8BB
:102240003435F2E7C2F83835EFE7C2F83C35ECE751
:102250006FF0850051E700BF00030050F0B54B79E7
:10226000012B26D0032B21D110258B79032B1DD1D7
:10227000CE790EB1012E19D10A7912B1022A15D1E7
:102280000E220B684468B3F5164F276867D02DD827
:10229000B3F5165F66D016D8B3F5966F64D00AD83A
:1022A000B3F5967F63D0B3F5167F63D06FF08500EA
:1022B00054E00025D9E7B3F5166F5ED0B3F5965F0D
:1022C000F4D1384B3CE0B3F5E14F59D007D8B3F522
:1022D000615F57D0B3F5964FE8D1334B30E047F606
:1022E0001224A342E2D14FF4000329E0B3F5613F89
:1022F0004AD013D8B3F5963F49D009D84DF6C0243B
:10230000A34246D0B3F5614FD0D14FF46B0317E031
:10231000B3F5E13FCAD14FF0EB7311E0B3F5612F94
:102320003AD008D8214CA34239D0B3F5E12FBDD122
:102330004FF0E86304E01E4CA342B7D14FF0805346
:102340000469C7F82435436835431B682A43C3F83A
:102350006C2503C9231D83E803000020F0BD4FF462
:102360001D03EDE7134BEBE74FF49E23E8E74FF433
:10237000A033E5E74FF41C33E2E74FF41D23DFE71A
:102380000D4BDDE70D4BDBE74FF06C73D8E70C4BE3
:10239000D6E74FF46503D3E74FF07063D0E74FF013
:1023A0008063CDE700B0130000A04E0090D0030082
:1023B00040420F000050270000C0750000F03A00B6
:1023C00000903A012DE9F7438046002201210220C6
:1023D000FEF7B0FF0220FEF77DFFD8F80470D8F8B2
:1023E00010603C680021C4F80015C6F80080D7F8DA
:1023F0000C9001AA484602F08EFC051E54DB019B9E
:10240000D9F8002019791868FFF76EFE051E4BDB1E
:10241000311D4046FFF722FF0546002844D17B6866
:1024200099071AD506F1180001F022F8224B9842BC
:102430003ED1337EDB0003F1804303F5F83304F132
:102440000C0204F59071C3F81015C3F81425327E00
:1024500001239340194AC2F804350823C4F8003513
:102460003B7A53B9C4F81031D4F810317369C4F809
:1024700034350123C4F8383523607B689A075CBF84
:102480004FF48073C4F804337B68DB0644BF4FF419
:102490008003C4F804333369C4F844350023C4F816
:1024A00048350123A360E360284603B0BDE8F0830C
:1024B0006FF00405F8E700BF0000AD0B00F001402D
:1024C000F8B5044607690D4602F0E5FDB0B92E4B9C
:1024D0001B789BB16426606802F053FC00BB0120AE
:1024E00002F0B5FC013EF6D10021212001F096FD5D
:1024F000F0E786F31188BFF36F8FF5E74FF0200305
:10250000EFF3118683F31288BFF36F8F6068314653
:1025100002F037FC90B986F31188BFF36F8FEDE7B7
:102520004FF02003EFF3118683F31288BFF36F8F10
:102530006068314602F025FC0028DAD03B691D7046
:10254000626838691368C3F844050120C3F8480578
:102550000020C3F82001D3F82051C3F85801526875
:10256000D3F85801D20608D5626812680820C2F86C
:1025700000054FF48002C3F8042301229A6081F31E
:102580001188BFF36F8FF8BD6F0F002070B5012366
:1025900083400E4ABFF35B8FDC4352E8001F01EA21
:1025A000040542E80056002EF7D1BFF35B8F4FF4CD
:1025B000803282400648C0F80823BFF35F8FBFF324
:1025C0006F8F0B4214BF0120002070BD98080020BF
:1025D0000010014070B40E49D1E90034D01AC3187C
:1025E00044F1000422F07F46C1E90034A6F500134F
:1025F000B3F5400F09D2074B1B681A0A1B069C193A
:10260000054B42F10005C3E9004570BC01F05CBE1A
:10261000980100209C080020A001002011B3BFF306
:102620005B8F0123104A834052E800CF4CEA030C31
:1026300042E800C10029F7D1BFF35B8F0B4A4FF48A
:1026400080338340C2F80433094BBFF35B8F1B68B0
:10265000BFF35B8FC340DB0742BF064B4FF4003232
:10266000C3F80021704700BF980800200010014007
:102670009408002000E100E00D4B1868010A0006F4
:10268000BFF35F8F0B4BD3F80435181841F10001ED
:10269000B3F5801F0AD2084BD3E90023904271EBB7
:1026A000030303D210F1807041F10001704700BFB5
:1026B0009C08002000100140A00100202DE9F74FE8
:1026C00016461F460446FFF761FF0090FFF7D4FF50
:1026D000B04271EB070351D23A4B301A67EB01015C
:1026E000984271F100016AD2374B03EB0413D3E92E
:1026F00002239F4208BF96424ED034494FF480399E
:1027000004F1500509FA04F9AD00C1F848932046D8
:10271000ADB202F080FB26F07F4B05F1804504F559
:10272000A8732B4A019305F58835DC464FF0030A60
:10273000019B2CF07F4041F82300C1F84493D1F86D
:1027400004856FF00200A0EB0800604420F07F4099
:10275000904221D9286860B1D1F80485A8EB0B001C
:1027600020F07F40B0F5000F16D9204602F053FB51
:10277000174A0AEB080C0AF1010AD9E70123154AA6
:10278000BFF35B8FA34052E8000F184342E80001FB
:102790000029F8D1BFF35B8F0B490C98230101EBA3
:1027A0000412C2E90267C8500D9B53600025204601
:1027B0000099FFF733FF284603B0BDE8F08F6FF0B4
:1027C0001505F4E701008000880100200010014099
:1027D000FDFF7F009408002073B51B4C1B4BC4F811
:1027E0000833C4F848331A4B00254FF0FF304FF040
:1027F000FF31C4F80855C3E902014FF48033C4F82F
:102800000433144B02264FF400320121C4F8046350
:102810001120C3F880212A46FEF78CFD1120FEF717
:1028200059FD0D4A0123A360236013600B4B0C4A32
:102830000093019500232846FFF740FF3046FFF73D
:102840006DFA284602B070BD0010014003000F0071
:102850008801002000E100E098080020D525000054
:10286000FFFF7F002DE9F7432F4CD4F8043399077D
:102870000BD5D4F8043143B12C4A0023C4F80431F9
:10288000D4F80431136801331360D4F80433DA0345
:102890002AD5BFF35B8F264B53E8002F22F00101AE
:1028A00043E800100028F7D1BFF35B8FD30702D4B1
:1028B000D4F84031C3B10025C4F84051D4F84031B8
:1028C000FFF7DAFE4FF02003EFF3118283F3128853
:1028D000BFF36F8F174BD3E90267B042B94106D2FD
:1028E00082F31188BFF36F8F03B0BDE8F0834FF020
:1028F000FF384FF0FF39C3E90289D3E900101D60AA
:102900004FF48033C4F84833C4F84051D4F8403110
:1029100082F31188BFF36F8F0029E5D00090324613
:102920003B4628468847DFE7001001409C0800200E
:102930009408002088010020431C13B522D00128F0
:1029400022DD124A124B9042D4BF04461C46FFF7C8
:1029500093FE104B0E49D3E90023801AB0F5000F07
:1029600028BF002404448C4228BF0C46A2180A4900
:1029700000914FF00000019043F10003FFF79EFE2D
:1029800002B010BD024CE2E70124E0E7FEFF7F0049
:10299000FFFF7F0098010020D525000008B5FFF754
:1029A0006BFE024B1B68C01A08BD00BF98010020D7
:1029B00010B5084C012363601120FEF799FC064B0B
:1029C000C4F80833C4F84833044B4FF40032C3F85A
:1029D000802110BD0010014003000F0000E100E065
:1029E0004FF08053D3F83021082A06D1D3F8343180
:1029F000052B02D8024AD05C70470020704700BF08
:102A000014580000024AD2F80034002BFBD0704763
:102A100000E0014010B54FF08053D3F83021082A70
:102A20004ED14FF080420021C2F80C11C2F81011B3
:102A3000C2F8381502F54042D3F80414C2F8201544
:102A4000D3F80814C2F82415D3F80C14C2F82815CA
:102A5000D3F81014C2F82C15D3F81414C2F830159A
:102A6000D3F81814C2F83415D3F81C14C2F8401562
:102A7000D3F82014C2F84415D3F82414C2F848152A
:102A8000D3F82814C2F84C15D3F82C14C2F85015FA
:102A9000D3F83014C2F85415D3F83414C2F86015C2
:102AA000D3F83814C2F86415D3F83C14C2F868158A
:102AB000D3F84014C2F86C15D3F84434C2F870351A
:102AC000FFF78EFF18B13A4B3A4AC3F88C26FFF74E
:102AD00087FF18B1384BFB22C3F81825FFF780FF9A
:102AE00070B14FF080414FF08053D1F8E42ED3F80D
:102AF000583222F00F0203F00F031343C1F8E43EF3
:102B0000FFF76EFF20B12D4B4FF40072C3F8402643
:102B10004FF08053D3F83031082B1AD14FF0804357
:102B2000D3F80024D20744BF6FF00102C3F8002499
:102B30004FF08053D3F83431052B02D8204AD35CB0
:102B40003BB14FF01023D3F808224FF08043C3F875
:102B500058254FF01023D3F80022002A03DBD3F8C6
:102B60000432002B22DA174901234FF01020C1F85C
:102B700004351224FFF746FFC0F80042FFF742FF7A
:102B8000C0F80442FFF73EFF0023C1F80435FFF709
:102B900039FFBFF34F8F0C490C4BCA6802F4E06257
:102BA0001343CB60BFF34F8F00BFFDE710BD00BFE5
:102BB000005000404881030000F0004000900240B7
:102BC0000E58000000E0014000ED00E00400FA05AE
:102BD00070B501250268BFF35B8FB2FA82F3C3F1CF
:102BE0001F03DBB205FA03F422EA040450E8006F85
:102BF000964204D140E8004CBCF1000FF6D1BFF37F
:102C00005B8FE7D101480B7070BD00BF0000AD0BBA
:102C100010B50368CB40DB0714D401238B40026856
:102C2000BFF35B8F43EA020150E8004F944204D1A6
:102C300040E8001CBCF1000FF6D1BFF35B8FEED172
:102C4000014810BD0148FCE70000AD0B0400AD0BCE
:102C5000F7B5044618B1012822D003B0F0BD4FF0FB
:102C600080430222C3F80823C3F80401D3F80421E7
:102C70000122DA60074601238DF8073042F2107511
:102C80004FF08046CCB1012CE7D1C7B3D6F80C3455
:102C900003F001033B70D6F80C34DA0321D516E0BB
:102CA0004FF080430022C3F80803C3F80021D3F893
:102CB000002158600DF10707DDE7B7B1D6F81834E9
:102CC00003F003033B60D6F81834D803C5D59DF84C
:102CD0000700012803D102F0BAF8013DD2D1012C3E
:102CE000BBD10C4B00225A71B7E7D6F81834D90380
:102CF000B3D5012002F0ABF8013DF6D1ADE7D6F82F
:102D00000C34DB03EDD5012002F0A1F8013DF6D132
:102D1000E7E700BFA0080020044B1A7922B901227E
:102D200018609A800248704702487047A008002047
:102D30000000AD0B0C00AD0B10B54FF08043D3F885
:102D400000216AB10022C3F80021D3F8002101223A
:102D5000C3F80823114B587910B95A711B6898476A
:102D60004FF08043D3F8042172B10022C3F804214C
:102D7000D3F80421D3F81824D3F81814920704D1F7
:102D80000122C3F818259A6010BD0222C3F8082357
:102D9000024BBDE810401B6801201847A008002026
:102DA000036803F01F025B09012B0260024818BF91
:102DB0004FF0A040704700BF00030050034B0830A5
:102DC00033F81000C0F34010704700BF48000020E7
:102DD00070B500F108030C4C34F81330DA050546E1
:102DE0000E4607D5C3F3432304EBC30254F8333034
:102DF00052689847A3682BB1E26831462846BDE87F
:102E00007040184770BD00BF4800002010B4124A3F
:102E1000083032F81030D9051BD5C3F3432123F411
:102E2000F85322F8103002F10E04002034F8023F6B
:102E300013F4807F03D0C3F34323994209D00130B8
:102E40003028F3D1002342F83130044810BCFFF79A
:102E5000DFBE10BC704700BF48000020BC0000204F
:102E600038B50246FFF7AAFF094C02F1080540B148
:102E700034F8153007495B0B03F5A273002041F8C5
:102E800023001046FFF7C2FF002324F8153038BD99
:102E900048000020006000402DE9FF41044616462E
:102EA0001D4601B34E4F00F1080837F818309B0754
:102EB00002D5FFF783FF10BB0023CDE900338DF867
:102EC0000E308DF80F300DF10F020B4620460DF13C
:102ED0000E0102F009F837F8183023F0020343F02E
:102EE000010327F8183046B33D4B96F800C07268CE
:102EF00004F1080733F81710880702D5AAB139483A
:102F00001DE021F02001C904C90C23F8171062B19B
:102F1000BCF1030FF3D872681678BCF1000F11D121
:102F2000314A06F5A27642F826C033F8172022F07F
:102F30001C0242EA8C0223F8172045BB2B4804B040
:102F4000BDE8F081B20002F1804202F5C04241EAE0
:102F50004631D2F8100520F00300C2F81005D2F86F
:102F6000100520F44F3020F44070C2F81005200204
:102F7000D2F810E500F47C5040EA0C4040EA0E0024
:102F800041F0200123F81710C2F81005CDE7D5E96C
:102F900000672046FFF73AFF002ECFD0104DD5E94D
:102FA0000023964201D19F4218D011480DF10F0124
:102FB000FFF70EFE0D4B9842C1D19DF80F2045F84A
:102FC000326005EBC20308345F6035F8143043EA21
:102FD000422343F4807325F81430AFE70022EEE774
:102FE000480000200400AD0B006000400000AD0B65
:102FF000BC000020F0B5044685B0154619B3334E29
:1030000000F1080736F81720930703D4FFF7D6FE20
:10301000002858D112F01C0F02D04B78012B52D04F
:1030200001238DF80F300023CDE900134A1C8B1CBF
:1030300020460DF10F0101F057FF36F8173043F02D
:10304000030326F8173015B9214805B0F0BD1F4E0F
:1030500004F1080736F81700830734D595F800C047
:103060006146890020F0200001F18041C00401F593
:10307000C041C00C26F817000023C1F810356A784B
:10308000002AE1D0D1F81035AD7823F4991323F458
:10309000F853C1F81035D1F810E5230203F47C533E
:1030A000120402F4403243EA0E0313432A0502F4E9
:1030B000801240EA4C30134340F0200026F81700FD
:1030C000C1F81035C0E70348BFE700BF4800002043
:1030D0000000AD0B0400AD0B014BC3E902017047CA
:1030E0004800002008B50246FFF768FE38B1054BDE
:1030F0000548083233F812305B0B0B7008BD0348EB
:10310000FCE700BF480000200000AD0B0400AD0B41
:1031100038B50F4C94F87850BDB96022294604F1B7
:10312000100001F0F4FC0620FEF7D4F8094B0A4821
:10313000C3F87C51D3F87C214FF00042C3F804233C
:10314000012384F87830636738BD0448FCE700BF8A
:1031500048000020006000400000AD0B0500AD0BF2
:10316000034B93F87800003818BF0120704700BF68
:103170004800002001460148FFF74ABDB800002082
:1031800001460148FFF724BDB800002037B50446CA
:10319000FFF714FE04F108021E4B33F81230E8B1B9
:1031A00013F002051AD15B0B9A0002F1804000F582
:1031B000C24002F1804202F5C04205600068D2F8C8
:1031C000100540F00100C2F8100529B1012202FAF1
:1031D00003F3114AC2F8043303B030BDC3F38203D2
:1031E000042B12D0052B12D001A80194FFF7D8FDB3
:1031F000019BD0F81015D94001F0010102312046A1
:1032000003B0BDE8304001F0B8BE0321F7E702216A
:10321000F5E700BF480000200060004008B5024606
:10322000FFF7CCFDC0B102F108010E4B33F81130AD
:10323000990711D45B0B01229A409B000A4903F1C4
:10324000804303F5C043C1F80823D3F8102522F0CA
:103250000302C3F8102508BDBDE808400021104650
:1032600001F08BBE480000200060004013B50E4BFB
:1032700000F10802044633F81230DB0711D5FFF7DE
:10328000CDFF2046FFF7ECFD01A80194FFF788FD74
:10329000019B03F5E073022240F82320034802B0AB
:1032A00010BD0348FBE700BF480000200000AD0B45
:1032B0000400AD0B2DE9F04F684B694869490026C1
:1032C00087B0012234461D6835B1D0F80453154249
:1032D0001EBF1C601D68164304338B424FEA420236
:1032E000F1D1DFF87C91D9F87C31002B00F0998086
:1032F0004FF0A043D3F820250492C3F82025D3F83B
:1033000020280592C3F820284FF000080DF1100A7C
:103310004FEA481300934FF0010B49E0009B524ADB
:1033200094FAA4F4B4FA84F41C44E00804F1080309
:10333000039432F813701AF8003004F007020BFA05
:1033400002F223EA02030AF8003003A8FFF728FD7F
:10335000039B03F5E073B90850F82330C7F38205E7
:103360004A072F46C3F301432CD520463946DDB228
:10337000FFF72EFD03A80394FFF712FD039B03F54F
:10338000E07350F82330C3F301439D4207D100217D
:10339000204601F0F2FD2946204601F0EEFD03A88B
:1033A0000394FFF7FDFC039B0BFA03F3C0F82035F1
:1033B0005AF82840002CB1D1B8F1000F1DD14FF0C0
:1033C0000108A5E7022B0CD10321204601F0D5FD11
:1033D00005F00503012BE2D139462046FFF7F8FC42
:1033E000DDE702212046019301F0C7FD032DF3D054
:1033F000019B032BD3D1022DEDE74FF0A042C9F87A
:103400007C41D9F87C311949D2F820350493C2F8AF
:103410002035D1F8202505921343C1F820257FF4EB
:1034200073AF012416B907B0BDE8F08F96FAA6F382
:10343000B3FA83F304FA03F29B0003F1804303F52C
:10344000C04326EA0206D3F81005D3F81015C0F3DE
:103450000520C1F30141FFF7BBFCE3E70061004039
:103460000060004020610040480000200003005040
:1034700001460148FFF7ACBBC400002010B5144C56
:10348000144A1549032323616361144BA261E3616C
:103490004FF4806323620023A3626362E3622266C7
:1034A0000F4A6266E01D1022A2662367E366636727
:1034B00001F008FBBFF35F8F0A49204601F002FBD1
:1034C000BFF35F8F2023A371BFF35F8F10BD00BFD9
:1034D000A80800203A580000435800006F0B002055
:1034E0005F0B002047580000104B70B553F8204088
:1034F000013053F82060A64200D870BDD4E90035F1
:103500008DB12846984738B10028B8BF4042EB68D3
:10351000FF28A8BFFF201870EA68537843F0010322
:1035200053700834E7E79847FBE700BF58560000A0
:1035300008B50A4B012203201A70FFF7D5FF00F0EF
:1035400047FF0420FFF7D0FF00F030F9FCF742FFFF
:10355000034A137B23F00103137308BD6F0F002090
:103560002802002008B50348034A0021121A01F07E
:1035700041FD08BD88010020740F002070B50023B4
:1035800086B00122CDE90423134E144D01930F227E
:10359000CDE902321249142303FB005506EBC01695
:1035A00004464FF4C07000FB04110E4B00954FF41D
:1035B000A072304600F0C8F8737B0B4AEE6023F02F
:1035C000040373734FF4046304FB033313442C7438
:1035D0006B6006B070BD00BFA8010020500900203C
:1035E000C017002065380000800F002080B5002043
:1035F000A6B0FFF779FF2D4B83F308882C4D2D4E95
:103600006B692D4F43F400736B610024E02385F850
:103610002230EC772C766C76AC7685F820406B6A9D
:1036200043F4E0236B6285F82340FEF7C3F8FDF70F
:1036300031FE4FF0FF33AB62EB62FEF7F5F9FEF7B8
:103640005BF940F20113ADF8243006ABB360CDE96D
:103650001F44229401F0A7FC0120FFF745FF022040
:10366000164DFFF741FF00F04FFC154BB561059378
:10367000012314490094CDE903434FF480623B4693
:10368000CDE90144284600F05FF86A7B064622F047
:10369000040228466A7301F054FD2046FFF76EFFCE
:1036A0003A4631462846FDF703FF00BFC017002009
:1036B00000ED00E050090020313500002802002014
:1036C0004E5800004019002038B5064C064D002029
:1036D000AC4200D338BD204601F090FC0028F9DB55
:1036E0001C34F5E7380100203801002073B50C4682
:1036F0004FF02005EFF3118185F31288BFF36F8F30
:1037000045695DB125602B6843618369013383613D
:10371000002081F31188BFF36F8F11E052EA030696
:1037200003D125606FF00B00F3E7CDE900230246DB
:10373000083000F0F3FA18B9024B9B685B6923600C
:1037400002B070BD500900202DE9FF410E9E0673A6
:10375000042646730D9E867300F158050F46D61D4C
:10376000C0E916550C9A002526F007064037C0E937
:103770000655C0E919768560C573C56606F140082F
:1037800002920B9A019288440A9A00924246044699
:10379000FDF75CFE044B65659B6803B11B6F2367F7
:1037A000404604B0BDE8F081500900202DE9F04307
:1037B000294C2A4D87B02646AE4204F12C040FD383
:1037C00000F072FB244CDFF898904FF4004640F272
:1037D000E737AC4220D307B0BDE8F04300F078BB38
:1037E00054F8043C059354F80C3C049354F8103CF2
:1037F000039354F8143C029354F8183C019354F882
:103800001C3C009354E9092354E90B01FFF79CFF8A
:1038100054F82C3C5E65CEE7636A5A1C0DD023EA4F
:10382000E37300213846C3FB060151EAC333D4F8E1
:10383000008004D1404600F0E7FA2C34C9E74FF489
:103840007A720023FCF75CFC02460B4608F1180074
:10385000494600F0C3FCF0E7B0540000B05400004B
:10386000A751000008B50B4C0B4D4FF02002EFF3B1
:10387000118382F31288BFF36F8F01F0E0FC2B7885
:10388000606113B9FDF70CFDEFE7FDF749FB002878
:10389000EBD1F7E7500900206F0F00202DE9F3412D
:1038A000044617461E464FF02003EFF3118883F3BA
:1038B0001288BFF36F8FC368334A7BB18068916809
:1038C000884219D057EA060318D188F31188BFF34C
:1038D0006F8F6FF00F0002B0BDE8F081916891F931
:1038E0000E1021610133E3609368A36088F31188AF
:1038F000BFF36F8F0020EEE72169F2E791F90E1018
:1039000090F90E309942A8BF19466FF07E0291429D
:10391000B8BF11468B422EDD01F0CAFB0546CDE94A
:1039200000761A482246414600F0F8F90028E1D016
:103930004FF02003EFF3118683F31288BFF36F8FEC
:10394000A068D0B1236821699C420AD04BB193F999
:103950000E309942A8BF19466FF07E039942B8BF56
:10396000194601F0A5FB40B10848314600F03AFA8B
:103970006FF00A00AFE70025D1E7002DF4D186F300
:103980001188BFF36F8FF3E750090020700F0020FC
:1039900038B5836804466BB3194A926893422CD1B8
:1039A000C368012B03D9013BC360002038BD4FF031
:1039B0002003EFF3118583F31288BFF36F8F016942
:1039C000806801F075FB204601F0F1FBA06058B162
:1039D00090F90E2022610022826701F0B2FB0948B3
:1039E000294600F0FFF9E0E7E06085F31188BFF3B6
:1039F0006F8FDAE76FF01500D8E74FF0FF30D5E7AB
:103A000050090020700F002038B504464FF0200305
:103A1000EFF3118583F31288BFF36F8F01F0C7FBBB
:103A200048B10022826701F08CFB29460548BDE8B9
:103A3000384000F0D7B9D4E902329A4218BF0133B6
:103A4000A360F2E7700F002013B54FF02004EFF3EE
:103A5000118184F31288BFF36F8F846844B1013CF5
:103A6000846081F31188BFF36F8F002002B010BD16
:103A700052EA030406D181F31188BFF36F8F6FF010
:103A80000F00F3E7CDE900230246024800F046F9B3
:103A9000ECE700BF700F0020C3897F2B12D80A4BC0
:103AA0001B6863B1094B90F90E201B689A4209DB31
:103AB000437BDB0606D1064BC31A18BF012303F074
:103AC000010070470023FAE77C09002078090020F4
:103AD000A8010020044BC01A044BC0105843044BEB
:103AE00001221A54704700BFA8020020ABAAAAAA5C
:103AF000700F002070B50E4B0E4C1E7C06EB46037B
:103B000004EBC3040546204601F083FB0A4B002268
:103B100028469A55FFF7C0FF48B1084B08491A6874
:103B2000013A2046D317BDE8704000F057BB70BD86
:103B300050090020A8020020700F00207C090020FE
:103B4000D53A000038B50D4D2B4653F81C4F9C421A
:103B500000D004B9EC68AB6838B95A7BD20604D1FE
:103B6000A26912B9DA897F2A05D89C4202D0204680
:103B7000FFF7C0FF2346AB6138BD00BF50090020EE
:103B800070B590F90D20437B002A014604DA03F05A
:103B90007F03437301F09BFA4B7B154A63F07F036D
:103BA00010464B7350F81C3F146A834208BF002331
:103BB00023B9C1E90004216011620CE091F90E50B3
:103BC00093F90E60B5420ED0AE420CDD5868C1E9E3
:103BD0000030016059609068431A5842BDE8704057
:103BE0005841FFF7AFBF9C42E3D01B68E0E700BF3E
:103BF0005009002070B490F90D30427B002B29DB76
:103C0000D30627D183692BBB134962F07F0242732D
:103C10000A4652F81C4F944218BF23460C6A23B937
:103C2000C0E90024206008620CE090F90E5093F97E
:103C30000E60B5420AD0AE4208DD5A68C0E90032D3
:103C40001060586070BC0020FFF77CBFA342E7D033
:103C50001B68E4E770BC70475009002008B590F974
:103C60000D20437B002A014604DA03F07F034373EF
:103C700001F02DFA044B9868431A58425841BDE8A8
:103C80000840FFF75FBF00BF5009002070B5154620
:103C90001C46064601F02DFAB4F1FF3F08BFB5F10E
:103CA000FF3F08D02A46234606F118000249BDE826
:103CB000704000F093BA70BDA751000038B54FF0C6
:103CC0002003EFF3118583F31288BFF36F8F104B3E
:103CD000104A9C681068A04206D1FFF70BFF85F3DD
:103CE0001188BFF36F8F38BD00211B7C11600A4A19
:103CF000D35C002BF3D02046FFF7CEFE0028EED099
:103D0000637BDB0602D12046FFF73AFF2046E4E75B
:103D10005009002074090020700F002070B50C4875
:103D20000C4D86682E600C461146DDE904234FF0E9
:103D30002006EFF3118586F31288BFF36F8F80683A
:103D4000FFF7A4FF2046BDE87040FDF72BBB00BF86
:103D50005009002074090020F8B504464FF02003F4
:103D6000EFF3118683F31288BFF36F8F437BDA067C
:103D700049B219D18569BDB903F07F03437301F0DE
:103D8000A6F9437B164A817363F07F03437313469E
:103D900053F81C0F984218BF0546106A5DB9C4E974
:103DA00000300460146211E0A173002086F31188D2
:103DB000BFF36F8FF8BD95F90E70B9420BD08F42EB
:103DC00009DD6B68C4E900531C606C600120FFF7DB
:103DD000B9FE0120EAE7A842E1D02D68DEE700BF86
:103DE0005009002049B9EFF3058030B9054B9A69B5
:103DF0009B689A4201D0FDF7D5BA81F31188BFF3D1
:103E00006F8F70475009002010B54FF02002EFF37C
:103E1000118482F31288BFF36F8F427B510704D461
:103E200084F31188BFF36F8F10BD22F00402427338
:103E3000FFF7E0FE21460248BDE81040FFF7D2BF81
:103E4000710F002070B50446183001F0E2F94FF010
:103E50002003EFF3118683F31288BFF36F8F94F979
:103E60000D20637B002A05DA03F07F03637320468D
:103E700001F02DF90B4D637BA86843F010036373C9
:103E8000031B58425841FFF75DFE86F31188BFF3CC
:103E90006F8FAB68A34203D1BDE8704001F0AFB9AA
:103EA00070BD00BF500900204FF02003EFF31181D7
:103EB00083F31288BFF36F8F044B9A68D37B013B67
:103EC000D37381F31188BFF36F8F704750090020BF
:103ED00010B54FF02003EFF3118483F31288BFF382
:103EE0006F8F084B9A68D37B0133D3730020FFF7A1
:103EF00029FE84F31188BFF36F8FBDE8104001F0F5
:103F00007EB900BF50090020024B03F11C02C3E937
:103F10000722704750090020F8B54FF02003EFF357
:103F2000118583F31288BFF36F8F19498868437B2B
:103F300003F07F03437301F0CAF88B685A7B08468D
:103F400062F07F025A7350F81C2F0C6A824208BF3D
:103F5000002222B9C3E9000423600B620CE093F94C
:103F60000E6092F90E70BE420ED0B7420CDD516861
:103F7000C3E900210B6053600120FFF7E3FD2846F1
:103F8000BDE8F840FDF70EBAA242E3D01268E0E7C0
:103F90005009002050EA01032DE9F04105460E4684
:103FA00003D1FFF7B9FF00202CE0831C71F1FF3330
:103FB0002ADB01F054F92C184FF02003EFF311889D
:103FC00083F31288BFF36F8F114F124BB8681860DC
:103FD000FFF744FEB86810492A463346183000F00F
:103FE000FDF8BA68537B43F0100353734046FDF766
:103FF000D9F901F034F9201A63EB0303012873F1B6
:104000000003D0DBBDE8F0816FF00104241AD3E790
:104010005009002074090020A7510000B1F1FF3FB2
:1040200008BFB0F1FF3F08B506D1084B9868FFF70D
:1040300009FF4FF0FF3008BDFFF7ACFF4FF47A7374
:1040400080FB0303C00B40EA4340F4E75009002023
:10405000014B9868704700BF500900202DE9F041DE
:1040600004464FF02003EFF3118683F31288BFF369
:104070006F8F037BD9070BD586F31188BFF36F8F42
:10408000404080F311884FF0040002DFBDE8F0816A
:10409000437B1A0704D586F31188BFF36F8FF5E7CA
:1040A00023F0200242F00801D20920D14173A36815
:1040B00013B1204601F013F804F1180001F0A9F83B
:1040C00004F158074FF00008A56DBD4200D0B5B906
:1040D0000120FFF737FD104B9B68A342DBD1EFF3C4
:1040E0000583002BD7D13046FDF75CF9D3E703F009
:1040F0005F0343F00803437300F0E9FFD7E7284666
:1041000000F0EDFF05F1180001F083F8C5F87880A4
:104110002846FFF76FFDD7E75009002008B506488D
:10412000064A0749121A00F067FFBDE80840054A31
:104130000549064800F060BF00000020880100200B
:104140008458000000000000845800000000002097
:10415000034B1B680BB9FEF721BC0020704700BF62
:104160008009002010B50E4B1C689C4204D1FFF75B
:10417000EFFF6FF0004010BDFFF7EAFF002CF8D012
:10418000D4E904321B1A62EBE072B3F1004F72F112
:104190000001EEDA002AACBF18460020EBE700BFB2
:1041A000C800002030B570B10B4B5B6898420AD054
:1041B000036843B1D3E90421D0E90445121941EB66
:1041C0000501C3E90421D0E9003213605A600023DD
:1041D000C0E9003330BD00BFC8000020B3F1FF3F8D
:1041E00008BFB2F1FF3FF8B504461D4616465CD045
:1041F00081604FF02003EFF3118783F31288BFF340
:104200006F8F013275F1FF3324DA2D49D1E9002097
:104210006FF001039B1A4FF0FF3262EB00009E1B10
:1042200060EB0500012E70F1000301DA0126002089
:10423000C4E90460234ED6F800C07568B44508BFD1
:104240004FF0000CBCF1000F0DD1C4E900652C60EB
:1042500074601CE0FFF77CFF013645F1000536185D
:1042600045EBE070E4E7DCE90420D4E90431934253
:1042700071EB000E1ADAD21ADCF8043060EB0100A0
:10428000CCE90420C4E900C31C60CCF804403368C6
:10429000B34206D09C4204D1FFF764FF0021FEF731
:1042A0004BFB87F31188BFF36F8FF8BD9B1A61EB4F
:1042B0000001AC45C4E90431C7D0DCF800C0C1E757
:1042C000C0020020C80000202DE9F84F4FF0200365
:1042D000EFF3118C83F31288BFF36F8FDFF8B0A078
:1042E000DFF8B0902C4FC9F80000DAF80000002485
:1042F000504508BF00200025D7E90021D9F800303B
:10430000E04680B3D0E9046C4FEAE37EB3427EEB33
:104310000C0B05DAF61A6CEB0E04C0E9046422E01B
:10432000B21841EBE671C0E90445C7E90021FFF787
:1043300039FF88F31188BFF36F8F836898474FF078
:104340002003EFF3118883F31288BFF36F8FD9F83E
:104350000030DAF800009B1B5045C446C9F8003015
:10436000CAD1D7E900219A1841EBE3730024C7E9C9
:104370000023C9F80040FFF7F5FE2146FEF7DCFAFE
:1043800088F31188BFF36F8FBDE8F84FFFF796BC35
:10439000C800002080090020C002002010B54FF0A6
:1043A0002003EFF3118483F31288BFF36F8FFFF7BD
:1043B000CFFE064A0346D2E90001181841EBE3712B
:1043C00084F31188BFF36F8F10BD00BFC0020020BF
:1043D000014800F014BA00BF5658000010B50A4C4E
:1043E00023681BB101232360002010BD00F0EAF810
:1043F0000028F7D00138062803D8044B53F82000D2
:1044000010BD034810BD00BF840900207056000095
:10441000FE8FFFFFBFF34F8F0549064BCA6802F4BA
:10442000E0621343CB60BFF34F8F00BFFDE700BFD7
:1044300000ED00E00400FA0510B4094B09490A4CEC
:104440004FF0FE32C3F800244968C3F80424C3F8CF
:104450000824C3F80C240023C4F8003510BC084716
:1044600000B00250D000002000A00250D0E900129D
:10447000014BC3E900127047D000002010B504467C
:1044800050B1636813F0685F05D0064A934202D0CA
:1044900000232360626010BD034B04485B689847AB
:1044A000EFE700BF2C5F5CA9D00000208C56000015
:1044B000C8B143680D4A934213D013F0685F0ED021
:1044C000012350E8002F194640E8001C9CF0000F23
:1044D000F7D1012AF5D0BFF35F8F00207047044861
:1044E0007047044870476FF4E04070472C5F5CA948
:1044F000E98FFFFFEA8FFFFF80B14368094A9342CB
:104500000AD013F0685F05D0BFF35F8F002303600C
:104510001846704704487047044870476FF4E040FD
:10452000704700BF2C5F5CA9E98FFFFFEA8FFFFF98
:1045300010B5044620B1044B63600022226010BD18
:104540000248FFF779FFF6E73A00003AB456000058
:1045500070B5D0E90023174C174D6360D0E90230E5
:10456000C4E9023022604868D1F800C0134BC3E9A7
:1045700000C0D5F81801D1F808C0C3F808C010F081
:10458000685FD1F80CC00969C3F80CC0196110D07C
:104590000B49C5F8BC110023C5E9453105F58A7002
:1045A000C5F8B8319047236805F5DC70BDE8704068
:1045B000184770BDEC0000209C090020D8000020A6
:1045C0002C5F5CA938B500F02FF820B1032400F06F
:1045D00063F8204638BD00F031F898B900F0ACF827
:1045E00098B90F4DD5F828391B0EF02B08D1D5F806
:1045F000242A0C4B9A420AD0072400F017F8E6E769
:104600000624FAE70424204638BD0024F5E70120FB
:1046100000F092F804460028F7D1C5F80C0AD8E754
:1046200000B002500000E0200020704700207047DA
:10463000014BC3F8040A704700B0025010B511488E
:1046400000F048F800B110BD0F4800F043F8002812
:10465000F9D10E4C204600F03DF80028F3D10C4B68
:104660000C481C6000F036F801460028EBD100F041
:104670002DF8044608B1204610BD00F03FF8204652
:10468000FAE700BF2C0100202801002024010020AF
:104690001C0100202001002008B5084800F024F883
:1046A000074800F021F8074800F01EF8064800F01F
:1046B0001BF8BDE8084000F00BB800BF2C0100203B
:1046C0002801002024010020200100200020704744
:1046D000704700BF08B5034B02681B681068984715
:1046E000002008BDEC00002008B5034B02685B68A1
:1046F00010689847002008BDEC00002070B5094CF8
:10470000094D2069AB68984718B1084B08485B68A9
:104710009847084AEB68206900211160BDE87040A5
:10472000184700BFD8000020EC000020D000002077
:10473000D856000098090020F8B51A4D1A4E0446C4
:10474000B26828699047E8B9184F3B684CB1A3B1EB
:10475000012B19D0013B3B602869F3689847002082
:10476000F8BD43B9124A0121C2F800151149D1F828
:104770001029002AFBD101333B60F3682869984770
:104780000020F8BD0C48F8BD0A4AD2F81039002BB9
:10479000FBD1074A6FF07E40C2F80035FFF748FFB3
:1047A0003B68D7E7D8000020EC00002098090020E3
:1047B00000A0025000B00250E98FFFFFF0B40346A2
:1047C0000A461979DB8800681343DC0287680669AA
:1047D00006D513F4402F03D0DA0748BF83F44023F3
:1047E000346801258D4023F48012DB074CBF2C4335
:1047F000AC4334603B68F0BC1847002070470FB4EE
:1048000007B504A951F8040B0191FBF737FE03B07B
:104810005DF804EB04B07047044608B5084611463D
:104820001A46A047FFF714FCFDF750F8038B13F06E
:10483000070305D10368002B0CBF0020032070473D
:10484000022B05D1408BB0FA80F040098000704700
:10485000012B05D10368002B0CBF002005207047F9
:104860000020704710B50C4600B111B96FF015006B
:1048700010BD081D00F095F80028F9D1A368032B9E
:10488000F6D9F3E72DE9F0410D4607461946281DF4
:1048900090461E4600F096F8044638B1334642462C
:1048A00029463846A446BDE8F0416047BDE8F0819E
:1048B00010B44FF02004EFF3118284F31288BFF399
:1048C0006F8F416110BC0121FBF7E6BD38B50C4686
:1048D000054658B151B10B6843B14B6833B11C2246
:1048E000002100F014F92C61002038BD6FF0150094
:1048F000FBE770B505460E46FFF7B4FF041E15DB57
:104900004FF02003EFF3118283F31288BFF36F8F10
:104910006B8B2C8B4FF6FF718B4204F0070407D191
:1049200082F31188BFF36F8F6FF00A04204670BDC9
:10493000022C0CD101336B8382F31188BFF36F8F8C
:104940000023224631462846FFF79CFFEEE7062C5F
:1049500014D8DFE804F004131313041A040000232E
:1049600033606B683BB9C5E90066ACB902212846E3
:10497000FBF792FDDAE71E606E60F6E782F31188BE
:10498000BFF36F8F6FF00404D0E782F31188BFF399
:104990006F8F6FF08504C9E782F31188BFF36F8FC3
:1049A000C4E7034658B1426802F00302012A03D06B
:1049B000032A04D1026812B10020986070476FF09A
:1049C000150070474268816002F00302032A4FF02D
:1049D000000203460CBF006810465A6070472DE97C
:1049E000F84F9A46D3786F2B80460F461546A3F1B1
:1049F000410B29D024D8582B0CBF10260A26DDF8ED
:104A000028903246002340463946FBF779FB092AB5
:104A1000D4B21ED83034B045E4B277F1000709F8BB
:104A2000014D01D3D14511D82B789B0605D5082E11
:104A300015D1AB7843F00803AB704846BDE8F88F5A
:104A400003F0F703702BD7E70826D8E780460F4618
:104A5000D7E7BBF1190F94BF37345734DBE7102E7B
:104A6000EBD1AB7843F01003E6E72DE9F0410746C0
:104A7000884615461E461446B44205D30EB1601B47
:104A800008E02378002BFAD014F8010B4146B84710
:104A90000028F1DABDE8F081704708B50020FCF786
:104AA000BBF900F08CBA0146006800F088BA00211A
:104AB0000120FFF7F6BF08B5FCF754FCBDE808403D
:104AC000FCF72CBD0139034611F8012F0AB91A7001
:104AD000704703F8012BF7E7034600201A5C02B980
:104AE00070470130FAE7034600201A5C0AB1884299
:104AF00000D170470130F8E710B5431E0A449142D7
:104B000000D110BD11F8014B03F8014FF7E7C9B20E
:104B100002440346934200D1704703F8011BF9E7B2
:104B20004FF0FF307047062808D14FF08043012234
:104B3000C3F80025BFF34F8F20BFFDE77047002368
:104B400083F31188BFF36F8F70470369C9B20C22DA
:104B500001FB0233186C00F0070070474FF0200390
:104B6000EFF3118283F31288BFF36F8F036803F0B2
:104B7000C00343F00203036082F31188BFF36F8F19
:104B8000704770B5C9B203694FF02004EFF3118587
:104B900084F31288BFF36F8F0C2606FB0134246C5C
:104BA00014F0C00408D0A24206D085F31188BFF3E8
:104BB0006F8F4FF0FF3070BD06FB013301221A6486
:104BC00085F31188BFF36F8F436803EBC1035B6804
:104BD00098470020EFE78022FFF7D3BFF8B5069F84
:104BE0000469C9B24FF02005EFF3118685F31288EE
:104BF000BFF36F8F0C2505FB0144256C05F0070CF6
:104C0000BCF1010F0CD1276486F31188BFF36F8FBD
:104C1000C4E90E23436853F8313098470020F8BDAB
:104C200005F0C005AF4286F31188BFF36F8F0CBF4C
:104C30006FF077004FF0FF30F1E713B58024009458
:104C4000FFF7CCFF02B010BD10B40069CBB21C243A
:104C500003FB0400002110BC1047002000F006B93F
:104C6000002000F03FB91046FEF7CEBE43685B68F7
:104C7000D3F810350B600020704743685B6802EA88
:104C8000010021EA0201C3F80805C3F80C15002051
:104C9000704743685B680020C3F808157047436895
:104CA0005B680020C3F80C15704743685A68D2F857
:104CB000043521EA03000B40C2F80805C2F80C35A0
:104CC0000020704710B503695868F8B1884219D1BF
:104CD0009C6808685860A14200D198600020086074
:104CE0002AB15A680A609A68596002B9996000202E
:104CF00010E0814206D10868206098688142EDD1B9
:104D00009C60EBE7044600680028F2D1002AE8D155
:104D10006FF0150010BD30B543681360057A446824
:104D200004EBC504A34202D36FF0010030BD5C79EF
:104D30008C4201D00833F0E70020F7E702690B4608
:104D4000D2E9010183E803000020704743681B6833
:104D5000D3F88004C3F880047047436802691B6875
:104D6000D3F8100150B15269002012780A70C3F8CC
:104D70001001D3F8102101221A6070474FF0FF3064
:104D8000704702680346D2F8580140B95B689B0738
:104D900006D4D2F82001003818BF01207047012046
:104DA000704742681368D3F80413C90518D5D3F8BF
:104DB0002011A9B14FF02000EFF3118180F3128888
:104DC000BFF36F8FD3F8200130B10020C3F820016A
:104DD000D3F820010120D86081F31188BFF36F8FD1
:104DE0005268D20615D54FF02001EFF3118281F3FE
:104DF0001288BFF36F8FD3F8581111B10021C3F897
:104E000000154FF48001C3F8081382F31188BFF333
:104E10006F8F7047704700F150039B009BB203F106
:104E2000804303F5883300221A601B68704708B579
:104E30000020FCF75FFEFFF7D1BA08B5FCF73EF99A
:104E4000FCF712FABDE80840FFF7C8BA004700F0C7
:104E50000ABA08B50020FCF75FFA08B9FCF73AFA7D
:104E60004FF080430022C3F8182508BD08B510B1E3
:104E700001282CD008BD4FF08042D2F81834D2F867
:104E80001814C8030BD4D2F81434D9070FD5D2F8AC
:104E90001C349B0708D40223C2F80433EAE703F06A
:104EA0000303012B04D013B10020FDF7D1FE002332
:104EB0004FF08042C2F818350023C2F80431D2F80E
:104EC00004310223C2F8043301239360D2E74FF088
:104ED00080430022C3F80021D3F80021C3F8040363
:104EE0001860C7E7FDF7B4BEF7B5019001A8DDE98A
:104EF000084716461D46FDF753FF019BB6F1000C0F
:104F000018BF4FF0010C00EB83000B1E18BF0123EC
:104F1000002D43EA4C0314BF4FF00C0C4FF0000C73
:104F2000002C43EA0C0314BF4FF4E06C4FF0000C6C
:104F3000002F43EA0C03D0F8002714BF4FF4403C85
:104F40004FF0000C43EA0C0322EA030301B1097895
:104F50000EB13678760019430DB12D78AD0031438E
:104F60000CB12478240229430FB13F783F040C434D
:104F70003C43C0F8004703B0F0BD1FB50DF10F036F
:104F8000019300238DF80F1000931A461946FFF77E
:104F9000ABFF05B05DF804FBFEF770BA08B5FFF78C
:104FA000FBFF002008BD704740B1C368587810F07F
:104FB00001001EBF1878B0FA80F040097047F8B5BC
:104FC00005460E464FF02003EFF3118783F3128856
:104FD000BFF36F8FFFF73CF8314604462846FFF7D2
:104FE00026FF87F31188BFF36F8F2046BDE8F84096
:104FF000FCF76CBCFFF78BBDFFF77EBDD0E9033239
:10500000134313F003030CD143618168994201D823
:105010000020704741691160C168426101330A4450
:10502000F3E76FF01500704710B5C0E902320023B6
:10503000016183610446FFF7E1FF0028A8BFC4E9CE
:10504000004410BDF8B504460D464FF02003EFF3C1
:10505000118683F31288BFF36F8F476977B900F029
:10506000A6F858B12A684261876700F06AF83146AD
:1050700004F10800BDE8F840FEF7B4BE2B68626991
:105080001A602B686361A369013BA36186F31188F1
:10509000BFF36F8FF8BDEFF30580003818BF012014
:1050A000704708B5FBF700FFBDE80840FFF7B2BE48
:1050B00090F90E308B4201D0FEF74EBE00207047B3
:1050C00003460020C3E90200C3E900337047D0E97A
:1050D000003213605A600023C0E90033704708B5FE
:1050E000FFF7F5FF437B23F0020343730023836044
:1050F00008BD38B504460D46FEF7B0FD637B43F0AE
:1051000002036373E5B1A5602B689D4209D16B680A
:10511000C4E900531C606C6012E06A689342F6D0E8
:105120001B68002BF3D094F90E2093F90E108A42DD
:10513000F3D09142F1DD5A68C4E9003214605C603A
:1051400038BD10B54FF02003EFF3118483F31288BC
:10515000BFF36F8FFEF74EFD84F31188BFF36F8F9F
:1051600010BD38B504464FF02003EFF3118583F3EB
:105170001288BFF36F8F437B13F0280F0BD1836826
:105180000BB1FFF7ACFF637B51B903F0FB03637313
:105190002046FEF72FFD85F31188BFF36F8F38BDD2
:1051A00003F0EB03F3E701211838FFF7DABF38B556
:1051B0004FF02003EFF3118583F31288BFF36F8F55
:1051C0000468A0420DD034B12046FFF788FF04F1F7
:1051D000180000F01EF885F31188BFF36F8F20468A
:1051E00038BD0024F7E7034620B9EFF305820AB97A
:1051F000FCF7D8B883F31188BFF36F8F70474FF077
:105200002003EFF3118083F31288BFF36F8FFFF752
:10521000EABF10B54FF02002EFF3118482F3128839
:10522000BFF36F8F03683BB1FEF7BCFF002084F330
:105230001188BFF36F8F10BD6FF01500F7E710B541
:105240004FF02003EFF3118483F31288BFF36F8FC5
:10525000FEF788FF84F31188BFF36F8F10BD08B588
:10526000FFF79CF808BD08B1FCF75ABC70477047BF
:08527000C4AEFF7F0100000045
:10527800951A000000000000A91B0000D052000091
:105288009D4F000000000000C9360000000000002B
:105298003D1F0000E85200003D1F000000530000C1
:1052A800374E000000000000C5230000185300001E
:1052B800191E000000000000D927000000000000AF
:0852C8003B4E00000000000055
:1052D000AB5700009C550000AC5500003001002089
:1052E00028080020C2540000C8570000C85500001C
:1052F000E8550000320100207C080020BC5400006A
:10530000D6570000D8550000E855000034010020B1
:1053100088080020B6540000E45700000C56000036
:1053200040560000360100202C000020B054000040
:10533000392D00004D4E000000000000AF4A000073
:1053400018530000A34D000000000000AF4A000009
:1053500000000000AF4A000000000000AF4A00005B
:10536000B53200004D4E000000000000AF4A0000C2
:1053700000000000AF4A000000000000AF4A00003B
:1053800000000000AF4A000000000000AF4A00002B
:1053900000000000AF4A000000000000AF4A00001B
:1053A00000000000AF4A000000000000AF4A00000B
:1053B00000000000AF4A0000000000006528000067
:1053C00000000000AF4A000000000000AF4A0000EB
:1053D00000000000AF4A000000000000AF4A0000DB
:1053E00000000000AF4A000000000000AF4A0000CB
:1053F00000000000AF4A000000000000AF4A0000BB
:1054000000000000AF4A000000000000AF4A0000AA
:1054100000000000AF4A000000000000AF4A00009A
:1054200000000000AF4A000000000000AF4A00008A
:1054300000000000AF4A000000000000AF4A00007A
:1054400000000000AF4A000000000000AF4A00006A
:1054500000000000AF4A000000000000AF4A00005A
:1054600000000000AF4A000000000000AF4A00004A
:1054700000000000AF4A000000000000AF4A00003A
:1054800000000000AF4A000000000000AF4A00002A
:1054900000000000AF4A000000000000AF4A00001A
:1054A00000000000AF4A000000000000AF4A00000A
:1054B00000800080FF7F00800080FF7F00800080F0
:0854C000FF7F00800080FF7FE8
:1054C8001A580000000000002558000000000000E5
:1054D8003158000000000000F856000000000000ED
:1054E800BA57000000000000025800000000000049
:1054F8008E57000000000000535800000000000014
:105508003857000000000000A75700000000000006
:08551800F25700000000000042
:105520000338FDD870470000005300000D00010053
:10553000005300000B001100000000009B4A000017
:1055400020000020180000201000002000000000B3
:1055500008000020D5110000C91000001D11000036
:105560007D110000000000200000000000000B067C
:105570000200000078550000000000009257000073
:1055800026000207000000209A57000022000B119D
:10559000651B0000351B000000000000511C0000CE
:1055A000E91C00005B4C0000614C0000B51C0000D1
:1055B000D74B00003B4C0000000000004B4B0000AC
:1055C0000000000000000000FFFF0000000300508A
:1055D0000000000001000000FFFFFFFF000000507E
:1055E0000000000000000000C11F00006D4C000022
:1055F0007B4C0000934C00009F4C0000AB4C000023
:10560000691E0000C54C00000000000000200040A2
:1056100002000000000000001C56000000200040B6
:105620002856000001000000305600000400000071
:105630000600000005000200880101008701030048
:105640005B4D0000C12400004D4D00005D220000B4
:105650003D4D0000F5FFFFFF78520000785200003A
:10566000C0520000C8520000D0520000D0520000CA
:10567000FF8FFFFFFF8FFFFFFE8FFFFFFE8FFFFFFC
:10568000FD8FFFFFFC8FFFFFFC8FFFFF6D757465C3
:10569000785F667265652063616C6C65642077690C
:1056A0007468204E554C4C20706172616D65746554
:1056B0007200000043616E277420696E697469612D
:1056C0006C697A65206D757465782C20776173201C
:1056D0004E554C4C0D0A0000436F756C64206E6F84
:1056E00074206C6F636B20706F77657220736176C6
:1056F00065206D757465780063627072696E74669A
:105700005F7061636B61676500286E696C29004694
:1057100061696C656420746F207265626F6F743AA2
:10572000207370696E6E696E6720656E646C657358
:10573000736C792E2E2E0A00706D006D757465786D
:105740005F696E69742063616C6C6564207769744D
:1057500068204E554C4C20706172616D65746572A5
:1057600000436F756C64206E6F7420616C6C6F63A6
:10577000617465206D75746578206265666F726509
:1057800020696E697469616C697A696E67006D7011
:105790007500464C4153485F30005352414D5F30D5
:1057A00000000001000000736F6300636C6F636BA7
:1057B00040343030303030303000636C6F636B5FBA
:1057C000636F6E74726F6C006770696F4035303054
:1057D0003030333030006770696F403530303030F2
:1057E00030303000756172744034303030323030D7
:1057F0003000756172745F6E7266785F7561727485
:105800006500666174616C5F6572726F72000000A2
:10581000000000010100000000004E5246585F43A6
:105820004C4F434B004E5246585F4750494F5445EA
:10583000004E5246585F505049005465726D696E73
:10584000616C0052545400534547474552006D6106
:10585000696E006F73002A2A2A20426F6F74696E86
:1058600067205A6570687972204F53206275696CA1
:105870006420323861336663613764613563202A9E
:045880002A2A0A00C6
:10588400FB470000FFFFFFFF4C0100203A0000002F
:10589400600100203A000000380100203A000000B6
:1058A400740100203A000000214B000000000000B9
:1058B40000C2010000010300000000005E0B002094
:1058C4005D0B00200000000000000000000000004C
:1058D40000000000000000000000000000000000C4
:1058E40000000000000000000000000000000000B4
:1058F40000000000000000000000000000000000A4
:105904000000000000000000000000000000000093
:105914000000000000000000000000000000000083
:105924000000000000000000000000000000000073
:105934000000000000000000FF0000000000000064
:1059440000000000FFFF0F00C8000020C800002076
:105954000000000015440000140100200C01002088
:105964000401002000000000FC000020314500007C
:105974007D440000B1440000F9440000880900207F
:105984003A00003A8C0900203A00003A90090020BD
:105994003A00003A940900203A00003A2401002019
:1059A400E8000020E0000020DC000020D8000020F7
:0859B4000000000000000000EB
:1059BC003801002038010020000000000000000029
:1059CC000E0000004C0100204C01002000000000E3
:1059DC00000000000E0000006001002060010020AB
:1059EC0000000000000000000E0000007401002008
:1059FC007401002000000000000000000E000000F8
:045A0C0015E015E0AC
:04000003000017F1F1
:00000001FF
