:10000000C0260020F536000045760000C936000005
:10001000C9360000C9360000C936000000000000E3
:10002000000000000000000000000000B92F0000E8
:10003000C9360000000000004D2F0000C936000046
:10004000753000007530000075300000753000001C
:10005000753000007530000075300000753000000C
:1000600075300000753000007530000075300000FC
:1000700075300000753000007530000075300000EC
:1000800075300000753000007530000075300000DC
:1000900075300000753000007530000075300000CC
:1000A00075300000753000007530000075300000BC
:1000B00075300000753000007530000075300000AC
:1000C000753000007530000075300000753000009C
:1000D000753000007530000075300000753000008C
:1000E000753000007530000075300000753000007C
:1000F000753000007530000075300000753000006C
:1001000053B94AB9002908BF00281CBF4FF0FF317E
:100110004FF0FF3000F00CB8ADF1080C6DE904CEE3
:1001200000F008F8DDF804E0DDE9022304B07047D0
:10013000704700BF2DE9F04786468C460846089E6A
:10014000154674461946002B40F0C2808542B2FA2B
:1001500082F245D94AB1C2F1200300FA02FC2EFA1C
:1001600003F3954043EA0C0C94404FEA154EA8B2B5
:10017000BCFBFEF8230C0EFB18CC08FB00F943EA8D
:100180000C43994528D9EB1808F1FF3704D299455B
:1001900002D9A8F102072B44A3EB0903A4B2B3FBD5
:1001A000FEFC0EFB1C330CFB00F044EA0344A042AF
:1001B00014D92C190CF1FF3304D2A04202D9ACF1AE
:1001C00002032C44241A43EA07401EB1D440002302
:1001D00034607360BDE8F0874746DDE76346F1E7CA
:1001E00092BB431B01214FEA154EAFB2B3FBFEFC9D
:1001F000200C0EFB1C330CFB07F840EA0343984528
:1002000062D9EB180CF1FF3004D2984502D9ACF159
:1002100002002B44A3EB0803A4B2B3FBFEFC0EFBCD
:100220001C330CFB07F744EA0344A7424ED92C19B0
:100230000CF1FF3304D2A74202D9ACF102032C44E3
:10024000E41B43EA0040C0E7C2F1200320FA03F1B7
:10025000954090402EFA03F303434FEA154EAFB298
:10026000B1FBFEFC0EFB1C10190C0CFB07F841EA5D
:100270000041884504FA02F422D969180CF1FF30D4
:1002800004D2884502D9ACF102002944A1EB08014F
:100290009BB2B1FBFEFC0EFB1C110CFB07F743EA03
:1002A00001439F420ED9EB180CF1FF3104D29F425B
:1002B00002D9ACF102012B44DB1B41EA004192E779
:1002C0006046E3E76146F7E76046A3E76346B7E7C2
:1002D000834206D916B9002108467BE7C6E900E04B
:1002E000F9E7B3FA83F78FB9834201D3724508D88F
:1002F000BEEB020460EB030301209C461EB9002103
:1003000068E73846FAE7C6E9004CF8E7C7F1200C81
:10031000BB4022FA0CF41C432EFA0CF120FA0CF329
:10032000B84001434FEA14490EFA07F5B3FBF9F858
:100330001FFA84FE09FB18300B0C08FB0EFA43EA87
:1003400000439A4502FA07F240D9E31808F1FF305A
:1003500004D29A4502D9A8F102002344A3EB0A0370
:1003600089B2B3FBF9F809FB183308FB0EFE41EA2A
:1003700003418E452CD9611808F1FF3304D28E4514
:1003800002D9A8F10203214443EA0040A0FB0298ED
:10039000A1EB0E014145CE46434602D306D14D4561
:1003A00004D2B9EB020E68EB04030138002EA6D08C
:1003B000B5EB0E0261EB030101FA0CFC22FA07F324
:1003C0004CEA0303F940C6E9003198E74046C5E727
:1003D0004346D9E710B5184C86B0A06840F6CD4228
:1003E000002305F0ABFBD8B923790BB901232371A6
:1003F000A06805F01DFC114B059302230493002314
:1004000004AA4FF486510E4801F000FF0D4B2268FC
:100410009A420ED1E06806B0BDE8104007F0F0BC8B
:10042000094B059302230493002304AA4FF484513B
:10043000E9E706B010BD00BFA0080020C884000096
:10044000A8810000CD090000E984000038B5084CFF
:10045000084BA3600025257105F04EFFE0600648BB
:1004600000F04EF929462046BDE8384000F0E6B9D4
:10047000A00800208C010020D5030000F0B5144E28
:1004800087B0044600AF002530462146013506F00E
:10049000DFFB042D06F10806F6D13D1D0D4A23466B
:1004A0001421284603F0A4FA88B06A460A4BC2E930
:1004B00005354FF400739383084B42F8103F08480A
:1004C00000234FF4E65101F0A1FE1C37BD46F0BDFC
:1004D00018820000718F00000F85000003000001EA
:1004E000A88100002DE9F04186B0234807F031FBD8
:1004F000034660B9214A0592022204924FF48251C8
:1005000004AA1F4801F082FE06B0BDE8F0811D4C30
:100510000026012720682179E388D0F810C0D0F8A0
:100520000880DCF80050DA0754BF43F4B01383F4BA
:10053000D01323F4801207FA01FEDB074CBF45EA13
:100540000E0525EA0E05CCF80050D8F80030984783
:100550000028D9DB0136042E04F10804DAD1012089
:10056000FFF78CFF084B059302230493002304AA92
:100570004FF48651C5E700BFA07F00001D85000035
:10058000A8810000188200003385000070B50A2899
:1005900086B004460FD1174D05F11806284606F01F
:1005A0004FFB304606F04CFB962006F039FB013C31
:1005B000F4D106B070BD0B280FD10F4D0A2405F100
:1005C0000806284606F03CFB304606F039FB96202C
:1005D00006F026FB013CF4D1EBE7084B0593022320
:1005E00004930748002304AA4FF4845101F00EFE3F
:1005F000DFE700BF1882000020820000488500006D
:10060000A881000010B50A2886B00C4609D10F4811
:1006100006F01EFB0E48214606B0BDE8104006F06D
:1006200017BB0B2805D10B4806F012FB0A482146E0
:10063000F2E70A4B0593022304930948002304AA16
:100640004FF4845101F0E2FD06B010BD18820000A5
:1006500030820000208200002882000065850000B2
:10066000A881000038B50A4D7824284606F0E8FA3B
:10067000192006F0D5FA013CF7D1054D0A24284689
:1006800006F0DEFA962006F0CBFA013CF7D138BD31
:10069000308200007FB5154B994211D1144B059360
:1006A000022304931348002304AA4FF4865101F057
:1006B000ADFD114B1B68652007B05DF804EB1847D2
:1006C0000C3399420ED10C4B64201B6898470B4B9E
:1006D0000593022304930748002304AA4FF486518C
:1006E00001F094FD07B05DF804FB00BFB4080020E2
:1006F00089850000A8810000B0080020A5850000C1
:100700002DE9F04F87B0804600AF414B7B6102245A
:100710003C614048002307F110024FF4865101F07C
:1007200075FD3D4807F015FA034650B93B4AC7E945
:1007300004424FF4825107F11002364801F066FD81
:1007400031E0374C374DDFF8E0A000264FF00109CB
:10075000E3882068217943F48032D0F810C0D0F8C3
:1007600008E013F0010FDCF8003009FA01FB14BFB8
:100770004BEA030323EA0B03CCF80030DEF8003029
:100780009847002815DA6C4688B06A46274BC2E9BC
:100790000536032342F8103F1E4800234FF4C25190
:1007A00001F034FDA5461C37BD46BDE8F08F01269B
:1007B000CEE72068217983684FF0A072D3F818B093
:1007C0004FF00073D847002804DA6C4688B06A46B8
:1007D000174BDCE72379206809FA03F3C5E901A385
:1007E0008368DB6913B101222946984708340C3528
:1007F000002EDCD00F4BC3F800800F4B7B6102232F
:100800003B61002307F110024FF4865195E700BFCA
:10081000C1850000A8810000A07F00001D850000A8
:1008200038820000B408002095060000D48500003E
:10083000FE850000B00800202586000010B50129C3
:1008400086B0044617D0022921D0022329BB164ABC
:100850001648CDE904324FF4865104AA06F00CFA8A
:10086000134B2360FFF73EFE1249204606B0BDE859
:10087000104006F006BA104B05930223049304AA15
:100880004FF48651094806F0F7F906B010BD002074
:1008900006B0BDE81040FFF7F1BD084A4FF484519F
:1008A000CDE9043204AAEDE736860000A8810000F5
:1008B0003D080000C1080000408600004B86000093
:1008C00010B5013986B00446022303293CD8DFE87D
:1008D00001F0021B2E39204A2048CDE904324FF4A2
:1008E000865104AA06F0C8F901210A20FFF78AFE02
:1008F00000214FF4403005F0E5FC1949204606B0D0
:10090000BDE8104006F0BDB9164A1448CDE90432DE
:100910004FF4865104AA06F0AFF90A20FFF736FE1D
:1009200000210A2006B0BDE81040FFF76BBE0E4A5A
:10093000CDE904324FF4865104AA084806F09CF928
:1009400006B010BD094AF3E7094A4FF48451CDE9D6
:10095000043204AAF1E700BF5E860000A88100000F
:10096000CD0900006D8600007B86000096860000A1
:10097000A986000010B5044686B0806840F6CD42D6
:10098000002305F0DBF880B9237943B1A06806F0B5
:1009900076F90B4B23600121204600F07DF8A0681A
:1009A00006B0BDE8104006F06AB9064B059306484C
:1009B000022304AA4FF48451049306F05DF9EEE794
:1009C000990A0000E9840000A881000010B50139EF
:1009D00086B004460223032948D8DFE801F002214B
:1009E0003437264A2648CDE904324FF4865104AA0A
:1009F00006F042F901210B20FFF704FE2046FFF725
:100A0000B9FF00214FF4403005F05CFC2046FFF7B1
:100A1000B1FF23680421204606B0BDE81040184706
:100A20000B20FFF7B3FD00210B20FFF7EBFD154B6B
:100A300005930223049304AA4FF48651104806F04C
:100A40001BF906B010BD104A0592F3E70F4A0C4897
:100A5000CDE904324FF4865104AA06F00DF90C4991
:100A6000204606B0BDE8104006F00BB9094A4FF425
:100A70008451CDE9043204AAE0E700BFC08600003B
:100A8000A8810000CF860000DD860000F886000007
:100A9000C10800000B87000030B5022987B004466A
:100AA0000D4617D0042949D001294FF0020352D135
:100AB0002E4A2F48CDE904324FF4865104AA06F09D
:100AC000DBF8FFF7CFFD23680421204607B0BDE81F
:100AD00030401847274B2648CDE9041304AA4FF4A9
:100AE000865106F0C9F8A06840F6CD42002305F013
:100AF00025F8C8B92071A06806F0C1F8A06806F012
:100B0000BEF81D4B05931A48022304AA4FF48651E0
:100B1000049306F0B1F8194B23600421204607B076
:100B2000BDE83040FFF752BF154B114804AA4FF4FF
:100B30008451CDE9045306F09FF8DFE7114B0C48D0
:100B4000059302254FF4865104AA049506F094F803
:100B500029462368B9E70C4A0548CDE904324FF429
:100B6000845104AA06F088F807B030BD228700003F
:100B7000A88100003C87000055870000CD090000D7
:100B8000E984000077870000958700002DE9F04F89
:100B900091B08407009302F004030293C2F3C203EE
:100BA00003F10103DDF86880039205460E460593C4
:100BB00040F0BE81041D30B1072909D86FF01B0039
:100BC00011B0BDE8F08F01F00706341DC6F108062C
:100BD000009B4FF00009591E4FF0040A4FF0FF33FD
:100BE0000193CDF810904F46CB4653460DB1009A75
:100BF00022600598002800F3EB809A48009A824210
:100C000003D399488242C0F0E380039AA4EB050E17
:100C100092074FEA9E0000F106810F2F00F2B48088
:100C2000002D00F0088107F140020DEB020C019A43
:100C30000CF8200C0CF8102C049801300490EAE019
:100C40007A2860D84B280ED847285CD829282FD876
:100C5000252855D057D820287DD02338D0F1000B37
:100C60004BEB000B77E0A0F14C0CBCF12E0F4AD8F7
:100C7000DFE80CF07149494949494949494949491D
:100C80004C49494949494949495A494C4C5A5A5A87
:100C9000714C6E497149184C18494983804C494937
:100CA0004C49800000204FF0000B4FF0040A39E05F
:100CB000A0F12A0C5FFA8CFC012202FA0CFC1CEA5F
:100CC0000E0F48D11CF062502ED11CEA020B42D00C
:100CD000013C5444CAF1000C04EA0C04002D61D01C
:100CE000A3EB050CA444B4453FF668AF002868D1D7
:100CF000042B47D158F8043B2360043404232AE032
:100D0000019A013A01924FF0000B24E011F8010C16
:100D10006C2834D111F8023C00206C2B8346C4D1DE
:100D20004FF0080A5346D3E708F1070828F00708F0
:100D30000734F8E802AB24F0070435B106982044E4
:100D4000B0423FF63BAFC4E900AB08344FF0000BB4
:100D50004FF0080A534611F8010F002878D0BBF174
:100D6000000F7FF46DAF2528F5D1019B013301936E
:100D70004FF0010B4FF0040AECE7584693E70020D0
:100D80008346A5E7082B02D06FF0150018E708F19D
:100D9000070828F00708F8E80223C4E9002308340C
:100DA0000823D8E768B9042B02D108F10408A4E7A6
:100DB000082BE9D108F1070828F0070808F108080E
:100DC000EDE7059A013A059258F8042B00920DE7D9
:100DD000039A900720D5A4EB050E4FEA9E004FF032
:100DE000010CBEF5007FCFD20F2FCDD8F5B107F1A2
:100DF00040020DEB020EC0B2019A0EF8200C0EF864
:100E0000102CBCF1000F3FF417AF60F07F000EF81C
:100E1000200C09F101090137C5F1080204340692DA
:100E20004FF6DA7E97E74FF0000CDAE7BCF1000FDF
:100E300001D00136EFE7029802360028EBD1009886
:100E4000CDE9063106F012FCDDE906310644E2E7A1
:100E5000631BB3F5806F97D245B9A6F10804E0187B
:100E6000AEE600BF107F000030900000029A2860BC
:100E70009B082B709DF81030C2B1EB7085F8029082
:100E8000B9F1000F05D008A80022C5F1010C974266
:100E90000ED1C5F101030DF120084FF0000A0193B6
:100EA0000DF1300B574512D1601B89E66B70E5E7F9
:100EB00010F8013B190608D504EB0C0EB64503F0FB
:100EC0007F033FF67BAE04F8013B0132DFE7B9F167
:100ED000000F03D098F90020002A17DB029BD3B142
:100EE0001AF80B2004F8012B0022019B98182044CB
:100EF000B0423FF663AE98F8000004F8010B009989
:100F00000392204606F0C2FB039A14440AF1010A38
:100F100008F10108C6E798F8002055F82230009340
:100F2000029B45F82230009806F0A0FB421CDCE74B
:100F30006FF00D0044E600BF2DE9F04F95B000AF13
:100F40000446D7F878B0BB61CBF3C0037A623B614B
:100F5000396251B903784678807800EB83002044E9
:100F60003B6A9E421AD8031B3B6294F802A0E378C6
:100F70007B615646BAF1000F02D01BF0010F17D16A
:100F80007B695BBB7B6A1BB1BA69396A20469847AB
:100F90003D6A28465437BD46BDE8F08F451C2846BB
:100FA00006F064FB3B6A0130013328443B62D7E71B
:100FB00094F800806368FB617B6A4FEA8802FA60FC
:100FC00004EB8808002B40F001813D6AC1460AEB22
:100FD000080300264B454ED1D04413E01BF0020F0E
:100FE000D0D094F800804FEA8803FB606368FB610F
:100FF0007B6A04EB8808002B78D13D6ABAF1000FB8
:101000004ED156461BF0050F0CBF022301237B6215
:101010007B6908EB430A0BF002033B62D045B8D072
:1010200018F8021B18F8013C54F82390AC4B994572
:1010300002D3AC4B994539D33B69002B43D0F869B7
:1010400005F05DFE00283ED0E9468AB06A46A64B10
:101050005361FB69C2E906314FF400731384A34B5B
:1010600042F8103FA24800234FF4125101F0CEF88D
:10107000023DCD46D2E719F8012B7B6254F82200DD
:1010800006F0F4FAFA6F7B6A01303AB1D7F88020A3
:1010900096423EBFFA6F22F816000136054499E7E2
:1010A0001BF004061CBF7E6AD044ABE73B6923B14A
:1010B000F86905F024FE0028C6D11BF0010F05D108
:1010C0007B6AED1AAAE73B6A002BA7D0484606F0D8
:1010D000CDFAFB6F43B1D7F880309E423FBFFA6F25
:1010E000431C22F816300136054497E7BAF1000F89
:1010F00071D01BF0040671D0D146002607F14000E4
:101100005246414606F0C2FA7B695B00BB607B69D0
:10111000D04408EB43037B610BF002037B607B69E7
:1011200098455DD12378FB6163781BF0020F06EBD5
:1011300003020CBF4FEA590100211BF0010FD2B28C
:1011400040F09D801BF0040F14BF4846002094F827
:1011500002B094F803803B616270A070E170BA69DC
:10116000F9687B6A20469847051EFFF612AFFB69B7
:1011700023703B69637084F80380BA697B6A84F8E2
:1011800002B0494607F140009847B0F10008C0F2AC
:10119000A3803B6ABA697869A3EB0A01FB68C91AA4
:1011A000BB68C91A7B6A98470028C0F29780A84498
:1011B00008EB00054FF0000B07F1300AB34560D390
:1011C0000021BA697B6A08469847E2E64FF00009B9
:1011D00007F1300094E75646D14695E7B14693E7CC
:1011E00018F8021B3E4A18F8015C54F82530934267
:1011F00002D33C4A93421CD33B6923B1F86905F002
:101200007EFD00288BD17B68F3B909F1280207F134
:101210002800024409F1010302F8101C07F15002F2
:1012200052FA83F309F102095FFA89F903F8105CB5
:1012300075E73B692BB1F86905F061FD00287FF483
:101240006EAF1BF0010F09D006F1280207F128014B
:10125000731C561806F8205CDEB260E71BF0040F22
:101260003FF45DAF09F1280207F1280109F10103FC
:1012700002EB010909F8105C5FFA83F94FE70020DF
:1012800065E71BF80A3087F82F3054F82390FB6F7E
:10129000FBB133F81B80BA697B6A012107F12F008B
:1012A000984700281ADB0544B8F1000F06D14846DC
:1012B00006F0DCF900F101081FFA88F8BA697B6AC8
:1012C000414648469847002808DB05440BF1010BCE
:1012D00074E7D7F87C80DEE745465AE6054658E6CF
:1012E000107F000030900000B7870000040000016C
:1012F00080810000014B1860704700BF0000002093
:1013000030B587B00025CDE903010446009503A957
:101310000548059500F018F9DDE904309842B8BF9A
:10132000255407B030BD00BF4D6D00002DE9F047DA
:10133000058B04462807904611D4022905F00705BD
:1013400040F0CD80204605F038FD78B10138218B82
:10135000042811D8DFE800F0C3106D85950001293D
:101360000CBF45F0100545F02005258388F3118852
:10137000BFF36F8FBDE8F08701F0070AAA4500F0C0
:10138000A6800027B9463E46A368002B00F0BD802A
:1013900041F00801218388F31188BFF36F8FA168A2
:1013A000002900F0BB800D68002900F0B780D1F85B
:1013B0000480334652462046C047002D76D02B6825
:1013C00029461D46F0E701F007035A1F012A1BD8E2
:1013D000002221F00701062B276889B2C4E9002208
:1013E00009D13B4603E0628B013262831B68002B0C
:1013F000F9D141F002012183204605F0DEFC0028EE
:101400007BD041F0200177E0042B0AD121F00701C5
:1014100089B22183204605F0D0FC10B141F02001B3
:101420002183218B01F0070AAA4550D00027B94635
:10143000AAE7236921F0070141F00601062DD3F840
:10144000009021832DD1B9F1000F40D041F0080167
:10145000218388F31188BFF36F8F3A492046C8472C
:1014600029E021F00701236941F0040189B2042D2C
:10147000D3F804902183E6D000273E464FF0040ABB
:1014800082E721F00701236941F0050189B2052DAA
:10149000D3F808902183D6D000273E464FF0050AA6
:1014A00072E700273E464FF0060A6DE72B4687E7B6
:1014B000B9F1000FD1D14FF02003EFF3118883F37E
:1014C0001288BFF36F8F238B23F008032383258BB0
:1014D000EA062ED525F01003238305F0070566697B
:1014E000218B002EBFF66FAF00232768C4E90033BD
:1014F00021F0070141F001012183218B01F0070A4E
:10150000AA454FF000097FF43FAF002F9BD041F078
:101510000801218388F31188BFF36F8F002FC7D094
:101520003D68394633465246204605F072FC2F4648
:10153000F4E7AB067FF51AAF25F02003238305F00F
:101540000705FFE63F6E00002DE9F04F814695B09C
:101550008B4617461C460025387808B9284658E3BC
:101560007B1C2528039306D05946C8470028C0F2A3
:1015700050830135FBE1182200210EA806F091F8F6
:101580007B78252B7DD00023781C98469E469C4670
:101590001E46014610F8012B2B2A00F0A18000F214
:1015A0009880202A00F09F80232A00F09F802BB192
:1015B0009DF8403043F040038DF84030B8F1000F03
:1015C00005D09DF8403043F020038DF84030BEF147
:1015D000000F05D09DF8403043F010038DF84030E7
:1015E000BCF1000F05D09DF8403043F008038DF8A2
:1015F00040302EB19DF8403043F004038DF8403068
:101600009DF8403003F04400442803D16FF3861363
:101610008DF840309DF840302A2A43F080038DF841
:1016200040307FD19DF8412042F001024B1C8DF8E3
:1016300041201A782E2A9DF841200CBF012100215B
:1016400061F341028DF8412078D15A782A2A6ED070
:10165000013300224FF00A0C194611F8010BA0F1DA
:101660003006092E40F295809DF840101292C1F389
:10167000400040EAD2700A4660F341028DF84020F3
:101680005CE0BA1C03928DF843309DF84130DA07D4
:1016900040F12E8154F8048BB8F1000F07DA9DF861
:1016A000402042F004028DF84020C8F100085E0797
:1016B00040F1278154F804ABBAF1000F80F2268183
:1016C0009DF841306FF341038DF841304FF0FF3A00
:1016D0001CE12D2A0DD0302A7FF469AF012358E791
:1016E0004FF0010C55E74FF0010E52E74FF00108A3
:1016F0004FE701264DE70EFB0262303A03461846DB
:1017000010F8016BA6F1300CBCF1090FF3D9994226
:101710008FD09DF840101192D20F62F341018DF8E5
:10172000401086E70B4600224FF00A0EE7E79DF8CF
:10173000412042F004028DF8412002331A786C2ACD
:1017400047D02BD8682A31D06A2A4BD04C2A51D0A6
:101750001A4612F8013B0392782B9DF841208DF830
:10176000433000F2BE806D2B51D8692B00F2B98056
:10177000572B67D8412B03D0453B022B00F2B18099
:101780009DF84230042262F302038DF842300123B7
:1017900073E00CFB0202303A0B465DE7742A25D059
:1017A0007A2AD5D19DF8412006210CE05A78682A82
:1017B0009DF8412006D1012161F3C6028DF8412038
:1017C0000233C5E7022161F3C6028DF841200133DF
:1017D000BEE75A786C2A9DF8412001D10421EBE73D
:1017E0000321F0E79DF841200521ECE79DF8412019
:1017F0000721E8E7BDF8402022F4F04222F002027F
:1018000042F4804242F00202ADF84020DFE76E3B36
:10181000D9B201238B4040F282410B4237D113F001
:10182000240F51D1D8075CD59DF84230032161F3D4
:1018300002038DF8423002F07803A3F140014B42DD
:101840004B411AE0A3F15801C9B2012000FA01F19D
:1018500011F4624F94D140F6010631421DD111F4CA
:10186000043F3ED09DF8423060F3020302F078025C
:10187000402A8DF8423034D000239DF84020C2F336
:1018800040010B4363F341028DF84020FDE69DF8D3
:101890004230022161F30203E8E79DF84210022082
:1018A00002F0780260F30201402A8DF8421002BF74
:1018B0009DF8401041F001018DF84010632BDBD101
:1018C000131E18BF0123D8E79DF84230032161F3AE
:1018D000020312F0780F8DF8423014BF0123002369
:1018E000CBE79DF8403043F001038DF84030C3E76B
:1018F0009DF94020002AB4BFDDF844804FF0FF3846
:10190000D5E698077FF5E2AEDDF848A09DF84110D6
:101910000023CDE911339DF8423003F00703012B7A
:10192000C1F3C30133D1CB1E042B04D8DFE803F08D
:10193000214646212100236801294FEAE372CDE9BF
:101940000E321CD19DF93830DA17CDE90E3204344D
:101950009DF8403013F0030650D0039B3A46594699
:10196000484605F049FB0028C0F253810544039F17
:10197000F2E554F8043BDA17CDE90E32E8E7022924
:10198000E5D11AB243F3C033CDE90E23DFE7022BD2
:1019900024D1CB1E042B04D8DFE803F01810101854
:1019A0001800012954F8043B4FF0000214D002291A
:1019B000CDE90E32CCD19BB20E93C9E7073424F0A7
:1019C0000704F4E80223CDE90E23C1E754F8043BF1
:1019D0000E9300230F93BBE7DBB2CDE7042B08D1B6
:1019E000073424F00704D4E900230834CDE90E239A
:1019F000AEE7032BACD154F8043BDDE79DF8430080
:101A00007828B4D862281CD825283FF4ADAD5828D2
:101A1000ADD10DF136030093DDE90E0108AB10AA3C
:101A200005F0A4FABAF1000F074680F29A80002F61
:101A30009DD00DF13603D81B002E00F0C18001307F
:101A4000BEE06338152892D801A252F820F000BFFA
:101A5000251B0000371B00006F1900006F190000E4
:101A60006F1900006F190000371B00006F1900008C
:101A70006F1900006F1900006F190000C51B0000EE
:101A80005D1B0000831B00006F1900006F19000030
:101A9000A91A00006F1900005D1B00006F190000FB
:101AA0006F1900005D1B0000BAF1000F0E9F35DBBF
:101AB0005146384605F0E1FD07EB000A002F3FF4E0
:101AC00056AF00269DF8423013F01002059200F048
:101AD000938002305B06119A48BF129B0492104417
:101AE00048BFC018B8F1000F40F3A0809DF8402017
:101AF000A8EB0008C2F380035007069300F196801C
:101B0000510640F189803EB159463046C847002809
:101B10007FDB069B01351E4630227EE0384605F00D
:101B2000A5FDC9E70E9B8DF82030002608AF0DF10A
:101B3000210A0120C6E719075CBFC3F300135E0149
:101B4000DDE90E2348BF2B26002BBFF662AF5242C1
:101B500063EB4303CDE90E232D265AE7002658E711
:101B600000269DF840200DF13603DB1B6FF3861233
:101B70009A458DF840207FF65AAFAAEB03031193E4
:101B800055E70E9890B30DF13603009310AA08ABF9
:101B9000002105F0EBF9BDF8423003F0EF0343F408
:101BA000F04343F01003BAF1000F0746ADF842309E
:101BB000D6DA00283FF4DBAE0DF13603181A002602
:101BC0009A467FE70E9B07293FF6D1AEDFE801F08A
:101BD0000C04060C08080C0C1D70C8E61D80C6E637
:101BE000EA17C3E90052C2E61D60C0E62E4F064662
:101BF00007F1050A052065E71A0748BF013069E7C4
:101C00000793104606925946C8470028DDE9062387
:101C100004DA15B0BDE8F08F2022434619460029AA
:101C200003F1FF33ECDC45446D1A98462EB159465A
:101C30003046C8470028ECDB01359DF84230DA0613
:101C400001D41B0705D559463020C8470028E0DBE2
:101C50000135059B33B19DF843005946C84700281C
:101C6000D7DB0135049E2E4405E059463020C84795
:101C70000028CEDB0135731B002BF6DC53463A46B9
:101C80005946484605F0B8F90028C2DB0544A84487
:101C9000A8EB0503002B7FF76AAE59462020C84702
:101CA0000028B6DB0135F3E76B88000008B5044671
:101CB0004FF02002EFF3118382F31288BFF36F8F8E
:101CC00002F04CFE204601F0DDFE034805F051F81D
:101CD00001F038F8FCE700BF7188000002F086BE12
:101CE0002DE9F047DFF85880044607464FF0010918
:101CF00014B93846BDE8F08794FAA4F5B5FA85F52D
:101D000009FA05F32E0108EB05156FEA030A24EA28
:101D100003042B7B002BEBD058F806301B694BB922
:101D20004644042273682846196807EA0A0700F047
:101D300059FADDE7284698470028D9D1F0E700BFD7
:101D4000E881000030B51049104889B0002206F043
:101D5000A2F80F4D0F4900220023CDE906230024ED
:101D60000E23CDE90334CDE901440B4B00944FF42D
:101D70004072284603F038FE0849284605F04CFF1B
:101D8000204609B030BD00BFA11D0000A8060020FC
:101D900000020020C015002091200000AA88000049
:101DA000014803F083BF00BFF00100202DE9F04798
:101DB00080461F480F4605F09FFB0646002830D09E
:101DC00000252846BDE8F087237B73B12368DB68D4
:101DD0000BB12046984723681B69D3B96368042276
:101DE0001968204600F0FEF9013610344C45EBD35B
:101DF000B8F1000FE5D0002DE2D02846FFF770FFC4
:101E00000546002FF7D000214FF4A47004F05AFAD1
:101E1000F1E7204698470028E0D00AFA06F31D4370
:101E2000E2E7044CDFF8109005464FF0010ADDE7C9
:101E3000DC080020E881000008820000014B53F814
:101E4000200070475C82000008B5034608462BB1AD
:101E5000044A136000F078FC002008BD6FF0150004
:101E6000FBE700BF0400002010B5044C237813B931
:101E7000034803F01BFF0123237010BD88110020CD
:101E8000F001002010B50446084805F035FB5CB1B0
:101E9000BFF35B8F064B53E8001F013943E8001284
:101EA000002AF8D1BFF35B8F10BD00BFD40800201B
:101EB000D80800200020064BBFF35B8F014653E893
:101EC000000F43E80012002AF9D1BFF35B8F70477F
:101ED000D408002070B5FFF7EDFF084C084E05460A
:101EE000B44200D370BD63685B792BB123685B6833
:101EF00013B12946204698471034F1E7E8810000E5
:101F00000882000010B5044C0449204605F085F90C
:101F1000034B1C6010BD00BF3C0100204882000044
:101F2000CC080020084A094808B500231370084A65
:101F30001360084A4FF400411360FFF785FFBDE8C6
:101F40000840FFF7DFBF00BF89110020F5740000D3
:101F5000D4080020D80800200146002201480023B0
:101F600005F07CB93C010020014805F015BA00BF1E
:101F70003C010020024B0146186805F05FBA00BF23
:101F8000CC080020014805F095BA00BF3C010020B4
:101F900070B5284B187800284BD0FFF7E5FF0546B1
:101FA00090B1BFF35B8F244B53E8001F013943E826
:101FB0000012002AF8D1BFF35B8F204C204EB442B0
:101FC0002DD32846FFF7D6FF1E4B1F4C1B68002B56
:101FD00019DD05F05AFF4FF47A72A0FB020302FBF1
:101FE0000131C30BD4E9002043EA41439B1A4FEA75
:101FF000D13140F2E93261EB0001934271F100010D
:1020000001D3FFF767FFD4E9003213F57A7342F189
:102010000002C4E90032BDE87040FFF7B3BF636857
:102020005B7923B1236829461B6820469847103402
:10203000C5E770BD88110020D8080020E8810000A5
:1020400008820000D4080020A006002070B50D4DC5
:10205000297861B90120FFF7A9FE0B4C0B4EB44261
:1020600006D3FFF795FF0028FBD101232B7070BD2D
:1020700063685B791BB1236820469B6898471034DE
:10208000EDE700BF89110020E88100000882000010
:1020900000212DE9F0470846FFF788FE044648B3C3
:1020A00040F267684FF0000904F026F91A4B1860F7
:1020B00030B11A4B1B68092B02DD194803F0F6FDFD
:1020C000184FDFF85CA0002544B12046FFF708FE5A
:1020D000044618B94FF0FF384FF0FF39FFF758FFAB
:1020E000064628B9B5B942464B46504603F000FEB5
:1020F0003546E9E74FF0FF384FF0FF39D4E72B685A
:102100009B691BB100221146284698471035BD42F5
:10211000F5D3E8E7044DFAE7D0080020D8080020FE
:10212000F001002008820000E881000013B5184883
:1021300005F0E2F9174B1B787BB14FF02003EFF36A
:10214000118483F31288BFF36F8FFFF721FF84F3AD
:102150001188BFF36F8F02B010BD0F4B1B68002BAF
:10216000F9D050B900220023CDE900230B484FF4E9
:102170000042002304F0F6FAEDE70A28EBD1074805
:1021800005F095FE064802B0BDE8104003F08EBD94
:10219000D808002089110020D0080020A8060020BF
:1021A000F001002010B5064B1B68044698472146F5
:1021B000A060044805F0D0F8BDE81040FFF7B6BFB6
:1021C000040000203C010020044A054B9B1AB1EB9F
:1021D000D30F34BF52F831000020704768810000EF
:1021E000E8810000084BC31A10B41B114468013386
:1021F000237143689A7143681960436801225A71D8
:1022000010BCFFF731BE00BFE88100002DE9F04FA0
:102210008FB004AFC1F34A28B8600D4691467B6089
:102220000C0DB8F1000F63D0002607F114034FF036
:10223000040B4FF00A0AC7F80C80C7E907667E62F4
:102240000193CDF808B0CDF800A007F11C03F968A0
:1022500032464846FEF770FEB0F5006F03461CD3C9
:102260006C468AB0D9F8041004AB2648C3E90501CE
:1022700040F2FF71D9611A464FF400711984224B64
:1022800042F8103F214833464FF41251FFF7BEFF8A
:10229000A5462C37BD46BDE8F08FC0F30A0804F10F
:1022A0001700184420F0070080083B60FFF754FE39
:1022B00068F35325044690B13B68154AC7E90836D0
:1022C00000F1100107F11403F961CDE900A3CDF885
:1022D00008B0F96807F11C034846FEF72DFE68F3C5
:1022E00053257B68B9682A46204605F03BF9D0E7BC
:1022F00004F1170020F007008008FFF72DFE0446C8
:10230000EDE700BFBF8800000400000198810000D5
:10231000397500002DE9F04F87B0DDE91269DDE97C
:10232000105A04460F4693469846A6B31021CDF89E
:102330000090334652460020CDF81490FEF726FC5C
:10234000014605F117000844144B039104F00704FB
:102350000BF0070BE40020F0070003EA412344EAF6
:102360008B1480081C43FFF7F7FD44EA055405462B
:1023700040B13EB10399CDF800903346524610303B
:10238000FEF704FC434622463946284607B0BDE81E
:10239000F04F05F0E7B83146D3E700BF00FE0F006D
:1023A0000EB403B503AB014653F8042B0448019364
:1023B00005F0FEF802B05DF804EB03B0704700BF13
:1023C000D9750000CA0605D48B064CBF02490349E3
:1023D000FFF7E6BF704700BFFF880000FE880000DF
:1023E0002DE9F04F89B09B469DF848300493DDE914
:1023F00013930593049B0692DDE9157604460D467A
:10240000002B00F0878006F00803079305F092F890
:1024100006F0020A024600284BD086492046FFF704
:10242000BFFF8046BAF1000F08D016F0440F42D12A
:1024300081492A462046FFF7B3FF804406F0010396
:102440005BB17E4B049A7E4953F822207D4B204697
:10245000002A08BF1A46FFF7A3FF06F00803002B67
:1024600055D0794B049A794953F822202046FFF73A
:1024700097FF0546069B2BB175491A462046FFF784
:102480008FFF0544BBF1000F05D072495A46204624
:10249000FFF786FF05444544B9F1000F49D1002FED
:1024A0004FD1F30700F1C08031462046FFF78AFF85
:1024B000B4E08046B6E7684B18680028BDD0674B8B
:1024C0004FF47A7E1B68B5FBF3F54FF46162B5FB00
:1024D000F0F300FB1355B3FBF2FA0EFB05F502FB1C
:1024E0001A323C21B5FBF0FCB2FBF1F300FB1C55AA
:1024F00001FB13220EFB05F50092B5FBF0F55849E0
:10250000CDE901C552462046FFF74AFF95E706F0A0
:102510000805AFE7BBF1010F06D1B9F1000F64D197
:10252000002F7BD000250CE0B9F1000FF8D04D480A
:102530005CE04D484D494B46224604F0AFFB002F6E
:1025400068D0DFF82C91DFF82CA1102F31462046FF
:10255000B84628BF4FF01008FFF734FF4FF0000BCC
:102560005D4545DC059B51461A782046FFF718FF6C
:102570004FF0010B1BF0070F03D149462046FFF730
:102580000FFFD8453BD9059B514613F80B20204639
:10259000FFF706FF0BF1010BBBF1100FEAD1364933
:1025A00020464FF0000BFFF7FBFE5A46059B9A5C56
:1025B000A2F120015F2928BF2E2230492046FFF7D3
:1025C000EFFE0BF1010BBBF1100F1DD01BF0070F3D
:1025D00003D149462046FFF7E3FED8455A46E5D8E1
:1025E00049462046FFF7DCFEEBE71F48049DA1E7C4
:1025F00049462046FFF7D4FE0BF1010BB0E7204916
:102600002046FFF7CDFEC5E7059BB7EB080743441F
:1026100005939AD1049B002B7FF443AF204609B069
:10262000BDE8F04F04F0CBBF064A05492046FFF74E
:10263000B7FE39E7068900000A8900006C820000B5
:102640002F8900000189000080820000328900008B
:10265000388900003C890000E4080020E0080020E0
:10266000138900000F760000D9750000B1750000D5
:1026700049890000418900004B8900004D89000014
:10268000478900002DE9F0410F884B688E6886B0BD
:1026900005460C469046C7F382175BB1134A9B1A56
:1026A00043F3CF0100291FDB2078C0F3C200FFF7FE
:1026B0008BFD03462146608851F8102B0097C2F32A
:1026C0004A22002A01EB0204C0F30B1008BF0021CC
:1026D000CDE90308CDE90114002231462846FFF771
:1026E0007FFE06B0BDE8F0810023E3E768810000CB
:1026F00073B542F20F738B4228BF0B4605680F4A31
:1027000004460521684604F041FB63680C495B6898
:1027100006460B22284604F03EFF636832466946AF
:1027200028465B6804F037FF636806495B681B2234
:10273000284604F030FF02B070BD00BF718F00006A
:102740006C89000050890000074A00210123904253
:1027500006D8064A01B901231360054B186070477B
:1027600040085B000121F2E740420F00E008002032
:10277000E4080020014B01221A7070478A110020E2
:10278000014B002019607047FC080020024B0348F1
:1027900001221A7004F013BF8B110020B0820000D8
:1027A0000148FFF7A5BF00BFB082000010B5064B7F
:1027B00018680C46FFF742FB21460346BDE810406F
:1027C00002480F22184700BFFC080020B08200001A
:1027D00010B9074B18707047064B1B781BB141F2BC
:1027E000883005F054BBA420002103F06BBD00BF6E
:1027F0008A1100208B1100202DE9F843DFF8749036
:102800001D4F80460E46042499F8005095B902F0F9
:10281000A3FE28463246414602F04CFE054602F031
:10282000A5FEE5B101233B7099F8003073B930463D
:10283000BDE8F88332464146002002F03BFE0546E3
:10284000EFE72046FFF7C4FF651E2C46002002F08C
:1028500079FE0028EBD03B78002BF2D1E7E73B78FC
:10286000002BE4D0013C2046FFF7B2FF3B78002B61
:10287000CAD1DCE78B1100208A110020014B002017
:102880001960704714090020024B034801221A7096
:1028900004F095BE9D110020DC8200000148FFF786
:1028A00027BF00BFDC82000010B5064B18680C463D
:1028B000FFF7C4FA21460346BDE8104002480F2244
:1028C000184700BF14090020DC820000F8B5074F4C
:1028D0000D4604464618B44201D12846F8BD14F806
:1028E000011BBB6801485B689847F4E7B87F0000AC
:1028F0002DE9F84305464FF02003EFF3118683F3EB
:102900001288BFF36F8F0E4B0E4F1C68DFF83880B4
:102910004FF00C092CB986F31188BFF36F8FBDE817
:10292000F883D4E90123002D18BF13462BB198F882
:10293000102009FB02F2B85C98472468EAE700BF60
:1029400030090020240900204008002070B5194BF0
:102950001C7CBFF35B8F04F01F0301229A40164BCF
:10296000610903EB8103D04353E8001F01EA00052E
:1029700043E80056002EF7D1BFF35B8F0A4213D015
:102980000E4B0F4D8BB10C236343EA18E85C517872
:1029900004F0ACFE0020FFF7ABFF0C235C432A19C8
:1029A00000232B51C2E9013370BD83F31188BFF3BB
:1029B0006F8FEFE74008002038090020ED76000017
:1029C000240900202DE9F041354B07461D7C4FF0CE
:1029D0002003EFF3118883F31288BFF36F8F0C2469
:1029E000304B314E6C431A19195D00294CD007CA7F
:1029F00006EB040C8CE8070000221A5588F31188B6
:102A0000BFF36F8F0C236B43F218F05C002839D0B2
:102A10007B1C10D0D2F808C0244C254A4FF400404B
:102A20000021ECFB004100232046FDF769FB01215A
:102A3000381A01F057FF03F08BFB0120FFF758FF16
:102A4000BFF35B8F1B4B6A0903EB820305F01F0189
:102A500001228A4053E8000F104343E80001002997
:102A6000F8D1BFF35B8F144B3BB10C2303FB05F094
:102A70003318305C597804F02DFEFFF767FF03F040
:102A80007BFB0120BDE8F0810146284600F016F8E6
:102A90000028B3D007C8344484E80700AEE700BF7D
:102AA0004008002018090020240900203F420F00A0
:102AB00040420F0038090020D57600002DE9F04F84
:102AC00085B00E4603A900F043F81E4B039DD3F8D2
:102AD00000A0DFF87480431E1BB203EB43030446DF
:102AE00005EB83054FF400474FF0000B24B9A146D6
:102AF000484605B0BDE8F08F6868144AC446594698
:102B0000E0FB07C100236046FDF7FAFA0190A868D0
:102B10000E4AC4465946E0FB07C100236046FDF754
:102B2000EFFABAF1FF3FA94601D0824505D9731CDF
:102B3000DED0019B1844B042DAD9013CA4B20C3D6E
:102B4000D4E700BF080000203F420F0040420F00C2
:102B500008B9024B0B600020704700BFEC820000F8
:102B6000014803F0B5BE00BFEC82000038B5044652
:102B700018B90F4B0F485B6898476168B1F5683F1B
:102B80000FD0B1F5680F0CD00B4DA94209D011F44C
:102B9000686107D00948214605F00EF8002323603C
:102BA000656038BD2068142204F07BFDF8E700BFA3
:102BB000D4000020C58900002C5F5CA93C0E0020D9
:102BC00008B520B34368B3F5683F10D1012203680C
:102BD000BFF35B8F53E8001F002903D143E80020B7
:102BE0000028F7D1BFF35B8F0DD1002008BD094A43
:102BF00093420AD000684FF0FF324FF0FF3302F0EB
:102C00009DFF0028F1D00448F0E70448EEE76FF498
:102C1000E040EBE72C5F5CA9E98FFFFFEA8FFFFF45
:102C200008B5D8B14368B3F5683F10D100220368F6
:102C3000BFF35B8F53E8001F012903D143E8002055
:102C40000028F7D1BFF35B8F0BD1002008BD074AE6
:102C5000934208D0006802F0EBFFF6E76FF4E04023
:102C6000F4E70348F2E70348F0E700BF2C5F5CA9F4
:102C7000E98FFFFFEA8FFFFF10B5044618B91D4B1F
:102C80001D485B6898476368B3F5683F2FD0B3F57C
:102C9000680F2CD0194A934219D1236803BB1848F6
:102CA0004FF0FF324FF0FF33214602F0E9FD08B943
:102CB00023681BB90F4B13485B68984720681422A0
:102CC000002104F0EEFC4FF46863636008E0B3F5A4
:102CD000683F0DD83A2B03D040F6BA629342DED15A
:102CE000206804F0AFFF636843F03A03636010BDEF
:102CF000054AF3E7D4000020C58900002C5F5CA9D9
:102D00003C0E0020EB8900003A00003A08B5064965
:102D100006484023142204F041FFBDE8084004495E
:102D2000044803F047BE00BF3C0900203C0E0020D1
:102D3000F482000008830000014910220A607047F5
:102D400010ED00E072B6404080F31188BFF36F8F42
:102D5000BFF34F8F30BF62B6BFF36F8F704700BFB6
:102D600072B6494081F31188BFF34F8F20BF80F3C3
:102D7000118862B6704700BF2DE9F047814600AF69
:102D80000C4600294CD06E468AB0D1E90012A368E7
:102D90006D462748A8464FF0050AC5E90501C5E973
:102DA000072348F810AF2348424600234FF421512F
:102DB000FFF72CFAB546D4E903126369AD461E4805
:102DC000C5F810A0C5E90501C5E907231948002386
:102DD00042464FF42151FFF719FAB54688B0E3692E
:102DE0006D46164AA8464FF0030AC5E9052348F880
:102DF00010AF1048002342464FF4C251FFF706FAC5
:102E0000B546A369AD460E4AC5F810A0C5E905232D
:102E10000848002342464FF4C251FFF7F7F9B54680
:102E20002146484602F0A8FBBD46BDE8F08700BF3A
:102E3000188A0000C0810000478A0000768A0000DE
:102E4000858A000040B2002807DB044A41090123BB
:102E500000F01F00834042F82130704700E100E09D
:102E600040B200280CDB4309064900F01F00203364
:102E70000122824041F82320BFF34F8FBFF36F8FB1
:102E8000704700BF00E100E0054B420900F01F0061
:102E900053F82220012303FA00F01040704700BFCE
:102EA00000E100E040B20028A8BF00F1604001F15D
:102EB0000101B8BF064B4FEA4111ACBF00F56140BC
:102EC00000F00F00C9B2B4BF195480F80013704766
:102ED00014ED00E030BFFFF7FDBF00BF0B4A08B59F
:102EE0000B4B22F07F029A60BFF34F8FBFF36F8FBF
:102EF000D3F8882022F47002C3F8882002F0F8FB8F
:102F000003F064FA00F0EAFB02F038FC0000000075
:102F100000ED00E00A4A0B4993680968C3F89C1069
:102F20000949C3F898004B6843F080534B60002375
:102F300083F31188BFF36F8F9368D3F89C007047B9
:102F4000400800201084000000ED00E001B504F00E
:102F500068FEBDE8014016498A684FF04000104401
:102F6000EFF3098C80E8F01F202080F31288BFF374
:102F70006F8F104F4FF00066CA6A8A603E60D2F8C9
:102F800098000023C2F8983080F3118804B51046E9
:102F900000F048FCBDE8044002F1400090E8F01F5A
:102FA0008CF3098801B502F0A7FDBDE80140704728
:102FB0004008002004ED00E01EF0040F0CBFEFF30A
:102FC0000880EFF30980816911F8021C0229FFD003
:102FD00001B504F02FFB01BD42F8203C009B42F8F4
:102FE0001C3C0A49019B42F8183C029B42F8143CE5
:102FF00021F001014FF0807342F8043C42F8081CB4
:103000000023203A0266C0F898307047A76D000090
:103010000A4A0346906878B113F1160FD0F8880079
:1030200005D0A0F140029A4205D8834203D28142E2
:1030300028BF002070470020704700BF40080020D4
:1030400008B50B4B044698600E46154602F054FD39
:10305000204600F0E7FB284686F30988002163B686
:1030600081F31188BFF36F8F0022002303F09BFED2
:103070004008002001B572B60B4A906A00281EBFB6
:103080000021916204F0CFFD62B6EFF30580A0F15C
:1030900010004FEAC0000549014409C99847BDE83E
:1030A000014003490847000040080020D07F00008D
:1030B000B5300000044B9968D86A884203D00349B0
:1030C0004FF080520A6070474008002004ED00E095
:1030D0002DE9F04186B0064600AF0D46474B7B61B7
:1030E00002244FF4825146483C6107F1100204F07B
:1030F000B0FA444B9B6AD9046DD5434B4048C7E9AD
:10310000044307F110024FF4825104F0A2FA172091
:103110003C4B9B6A1A050BD53C4B7B61022338481C
:103120003B6107F110024FF4825104F092FA18202B
:10313000344CA36A9B0523D5E846354B7B610223BB
:103140002F483B6107F110024FF4825104F081FADD
:10315000A36BA26A100412D588B06A462D4928488C
:10316000C2E90513032342F8103F4FF4C25104F0A3
:1031700070FAC5461EB1A36A23F40043A362192066
:10318000204B9B6A59050BD5234B7B6102231C48BE
:103190003B6107F110024FF4825104F05AFA1A20F1
:1031A000184B9A6AD20518D51C4B7B610223144830
:1031B0003B6107F110024FF4825104F04AFA1B20E0
:1031C000104A936A43F47F439362183700232B70AD
:1031D000BD46BDE8F08116209AE79B6A9B04EFD5B7
:1031E0000F4B7B61022306483B6107F110024FF44D
:1031F000825104F02EFA1C20E2E700BFB38A0000DF
:10320000C081000000ED00E0C98A0000DA8A0000F9
:10321000ED8A0000068B00001B8B0000368B00003F
:103220004E8B000010B586B0364B3748059304AA84
:1032300002244FF48251049404F00BFA334B9B6A3E
:103240009A015DD5324B304804AA4FF48251CDE942
:10325000044304F0FEF91E202C4B9B6ADB010AD5C7
:103260002C4B2948059304AA02234FF4825104935E
:1032700004F0EFF91F20254B9B6A1C030AD5264B4F
:103280002148059304AA02234FF48251049304F0C9
:10329000E0F921201D4B9B6A59030AD51F4B1A48A0
:1032A000059304AA02234FF48251049304F0D1F948
:1032B0002220164B9B6A9A030AD5194B1248059394
:1032C00004AA02234FF48251049304F0C2F923208C
:1032D0000E4B9B6ADB030AD5124B0B48059304AADD
:1032E00002234FF48251049304F0B3F92420074AD7
:1032F000936A6FEA03436FEA1343936206B010BD0B
:103300001D20A9E77D8B0000C081000000ED00E0DA
:10331000958B0000A88B0000C28B0000E08B0000A2
:10332000058C00001F8C00002DE9F04786B0814617
:1033300000AF8A469046514B7B61022450483C6165
:1033400007F110024FF4825104F083F94D4B9B6A50
:10335000DE0645D54C4B4A48C7E9044307F1100245
:103360004FF48251112404F074F9464B9B6A1D07F7
:103370000BD5464B7B61022341483B6107F11002AC
:103380004FF48251122404F064F93E4DAB6A980761
:1033900028D56C463E4B7B6102233B614FF4825142
:1033A000374807F1100204F054F96E6BAB6A190646
:1033B00060D588B06A46374B3148C2E905360323E9
:1033C00042F8103F4FF4C25104F043F9A546BAF158
:1033D000000F03D0AB6A23F08003AB62132403E039
:1033E0001024C2E76FF01506264B9B6ADA070BD54F
:1033F000294B7B61022322483B6107F110024FF405
:103400008251142404F025F91E4B9B6A9B060BD5B0
:10341000224B7B6102231A483B6107F110024FF4F3
:103420008251152404F015F9164B9A6AD50602D478
:103430009A6A90070AD55B68190507D54946304650
:10344000FFF7E6FD10B180F3098802240D4B9A6A5C
:10345000920642BF5A6A22F400525A629A6A42F0B5
:10346000FF029A6220460023183788F80030BD46D4
:10347000BDE8F0876FF01506B0E700BF4A8C00008A
:10348000C081000000ED00E0608C0000DA8A0000DE
:10349000938C0000AB8C0000C18C00004E8B0000B0
:1034A0002DE9F043774B8BB0D3F8048000AF05468D
:1034B000C8F30804002686F31188BFF36F8F02F06B
:1034C0007F43B3F17F4F0ED102F00C03082B19D1CB
:1034D0006D4BFB6102236D48BB6107F118024FF48D
:1034E000825104F0B6F8002635460023FB71E31E36
:1034F000092B00F2A680DFE803F00A999C95A4A4AA
:10350000A4A4A49F10074CBF0D460126EDE7E94691
:103510005F4BFB614FF0020807F118025B48C7F8E8
:1035200018804FF4825104F094F80023554CFB713D
:10353000E36A9A070BD5574BC7E90683534807F14F
:1035400018024FF4825104F084F8002441E0E36A49
:10355000002B01DA504BEFE7E36A5B00F5D54F4BE8
:103560004A48C7E9068307F118024FF4825104F074
:1035700070F86369AA6943F480736361BFF34F8F86
:10358000BFF36F8F636932F8022C23F48073636199
:10359000BFF34F8FBFF36F8F4DF602739A4208D07F
:1035A000A36ADBB28BB3FA1D01212846FFF7BCFEEC
:1035B0003AE088B02B686A4639493448C2E90513B5
:1035C000032342F8103F4FF4C25104F042F82C6834
:1035D000CD46FB79ABB92022294607F1080004F05B
:1035E00055F87B6A002E47D0C3F3080222B96FEA70
:1035F00053236FEA43237B6207F108012046FFF75C
:10360000BBFB2C37BD46BDE8F083A36A13F47F4FA4
:1036100004D0F91D0120FFF75BFD05E0A36AB3F5B7
:10362000803F92D3FFF7FEFD0446D2E7FA1D00214A
:10363000BBE7F91D0020EEE71A4BFB610223BB61DB
:103640007CE7194A194B18F4F87FE8468AB018BF8E
:1036500013466A4616490D48C2E905134FF4007334
:103660001384103C134BD4614FF4115142F8103FB6
:1036700003F0EFFFC54668E723F4FF7323F001036F
:10368000B9E700BF00ED00E00E8D0000C081000032
:10369000398D0000508D0000718D00007F8D00007D
:1036A0009E8D0000BA8D0000F58C0000E08C0000BB
:1036B000DE8D000004000001024A536943F010034C
:1036C0005361704700ED00E0EFF30880EFF30981EC
:1036D00001B57246FFF7E4FE01BD00BF04480023B8
:1036E0002021C2180133302B82F80013F9D1704722
:1036F00000E100E0002080F31488BFF36F8FFEF735
:10370000EDFA002011490860BFF34F8F104880F395
:10371000088800F033F8202080F311880D484FF01E
:10372000AA014FF4046204F01FFA0A484FF404613E
:10373000401880F30988EFF314800221084380F3D6
:103740001488BFF36F8FFFF7C9FB000094ED00E012
:10375000C0260020001900200749D1F8902000233E
:10376000C2F307221846934200DB7047C1F8983035
:10377000C1F8A0000133F6E700ED00E008B572B62D
:10378000002383F31388FFF7E7FF144B4FF0FF325A
:10379000C3F88020C3F88420C3F88820C3F88C20A5
:1037A000C3F89020C3F89420C3F89820C3F89C2055
:1037B000C3F88021C3F88421C3F88821C3F88C2181
:1037C000C3F89021C3F89421C3F89821C3F89C2131
:1037D00062B6BFF34F8FBFF36F8F08BD00E100E00B
:1037E000084B9B6883420BD1EFF3058343B1064B33
:1037F0005A6842F080525A605A6A22F400425A6271
:1038000002F080BD4008002000ED00E0024B034ABA
:103810000348012100F094B80000042000000020BB
:1038200018830000D0F88820054B403A1A60054AFA
:103830004021C3E901121846012100F08BB800BFF6
:10384000580E002000000B152DE9F041DFF8B4E020
:103850009C4600AF154600238B421ADA4468002CC0
:103860004DD0BCF1000F1DD0661E344215D06C4601
:1038700088B06A462449C2E90513032342F8103F81
:10388000224800234FF4C251FEF7C0FC6FF015052B
:10389000A5462846BD46BDE8F0811F2CE7D9026841
:1038A0001642E4D1202C026886685FFA85F814D9A4
:1038B000B4F1004F13D8013CB4FA84F4C4F11F04EE
:1038C0006400B8F1070F46EA04060AD96C4688B0CE
:1038D0006A460F4BC2E90535CFE70824F1E73E24DD
:1038E000EFE722F01F022A4342F0100246F00106E1
:1038F000CEF89850CEF89C200135CEF8A060013368
:103900000C30A9E700ED00E0F58D0000B881000063
:10391000188E0000044B0522C3F89420BFF34F8F8C
:10392000BFF36F8F704700BF00ED00E0BFF35F8F04
:10393000024B0022C3F89420704700BF00ED00E066
:1039400010B5034C01232278FFF77EFF207010BDD5
:103950009E11002008B5094A00231278FFF774FF72
:1039600010F1160F03D0064B0022072800DD08BD1A
:10397000C3F89800C3F8A0200130F6E79E1100209C
:1039800000ED00E014490868082810B521D8FFF7B9
:10399000CDFF124C49680022904201F10C0105D183
:1039A0000F4B1870FFF7B6FF002010BDC4F8982029
:1039B00051F80C3C23F01F03134343F01003C4F8E9
:1039C0009C3051F8043C43F00103C4F8A0300132AC
:1039D000E2E74FF0FF30E8E72483000000ED00E06D
:1039E0009E110020014B1860704700BF2C00002082
:1039F0000CB410B586B009B90DF10B000024CDE967
:103A0000040109AB089A009404A905480393FDF743
:103A10009BFD049B1C7006B0BDE8104002B07047CF
:103A2000BB76000010B54FF02003EFF3118083F355
:103A30001288BFF36F8F114A0123C2F840354FF04F
:103A400080424FF08051C2F87835D1F83041082CCF
:103A500008D1D1F83411052904D8094C615C09B1A9
:103A6000C2F838364FF080430122C3F8802580F336
:103A70001188BFF36F8F002010BD00BF00E0014030
:103A80004D8E00004FF08043C0B2C3F81C05BFF359
:103A90004F8F0549054BCA6802F4E0621343CB60BF
:103AA000BFF34F8F00BFFDE700ED00E00400FA0513
:103AB00020B1034B800143F001031847704700BF5A
:103AC00010820000084B70B5C31A0D4607499B10C1
:103AD000044659430648402203F02AFE2B4601467D
:103AE0002046BDE870401847780E0020B76DDBB661
:103AF000707F000073B50C4C0C4A4023041B0093EC
:103B00000D460B460A49A41061430646094803F0D6
:103B10003BFE011E05DA30462B4602B0BDE8704080
:103B2000184702B070BD00BF780E0020F377000088
:103B3000B76DDBB6707F0000002270B5012104462E
:103B40001046FFF7AFF90F4801F0D2F80E4B98423C
:103B500015D103F053FF26690C49304603F07DF977
:103B600000280BDB012535642469084904F11C0099
:103B700003F073F9002801DBE564002070BD6FF0ED
:103B80000400FBE7C53B00000000AD0B44830000D0
:103B900070B501460C2309484B43C418D4E90E56AE
:103BA000403300221844A26303F0AFFD2DB132462A
:103BB0002B460348BDE87040184770BD780E0020C2
:103BC000707F000010B1012804D07047034B1B6CBC
:103BD0005B0701D1FFF7DCBF704700BF780E002004
:103BE00008B54FF02003EFF3118183F31288BFF380
:103BF0006F8F124A136843F002001060DA0708D48E
:103C000081F31188BFF36F8F0120BDE8084003F0F6
:103C100002BF4FF08043D3F80C24D3F80C34D30701
:103C2000EED5074803F071FD81F31188BFF36F8F64
:103C30000020BDE80840FFF7ABBF00BFC80E002062
:103C4000B80E00201FB500220123CDE90223094A46
:103C5000CDF800D06B46CDF804D003F0C3FD0028AA
:103C600005DB4FF480420023684602F041F805B0BE
:103C70005DF804FB1178000010B54FF02003EFF35E
:103C8000118483F31288BFF36F8F074A136823F000
:103C90000201DB07116002D4012003F0F8FE84F377
:103CA0001188BFF36F8F10BDC80E00202DE9F041C1
:103CB0003849BFF35B8F0746012251E8003F41E8D6
:103CC00000200028F9D1BFF35B8F33B93249334864
:103CD0004B60CB608A6003F0D3F87B1E012B2BD89E
:103CE000012F07D14FF08043D3F81C3403F00303B6
:103CF000012B21D003F08AFF0546F8B9284B1B7829
:103D0000E3B14FF080430222C3F808230646DFF8F0
:103D100094804FF08044D4F81834D4F81824D20397
:103D200016D503F00303012B01D0012F10D15DB391
:103D300086F31188BFF36F8FBDE8F0814FF0200349
:103D4000EFF3118683F31288BFF36F8F0125DEE74F
:103D5000ADB13046FFF704F8D4F81835002BDAD1AE
:103D6000D4F80421002AD6D0C4F80431D4F80431A0
:103D70000123C4F81835C8F88031A360CBE70021CF
:103D8000212002F09FFAE7E74FF080430222C3F8B8
:103D90000423D1E7740E0020640E0020940E00204E
:103DA000B115002000E100E008B5074803F0D1FE9E
:103DB00038B10648FFF716FE0448FDF79BFA0020CD
:103DC00008BD6FF01200FBE7B87F0000D13D000096
:103DD0000A2838B5074D044604D1AB680D215B684D
:103DE00028469847AB6803485B68E1B2984720468D
:103DF00038BD00BFB87F000030B54068057B01F0DA
:103E00001F04B2F5001F85B044EA451405D12046D1
:103E100001F0F0F9002005B030BD0025B2F5800FAB
:103E2000CDE9025514D1B3F1007F0CBF0423052363
:103E30008DF808300023194602AA204601F018F830
:103E40001F4B984239D10121204601F08BF9E1E75F
:103E5000B3F1C06F26D0B3F1007F14BF012302235A
:103E60008DF808308368CB40D907E3D4B2F1A07F46
:103E7000E0D16209012A04F01F03124A03F5E0733E
:103E800018BF4FF0A04252F82330DB07D2D40DF117
:103E900007052946204601F011F90B4B984203D043
:103EA0000395C7E70323DBE7284601F055F9044BE8
:103EB0009842F5D06FF00B00ADE76FF01500AAE760
:103EC0000000AD0B000300500400AD0B10B501F075
:103ED00033F9044668B901F007F9084B98420AD152
:103EE0000748214601F0E4F8224605210620FEF7A6
:103EF000D9FF002010BD6FF00400FBE70000AD0B00
:103F0000053F0000420970B5034602D0012A17D0D0
:103F100070BD0D4E326951680029F9D003F01F03BE
:103F200001250C689D400029F2D08A682A4002D001
:103F30004B68304698472CB1236821461C46F2E76F
:103F4000024EE7E72346F8E7A07F0000887F0000E5
:103F50002DE9FF4147683B7B01F01F0545EA43150A
:103F60000E4628460DF10301144601F0A7F814F49B
:103F7000403F80460BD1284601F064F93D4B9845FF
:103F800003D19DF8030001F0E1F800200CE00023CC
:103F9000194602AA2846CDE9023300F069FF354BE5
:103FA000984204D06FF0150004B0BDE8F081804560
:103FB00003D19DF8030001F0C9F8A3034BD540F2EB
:103FC00006332340B3F5837F19D00CD8062B17D0C6
:103FD00004D8ABB1022BE5D1042311E0B3F5807F07
:103FE000E0D101230CE040F20222934227D0B3F546
:103FF000407F26D0B3F5007FD4D1022300E0072311
:104000008DF8043084F48033C3F30043E0068DF868
:10401000053054BFC4F34013032321038DF8063049
:1040200011D57A680123B340C2F80835002201A9EE
:10403000284600F0CBFF0F4B9842A6D0B2E70523ED
:10404000DEE70323DCE7620341BF01237A68B34064
:10405000C2F80C35EAE7E3064FF0000354BFC4F39F
:10406000401403241A4601A928468DF8044000F0A4
:10407000FFFEE0E70000AD0B2DE9F0415A4E00EBEA
:1040800081010127814202D10020BDE8F08104684E
:1040900004F07F03C4F343257F2B4FEA144408BF89
:1040A0004FF0FF33222C00F29B80DFE804F0122453
:1040B00029442C40449999999947709999999999CB
:1040C00099999999737B7E81999999848A8D909316
:1040D0009600C2F80C354FEA531CBCF1010F03F0F7
:1040E0001F0414BF4FF0A04CB44607FA04F4CCF8F8
:1040F0000845012402E0C2F814350024A64624E055
:10410000C2F80835E7E7C2F8083500244FEA531E25
:10411000BEF1010F14BF4FF0A04EB64603F01F0CC6
:1041200007FA0CFCCEF80CC54FF0010E0DE0C2F8FA
:104130000C350124EAE7C2F81035DEE7C2F808358D
:10414000002DDAD10024A646062550F804CB0CF445
:104150000058B8F1000F4FEA0525CCF3C11803F061
:104160001F0C4FEA53131CBF01244FF0000E45EA09
:104170008805012B0CBF33464FF0A04345EA0E05DE
:104180000CF5E07C45EA440543F82C507AE7C2F888
:104190000C35D5E7C2F860350468C4F38034002CD0
:1041A000C7D098E7C2F86435F6E7C2F86835F3E798
:1041B000C2F86C35F0E7C2F8243501244FF0000E48
:1041C000C3E7C2F8283586E7C2F83035F5E7C2F80C
:1041D0003435F2E7C2F83835EFE7C2F83C35ECE7A2
:1041E0006FF0850051E700BF00030050F0B54B7938
:1041F000012B26D0032B21D110258B79032B1DD128
:10420000CE790EB1012E19D10A7912B1022A15D137
:104210000E220B684468B3F5164F276867D02DD877
:10422000B3F5165F66D016D8B3F5966F64D00AD88A
:10423000B3F5967F63D0B3F5167F63D06FF085003A
:1042400054E00025D9E7B3F5166F5ED0B3F5965F5D
:10425000F4D1384B3CE0B3F5E14F59D007D8B3F572
:10426000615F57D0B3F5964FE8D1334B30E047F656
:104270001224A342E2D14FF4000329E0B3F5613FD9
:104280004AD013D8B3F5963F49D009D84DF6C0248B
:10429000A34246D0B3F5614FD0D14FF46B0317E082
:1042A000B3F5E13FCAD14FF0EB7311E0B3F5612FE5
:1042B0003AD008D8214CA34239D0B3F5E12FBDD173
:1042C0004FF0E86304E01E4CA342B7D14FF0805397
:1042D0000469C7F82435436835431B682A43C3F88B
:1042E0006C2503C9231D83E803000020F0BD4FF4B3
:1042F0001D03EDE7134BEBE74FF49E23E8E74FF484
:10430000A033E5E74FF41C33E2E74FF41D23DFE76A
:104310000D4BDDE70D4BDBE74FF06C73D8E70C4B33
:10432000D6E74FF46503D3E74FF07063D0E74FF063
:104330008063CDE700B0130000A04E0090D00300D2
:1043400040420F000050270000C0750000F03A0006
:1043500000903A012DE9F043002287B08046012108
:104360000220FEF79FFD0220FEF76CFDD8F80470D6
:10437000D8F810603C680021C4F80015C6F8008029
:10438000D7F80C906A46484603F09AFA051E25DBDA
:10439000009BD9F8002019791868FFF76DFE051EFB
:1043A0001CDB311D4046FFF721FF0546B0B97B6895
:1043B00099072BD506F1180001F046F8274B9842D3
:1043C00010D0274B05930223049326482B4604AABA
:1043D0004FF482516FF00405FDF718FF284607B02F
:1043E000BDE8F083337EDB0003F1804303F5F8334F
:1043F00004F10C0204F59071C3F81015C3F81425EC
:10440000327E01239340184AC2F804350823C4F8C9
:1044100000353B7A53B9C4F81031D4F810317369C0
:10442000C4F834350123C4F8383523607B689A0713
:104430005CBF4FF48073C4F804337B68DB0644BF71
:104440004FF48003C4F804333369C4F844350023BF
:10445000C4F848350123A360E360BFE70000AD0B5B
:104460009C8E0000E081000000F00140F8B5044699
:1044700007690D4603F0CAFBB0B92E4B1B789BB100
:104480006426606803F052FA00BB012003F0B4FA1E
:10449000013EF6D10021212001F014FFF0E786F360
:1044A0001188BFF36F8FF5E74FF02003EFF311860C
:1044B00083F31288BFF36F8F6068314603F036FADA
:1044C00090B986F31188BFF36F8FEDE74FF02003AB
:1044D000EFF3118683F31288BFF36F8F6068314664
:1044E00003F024FA0028DAD03B691D70626838694D
:1044F0001368C3F844050120C3F848050020C3F839
:104500002001D3F82051C3F858015268D3F858015C
:10451000D20608D5626812680820C2F800054FF478
:104520008002C3F8042301229A6081F31188BFF34B
:104530006F8FF8BDB115002070B5012383400E4A7E
:10454000BFF35B8FDC4352E8001F01EA040542E839
:104550000056002EF7D1BFF35B8F4FF480328240BC
:104560000648C0F80823BFF35F8FBFF36F8F0B427D
:1045700014BF0120002070BDE80E00200010014093
:1045800070B40E49D1E90034D01AC31844F10004C4
:1045900022F07F46C1E90034A6F50013B3F5400FC1
:1045A00009D2074B1B681A0A1B069C19054B42F1DE
:1045B0000005C3E9004570BC01F0DEBFF006002035
:1045C000EC0E0020F806002011B3BFF35B8F01232F
:1045D000104A834052E800CF4CEA030C42E800C185
:1045E0000029F7D1BFF35B8F0B4A4FF48033834030
:1045F000C2F80433094BBFF35B8F1B68BFF35B8FBB
:10460000C340DB0742BF064B4FF40032C3F8002122
:10461000704700BFE80E002000100140E40E0020AB
:1046200000E100E00D4B1868010A0006BFF35F8F40
:104630000B4BD3F80435181841F10001B3F5801F76
:104640000AD2084BD3E90023904271EB030303D253
:1046500010F1807041F10001704700BFEC0E0020A6
:1046600000100140F80600202DE9F74F16461F46BE
:104670000446FFF761FF0090FFF7D4FFB04271EBF3
:10468000070351D23A4B301A67EB0101984271F19E
:1046900000016AD2374B03EB0413D3E902239F4294
:1046A00008BF96424ED034494FF4803904F150058A
:1046B00009FA04F9AD00C1F848932046ADB203F001
:1046C0007FF926F07F4B05F1804504F5A8732B4A4E
:1046D000019305F58835DC464FF0030A019B2CF069
:1046E0007F4041F82300C1F84493D1F804856FF06E
:1046F0000200A0EB0800604420F07F40904221D9E6
:10470000286860B1D1F80485A8EB0B0020F07F4049
:10471000B0F5000F16D9204603F052F9174A0AEBFC
:10472000080C0AF1010AD9E70123154ABFF35B8F90
:10473000A34052E8000F184342E800010029F8D1D5
:10474000BFF35B8F0B490C98230101EB0412C2E904
:104750000267C8500D9B5360002520460099FFF763
:1047600033FF284603B0BDE8F08F6FF01505F4E77E
:1047700001008000E006002000100140FDFF7F00E6
:10478000E40E002073B51B4C1B4BC4F80833C4F86F
:1047900048331A4B00254FF0FF304FF0FF31C4F87B
:1047A0000855C3E902014FF48033C4F80433144BB5
:1047B00002264FF400320121C4F804631120C3F82B
:1047C00080212A46FEF76EFB1120FEF73BFB0D4AC7
:1047D0000123A360236013600B4B0C4A00930195E7
:1047E00000232846FFF740FF3046FFF75FFA2846D0
:1047F00002B070BD0010014003000F00E006002071
:1048000000E100E0E80E002081450000FFFF7F008E
:104810002DE9F7432F4CD4F8043399070BD5D4F87E
:10482000043143B12C4A0023C4F80431D4F80431D4
:10483000136801331360D4F80433DA032AD5BFF3C5
:104840005B8F264B53E8002F22F0010143E8001054
:104850000028F7D1BFF35B8FD30702D4D4F84031DF
:10486000C3B10025C4F84051D4F84031FFF7DAFE57
:104870004FF02003EFF3118283F31288BFF36F8FA1
:10488000174BD3E90267B042B94106D282F31188CF
:10489000BFF36F8F03B0BDE8F0834FF0FF384FF0E8
:1048A000FF39C3E90289D3E900101D604FF480335A
:1048B000C4F84833C4F84051D4F8403182F3118829
:1048C000BFF36F8F0029E5D0009032463B46284663
:1048D0008847DFE700100140EC0E0020E40E0020C6
:1048E000E0060020431C13B522D0012822DD124A25
:1048F000124B9042D4BF04461C46FFF793FE104B68
:104900000E49D3E90023801AB0F5000F28BF002418
:1049100004448C4228BF0C46A2180A4900914FF06B
:104920000000019043F10003FFF79EFE02B010BDAE
:10493000024CE2E70124E0E7FEFF7F00FFFF7F007B
:10494000F00600208145000008B5FFF76BFE024B22
:104950001B68C01A08BD00BFF006002010B5084C47
:10496000012363601120FEF77BFA064BC4F808337D
:10497000C4F84833044B4FF40032C3F8802110BD13
:104980000010014003000F0000E100E07FB5FDF7DB
:104990005DFB074B0593022304930648002304AAFA
:1049A0004FF48251FDF732FC0020FFF76BF800BF97
:1049B000D98E0000908100004FF08053D3F8302151
:1049C000082A06D1D3F83431052B02D8024AD05C2C
:1049D00070470020704700BFFC8E0000024AD2F8EA
:1049E0000034002BFBD0704700E0014010B54FF0C1
:1049F0008053D3F83021082A4ED14FF08042002155
:104A0000C2F80C11C2F81011C2F8381502F5404274
:104A1000D3F80414C2F82015D3F80814C2F82415EA
:104A2000D3F80C14C2F82815D3F81014C2F82C15BA
:104A3000D3F81414C2F83015D3F81814C2F834158A
:104A4000D3F81C14C2F84015D3F82014C2F844154A
:104A5000D3F82414C2F84815D3F82814C2F84C151A
:104A6000D3F82C14C2F85015D3F83014C2F85415EA
:104A7000D3F83414C2F86015D3F83814C2F86415AA
:104A8000D3F83C14C2F86815D3F84014C2F86C157A
:104A9000D3F84434C2F87035FFF78EFF18B13A4BA3
:104AA0003A4AC3F88C26FFF787FF18B1384BFB2230
:104AB000C3F81825FFF780FF70B14FF080414FF029
:104AC0008053D1F8E42ED3F8583222F00F0203F0CD
:104AD0000F031343C1F8E43EFFF76EFF20B12D4BE7
:104AE0004FF40072C3F840264FF08053D3F83031B2
:104AF000082B1AD14FF08043D3F80024D20744BFCB
:104B00006FF00102C3F800244FF08053D3F8343122
:104B1000052B02D8204AD35C3BB14FF01023D3F8C9
:104B200008224FF08043C3F858254FF01023D3F8E4
:104B30000022002A03DBD3F80432002B22DA1749C3
:104B400001234FF01020C1F804351224FFF746FF6F
:104B5000C0F80042FFF742FFC0F80442FFF73EFFF3
:104B60000023C1F80435FFF739FFBFF34F8F0C491D
:104B70000C4BCA6802F4E0621343CB60BFF34F8F63
:104B800000BFFDE710BD00BF00500040488103009A
:104B900000F0004000900240F68E000000E001406E
:104BA00000ED00E00400FA0570B501250268BFF3CE
:104BB0005B8FB2FA82F3C3F11F03DBB205FA03F491
:104BC00022EA040450E8006F964204D140E8004C09
:104BD000BCF1000FF6D1BFF35B8FE7D101480B703A
:104BE00070BD00BF0000AD0B10B50368CB40DB0704
:104BF00014D401238B400268BFF35B8F43EA0201A8
:104C000050E8004F944204D140E8001CBCF1000F72
:104C1000F6D1BFF35B8FEED1014810BD0148FCE730
:104C20000000AD0B0400AD0BF7B5044618B1012828
:104C300022D003B0F0BD4FF080430222C3F8082316
:104C4000C3F80401D3F804210122DA6007460123E6
:104C50008DF8073042F210754FF08046CCB1012C30
:104C6000E7D1C7B3D6F80C3403F001033B70D6F894
:104C70000C34DA0321D516E04FF080430022C3F84C
:104C80000803C3F80021D3F8002158600DF107078D
:104C9000DDE7B7B1D6F8183403F003033B60D6F86C
:104CA0001834D803C5D59DF80700012803D102F0B8
:104CB000A3FE013DD2D1012CBBD10C4B00225A7175
:104CC000B7E7D6F81834D903B3D5012002F094FE23
:104CD000013DF6D1ADE7D6F80C34DB03EDD501206C
:104CE00002F08AFE013DF6D1E7E700BFF00E00209A
:104CF000044B1A7922B9012218609A800248704741
:104D000002487047F00E00200000AD0B0C00AD0B08
:104D100010B54FF08043D3F800216AB10022C3F8E8
:104D20000021D3F800210122C3F80823114B587940
:104D300010B95A711B6898474FF08043D3F804218B
:104D400072B10022C3F80421D3F80421D3F8182447
:104D5000D3F81814920704D10122C3F818259A60D9
:104D600010BD0222C3F80823024BBDE810401B68A7
:104D700001201847F00E0020036803F01F025B09B2
:104D8000012B0260024818BF4FF0A040704700BFDF
:104D900000030050034B083033F81000C0F34010FC
:104DA000704700BF4C00002070B500F108030C4CA8
:104DB00034F81330DA0505460E4607D5C3F343230E
:104DC00004EBC30254F8333052689847A3682BB100
:104DD000E26831462846BDE87040184770BD00BF04
:104DE0004C00002010B4124A083032F81030D905B7
:104DF0001BD5C3F3432123F4F85322F8103002F1FA
:104E00000E04002034F8023F13F4807F03D0C3F374
:104E10004323994209D001303028F3D1002342F8CE
:104E20003130044810BCFFF7DFBE10BC704700BF34
:104E30004C000020C000002038B50246FFF7AAFF52
:104E4000094C02F1080540B134F8153007495B0BF5
:104E500003F5A273002041F823001046FFF7C2FFBC
:104E6000002324F8153038BD4C00002000600040BD
:104E70002DE9FF41044616461D4601B34E4F00F191
:104E8000080837F818309B0702D5FFF783FF10BBDF
:104E90000023CDE900338DF80E308DF80F300DF181
:104EA0000F020B4620460DF10E0102F0F2FD37F81D
:104EB000183023F0020343F0010327F8183046B3FB
:104EC0003D4B96F800C0726804F1080733F81710DC
:104ED000880702D5AAB139481DE021F02001C90494
:104EE000C90C23F8171062B1BCF1030FF3D8726834
:104EF0001678BCF1000F11D1314A06F5A27642F8BE
:104F000026C033F8172022F01C0242EA8C0223F854
:104F1000172045BB2B4804B0BDE8F081B20002F178
:104F2000804202F5C04241EA4631D2F8100520F035
:104F30000300C2F81005D2F8100520F44F3020F419
:104F40004070C2F810052002D2F810E500F47C5041
:104F500040EA0C4040EA0E0041F0200123F817100F
:104F6000C2F81005CDE7D5E900672046FFF73AFF04
:104F7000002ECFD0104DD5E90023964201D19F429B
:104F800018D011480DF10F01FFF70EFE0D4B98429E
:104F9000C1D19DF80F2045F8326005EBC2030834FB
:104FA0005F6035F8143043EA422343F4807325F8F8
:104FB0001430AFE70022EEE74C0000200400AD0BF8
:104FC000006000400000AD0BC0000020F0B50446BA
:104FD00085B0154619B3334E00F1080736F817208F
:104FE000930703D4FFF7D6FE002858D112F01C0F08
:104FF00002D04B78012B52D001238DF80F300023C3
:10500000CDE900134A1C8B1C20460DF10F0102F064
:1050100040FD36F8173043F0030326F8173015B972
:10502000214805B0F0BD1F4E04F1080736F81700FF
:10503000830734D595F800C06146890020F0200030
:1050400001F18041C00401F5C041C00C26F81700F1
:105050000023C1F810356A78002AE1D0D1F8103564
:10506000AD7823F4991323F4F853C1F81035D1F82F
:1050700010E5230203F47C53120402F4403243EAA5
:105080000E0313432A0502F4801240EA4C30134306
:1050900040F0200026F81700C1F81035C0E703489B
:1050A000BFE700BF4C0000200000AD0B0400AD0BBB
:1050B000014BC3E9020170474C00002008B50246CD
:1050C000FFF768FE38B1054B0548083233F8123057
:1050D0005B0B0B7008BD0348FCE700BF4C000020D1
:1050E0000000AD0B0400AD0B38B50F4C94F87850B0
:1050F000BDB96022294604F1100002F0D2FA062060
:10510000FDF7A0FE094B0A48C3F87C51D3F87C2177
:105110004FF00042C3F80423012384F8783063671A
:1051200038BD0448FCE700BF4C0000200060004090
:105130000000AD0B0500AD0B034B93F87800003871
:1051400018BF0120704700BF4C00002001460148F5
:10515000FFF74ABDBC00002001460148FFF724BD0F
:10516000BC00002037B50446FFF714FE04F1080226
:105170001E4B33F81230E8B113F002051AD15B0B65
:105180009A0002F1804000F5C24002F1804202F52F
:10519000C04205600068D2F8100540F00100C2F876
:1051A000100529B1012202FA03F3114AC2F80433AF
:1051B00003B030BDC3F38203042B12D0052B12D0F1
:1051C00001A80194FFF7D8FD019BD0F81015D94034
:1051D00001F001010231204603B0BDE8304002F089
:1051E000A1BC0321F7E70221F5E700BF4C00002036
:1051F0000060004008B50246FFF7CCFDC0B102F1E7
:1052000008010E4B33F81130990711D45B0B0122C2
:105210009A409B000A4903F1804303F5C043C1F85B
:105220000823D3F8102522F00302C3F8102508BD87
:10523000BDE808400021104602F074BC4C0000207C
:105240000060004013B50E4B00F10802044633F82D
:105250001230DB0711D5FFF7CDFF2046FFF7ECFD3D
:1052600001A80194FFF788FD019B03F5E07302227A
:1052700040F82320034802B010BD0348FBE700BFFD
:105280004C0000200000AD0B0400AD0B2DE9F04FE9
:10529000684B69486949002687B0012234461D6879
:1052A00035B1D0F8045315421EBF1C601D6816436B
:1052B00004338B424FEA4202F1D1DFF87C91D9F8F6
:1052C0007C31002B00F099804FF0A043D3F82025CB
:1052D0000492C3F82025D3F820280592C3F820288B
:1052E0004FF000080DF1100A4FEA481300934FF0F9
:1052F000010B49E0009B524A94FAA4F4B4FA84F4F6
:105300001C44E00804F10803039432F813701AF8FF
:10531000003004F007020BFA02F223EA02030AF853
:10532000003003A8FFF728FD039B03F5E073B908DD
:1053300050F82330C7F382054A072F46C3F30143D1
:105340002CD520463946DDB2FFF72EFD03A8039485
:10535000FFF712FD039B03F5E07350F82330C3F30E
:1053600001439D4207D10021204602F0DBFB294684
:10537000204602F0D7FB03A80394FFF7FDFC039B34
:105380000BFA03F3C0F820355AF82840002CB1D1AD
:10539000B8F1000F1DD14FF00108A5E7022B0CD189
:1053A0000321204602F0BEFB05F00503012BE2D1EC
:1053B00039462046FFF7F8FCDDE70221204601933D
:1053C00002F0B0FB032DF3D0019B032BD3D1022DB0
:1053D000EDE74FF0A042C9F87C41D9F87C3119497A
:1053E000D2F820350493C2F82035D1F82025059253
:1053F0001343C1F820257FF473AF012416B907B019
:10540000BDE8F08F96FAA6F3B3FA83F304FA03F239
:105410009B0003F1804303F5C04326EA0206D3F85C
:105420001005D3F81015C0F30520C1F30141FFF7B3
:10543000BBFCE3E7006100400060004020610040E9
:105440004C0000200003005001460148FFF7ACBBB0
:10545000C800002010B5114C114A124903232361E2
:105460006361114BA261E3614FF480632362002307
:10547000A3626362E36222660C4A6266E01D102248
:10548000A2662367E366636702F0E6F808492046F0
:1054900002F0E2F82023A37110BD00BFF80E002037
:1054A000228F00002B8F0000B1110020A1110020DD
:1054B0002F8F00002DE9F84F214F4FF0180B1446A5
:1054C0000BFB00720646936A556AAB42884631D898
:1054D000D2F820A0AAEB050909F1FF32944211D8B5
:1054E000182306FB03333B442246586841462844B0
:1054F00002F0CCF82C44182303FB067301205C62F5
:10550000BDE8F88F13449C4218D800FB0BBBBB448A
:105510004A46DBF804002C44284402F0B7F8B4EB08
:105520000A04E8D0DBF80400224608EB090102F087
:10553000ADF8E0E7013B5B1BA342D1D20020DFE7DF
:10554000F80E0020034B182202FB00339A6A586AB7
:10555000801A7047F80E002003484FF0FF324FF0DA
:10556000FF3300F0EBBA00BFC8010020014800F093
:105570005FBB00BFC80100202DE9F04786B005469B
:1055800000AF0E464FF02003EFF3118883F312882B
:10559000BFF36F8F00F0B0FE042D96BF2C4B2D4B48
:1055A00053F82530E9468AB004466A462A49D36151
:1055B00040F2013393844FF0000A284BC2F820A038
:1055C000C2E9051542F8103F254853464FF43151C2
:1055D000FCF71CFECD467EB1F369C3F308035BB153
:1055E000204B7B6102233B611D48534607F11002AB
:1055F0004FF48251FCF70AFE2CB1204602F00FFB5B
:1056000008B1037803B91848E9468AB06A46174BCF
:10561000D061C2E9053440F201331384144B42F8DF
:10562000103F00230E484FF41151FCF7EFFD3146B7
:10563000CD462846FFF7AAF988F31188BFF36F8F8C
:105640002046FEF7CDF81837BD46BDE8F08700BF0D
:1056500014840000368F00004C8F0000050000010C
:10566000C0810000748F0000448F0000958F0000FF
:1056700004000001104B70B553F82040013053F87E
:105680002060A64200D870BDD4E900358DB128460F
:10569000984738B10028B8BF4042EB68FF28A8BF40
:1056A000FF201870EA68537843F001035370083400
:1056B000E7E79847FBE700BF2884000008B50A4BDE
:1056C000012203201A70FFF7D5FF01F0B3F8042080
:1056D000FFF7D0FF00F0B4F9FAF7B8FE034A137BE6
:1056E00023F00103137308BDB1150020A0070020AB
:1056F00008B50348034A0021121A02F035FA08BD22
:1057000000020020B4150020F0B5174E174C1849C0
:1057100087B0A02303FB0066012700230F22CDE9F9
:105720000232CDE904730193282303FB00440546AC
:105730004FF4C07000FB05110E4B00944FF4A072A3
:10574000304600F0EDF8737B0B4AE66023F004036B
:1057500073734FF4046305FB0333134425746360D0
:1057600084F8207007B0F0BD00070020400800203A
:1057700040210020055B00000019002080B50020BA
:10578000AEB0FFF777FF2E4B83F308882D4D2E4EDA
:105790006B692E4F43F400736B610024E02385F89E
:1057A0002230EC772C766C76AC7685F820406B6AEC
:1057B00043F4E0236B6285F82340FDF77DFFFDF79E
:1057C000BBFA4FF0FF33AB62EB62FEF7DBF8FEF79C
:1057D0001DF8FCF7A7FB40F20113ADF8243006AB2F
:1057E000B360CDE928442B9402F0B2F90120FFF711
:1057F00041FF0220164DFFF73DFF00F0D9FC154B8D
:10580000F5620593012314490094CDE903434FF455
:1058100080623B46CDE90144284600F081F86A7B6E
:10582000064622F0040228466A7302F058FA20461F
:10583000FFF76AFF3A4631462846FDF701FC00BFF4
:105840004021002000ED00E040080020BD5600008F
:10585000A0070020F78F0000C022002038B5064CBA
:10586000064D0020AC4200D338BD204602F080F93E
:105870000028F9DB1C34F5E77801002078010020CE
:1058800073B50C464FF02005EFF3118185F31288B4
:10589000BFF36F8F45695DB125602B6843618369F4
:1058A00001338361002081F31188BFF36F8F11E012
:1058B00052EA030603D125606FF00B00F3E7CDE950
:1058C00000230246083000F07DFB18B9024B9B68AC
:1058D0005B69236002B070BD400800204FF02003D8
:1058E000EFF3118183F31288BFF36F8F0B4A936B31
:1058F000834208D1D3F88030936381F31188BFF3DA
:105900006F8F70471346002BF7D0D3F88020824268
:10591000F8D1D0F88020C3F88020EEE740080020BE
:105920002DE9F04F85B0984600F16803C0E91A33BD
:105930000732129B037322F007090423002501F1AB
:10594000400A437309F14007119B85600446C0E992
:1059500006550E468373C5730F444A46AA21504626
:10596000DDF838B001F09DFE109BC4F89050C4E9FA
:1059700022A902930F9B3A46CDE900B33146434634
:105980002046FDF729FB0F9BA367109B6566C4E9C2
:105990001C8BE3674FF02003EFF3118283F312882F
:1059A000BFF36F8F0F4B996BC4F880109C6382F329
:1059B0001188BFF36F8F9B682BB9C4F894303846B9
:1059C00005B0BDE8F08FD3F89430C4F894301022BD
:1059D000294604F1300001F064FE012384F83830D8
:1059E000EDE700BF40080020F0B587B00025059521
:1059F000109D04950F9D03950E9D0295DDE912768D
:105A00000D9D01950C9D00950446FFF789FFB6F1A9
:105A1000FF3F08BFB7F1FF3F05D056EA070305D1A6
:105A2000204600F045FB204607B0F0BD03493A464A
:105A3000334604F1180000F029FDF4E7677D00000B
:105A40002DE9F043294C2A4D87B02646AE4204F199
:105A50002C040FD300F07CFB244CDFF898904FF41B
:105A6000004640F2E737AC4220D307B0BDE8F04330
:105A700000F082BB54F8043C059354F80C3C0493AA
:105A800054F8103C039354F8143C029354F8183C17
:105A9000019354F81C3C009354E9092354E90B0189
:105AA000FFF73EFF54F82C3C5E66CEE7636A5A1C53
:105AB0000DD023EAE37300213846C3FB060151EA07
:105AC000C333D4F8008004D1404600F0F1FA2C34FE
:105AD000C9E74FF47A720023FAF712FB02460B462D
