:100000008027002095370000CF7A00006937000074
:100010006937000069370000693700000000000000
:100020000000000000000000000000005930000047
:100030006937000000000000ED2F00006937000064
:100040001531000015310000153100001531000098
:100050001531000015310000153100001531000088
:100060001531000015310000153100001531000078
:100070001531000015310000153100001531000068
:100080001531000015310000153100001531000058
:100090001531000015310000153100001531000048
:1000A0001531000015310000153100001531000038
:1000B0001531000015310000153100001531000028
:1000C0001531000015310000153100001531000018
:1000D0001531000015310000153100001531000008
:1000E00015310000153100001531000015310000F8
:1000F00015310000153100001531000015310000E8
:1001000053B94AB9002908BF00281CBF4FF0FF317E
:100110004FF0FF3000F00CB8ADF1080C6DE904CEE3
:1001200000F008F8DDF804E0DDE9022304B07047D0
:10013000704700BF2DE9F04786468C460846089E6A
:10014000154674461946002B40F0C2808542B2FA2B
:1001500082F245D94AB1C2F1200300FA02FC2EFA1C
:1001600003F3954043EA0C0C94404FEA154EA8B2B5
:10017000BCFBFEF8230C0EFB18CC08FB00F943EA8D
:100180000C43994528D9EB1808F1FF3704D299455B
:1001900002D9A8F102072B44A3EB0903A4B2B3FBD5
:1001A000FEFC0EFB1C330CFB00F044EA0344A042AF
:1001B00014D92C190CF1FF3304D2A04202D9ACF1AE
:1001C00002032C44241A43EA07401EB1D440002302
:1001D00034607360BDE8F0874746DDE76346F1E7CA
:1001E00092BB431B01214FEA154EAFB2B3FBFEFC9D
:1001F000200C0EFB1C330CFB07F840EA0343984528
:1002000062D9EB180CF1FF3004D2984502D9ACF159
:1002100002002B44A3EB0803A4B2B3FBFEFC0EFBCD
:100220001C330CFB07F744EA0344A7424ED92C19B0
:100230000CF1FF3304D2A74202D9ACF102032C44E3
:10024000E41B43EA0040C0E7C2F1200320FA03F1B7
:10025000954090402EFA03F303434FEA154EAFB298
:10026000B1FBFEFC0EFB1C10190C0CFB07F841EA5D
:100270000041884504FA02F422D969180CF1FF30D4
:1002800004D2884502D9ACF102002944A1EB08014F
:100290009BB2B1FBFEFC0EFB1C110CFB07F743EA03
:1002A00001439F420ED9EB180CF1FF3104D29F425B
:1002B00002D9ACF102012B44DB1B41EA004192E779
:1002C0006046E3E76146F7E76046A3E76346B7E7C2
:1002D000834206D916B9002108467BE7C6E900E04B
:1002E000F9E7B3FA83F78FB9834201D3724508D88F
:1002F000BEEB020460EB030301209C461EB9002103
:1003000068E73846FAE7C6E9004CF8E7C7F1200C81
:10031000BB4022FA0CF41C432EFA0CF120FA0CF329
:10032000B84001434FEA14490EFA07F5B3FBF9F858
:100330001FFA84FE09FB18300B0C08FB0EFA43EA87
:1003400000439A4502FA07F240D9E31808F1FF305A
:1003500004D29A4502D9A8F102002344A3EB0A0370
:1003600089B2B3FBF9F809FB183308FB0EFE41EA2A
:1003700003418E452CD9611808F1FF3304D28E4514
:1003800002D9A8F10203214443EA0040A0FB0298ED
:10039000A1EB0E014145CE46434602D306D14D4561
:1003A00004D2B9EB020E68EB04030138002EA6D08C
:1003B000B5EB0E0261EB030101FA0CFC22FA07F324
:1003C0004CEA0303F940C6E9003198E74046C5E727
:1003D0004346D9E728B1012805D10349034800F075
:1003E00091B90349FAE77047CA8B00000002002068
:1003F000C88B00007FB50A4B0593022304930023AA
:1004000004AA4FF48651074801F050FF064800F057
:10041000F3FB064807B05DF804EB00F0D5B800BF69
:10042000CC8B0000A488000000020020D50300004F
:100430002DE9F04186B0214807F0D0FD034660B9B0
:100440001F4A0592022204924FF4825104AA1D48C9
:1004500001F02CFF06B0BDE8F0811B4C00260127FF
:1004600020682179E388D0F810C0D0F80880DCF843
:100470000050DA0754BF43F4B01383F4D01323F4CD
:10048000801207FA01FEDB074CBF45EA0E0525EA9C
:100490000E05CCF80050D8F8003098470028D9DB7A
:1004A0000136042E04F10804DAD1084B0593022327
:1004B0000493002304AA4FF48651C8E79C860000E9
:1004C000E58B0000A488000018890000FB8B000069
:1004D0002DE9F0411C4D86B0044600AF00264FF0D8
:1004E00001082868297903691B6808FA01F1194293
:1004F00003D024B183681B6903E0002CFAD0836821
:10050000DB6801369847042E05F10805E9D13D1D49
:100510000E4A23461421284603F0BAFA88B06A46E8
:100520000B4BC2E905354FF400739383094B42F836
:10053000103F094800234FF4E65101F0B7FE183789
:10054000BD46BDE8F08100BF188900007497000027
:10055000108C000003000001A48800007FB5154B3B
:10056000994211D1144B059302230493134800239D
:1005700004AA4FF4865101F099FE114B1B6800202C
:1005800007B05DF804EB18470C3399420ED10C4BC1
:1005900001201B6898470B4B0593022304930748DF
:1005A000002304AA4FF4865101F080FE07B05DF8E5
:1005B00004FB00BF640900201E8C0000A48800001A
:1005C00060090020338C00002DE9F04F87B0804691
:1005D00000AF414B7B6102243C614048002307F19E
:1005E00010024FF4865101F061FE3D4807F0F6FC21
:1005F000034650B93B4AC7E904424FF4825107F120
:100600001002364801F052FE31E0374C374DDFF82A
:10061000E0A000264FF00109E3882068217943F427
:100620008032D0F810C0D0F808E013F0010FDCF8E9
:10063000003009FA01FB14BF4BEA030323EA0B0362
:10064000CCF80030DEF800309847002815DA6C4608
:1006500088B06A46274BC2E90536032342F8103FAB
:100660001E4800234FF4C25101F020FEA5461C375E
:10067000BD46BDE8F08F0126CEE72068217983686A
:100680004FF0A072D3F818B04FF00073D84700288D
:1006900004DA6C4688B06A46174BDCE72379206899
:1006A00009FA03F3C5E901A38368DB6913B10122E9
:1006B0002946984708340C35002EDCD00F4BC3F880
:1006C00000800F4B7B6102233B61002307F1100286
:1006D0004FF4865195E700BF488C0000A4880000C5
:1006E0009C860000E58B000038890000640900202A
:1006F0005D0500005B8C0000858C00006009002017
:10070000AC8C000030B5044687B00D46084B05930D
:100710000848022304AA4FF48651049306F036FBDE
:10072000294604F1080007B0BDE8304007F0C9BD14
:10073000BD8C0000A4880000F0B5044691B00E46C0
:10074000374B38480F930EAA02274FF486510E9765
:1007500006F01CFB002200234FF48061324807F0B2
:10076000A1FC0546314B2F480EAA4FF48651CDE926
:100770000E7306F00BFBC4F8B85045B92C4B294852
:100780000EAA4FF48251CDE90E7306F0FFFA294B01
:1007900024480F9302250EAA4FF486510E9506F0B9
:1007A000F5FA04F1080007F084FD234B1D480EAA5A
:1007B0004FF48651CDE90E5306F0E8FAD4F8B8109C
:1007C00000220023CDE9062300230122CDE90323E3
:1007D000CDE901334FF48062184B009404F1180006
:1007E00005F064F940F2E933C4E9000608A920469F
:1007F000ADF8203006F0CDFA4FF47A7309A92046FF
:10080000ADF8243006F0C5FA0D4B06480EAA4FF499
:100810008651CDE90E5306F0B9FA11B0F0BD00BF14
:10082000D58C0000A488000078010020E98C00002D
:10083000FF8C0000178D0000298D00004508000086
:100840003A8D00002DE9F041044686B0174BDFF8E1
:100850006080184E05931748022304AA4FF486516E
:10086000049306F093FA4FF0FF324FF0FF3304F198
:10087000080005F07DFA0546022704AA30464FF429
:100880008651CDF81480049706F080FA2946204658
:1008900006F07FFA084B04AA4FF486513046CDE9A2
:1008A000047306F073FA05F021FDDCE74B8D0000C0
:1008B000738D0000A4880000998D00002DE9F0419F
:1008C000044688B00D46154E154B07934FF48657D6
:1008D00006AA394630464FF00208CDF8188006F0D7
:1008E00055FA40F2EA3369462046ADF8003006F08A
:1008F00050FA40F2E933656001A92046ADF80430B2
:1009000006F047FA074B06AA39463046CDE906837A
:1009100006F03CFA08B0BDE8F08100BFA4880000F2
:10092000C68D0000DA8D000070B5054686B00E4613
:100930001E4B1F48059304AA02244FF486510494C9
:1009400006F029FAB6F9003040F2E932934218D0A5
:1009500040F2EA3293421FD0B3F57A7F1ED1154B95
:10096000134804AA4FF48651CDE9044306F013FA64
:10097000FFF75EFD1049284606B0BDE87040FFF75E
:100980009DBF0E4BCDE9044304AA4FF4865108489D
:1009900006F001FA06B070BD094BF3E7094B04AA53
:1009A000CDE904434FF48251F1E700BFEC8D000024
:1009B000A4880000FD8D0000C9090000108E000011
:1009C000248E0000378E00002DE9F0438DB00646DE
:1009D00000AF0D46E846334BFB62022407F12802C4
:1009E0003148BC624FF4865106F0D5F9B5F9005094
:1009F0002E4A07F104092B461421484603F048F813
:100A000088B06A462A4B2848C2E905394FF400737A
:100A10009383284B42F8103F4FF4E65106F0BBF9A0
:100A2000B5F5FA6FC5462AD010DC40F2E9339D4295
:100A300018D040F2EA339D421FD01F4BFB620223C5
:100A4000BB6207F128024FF4825112E040F2D173E9
:100A50009D42F2D1194B07F12802C7E90A434FF42E
:100A6000845106E0164BC7E90A4307F128024FF408
:100A700086510D4806F08FF90FE0124BF3E7124B49
:100A800009484FF48451C7E90A4307F1280206F0E8
:100A900082F90E493046FFF711FF3437BD46BDE8F5
:100AA000F08300BF4B8E0000A48800007497000004
:100AB0005E8E000003000001378E0000D68E00001D
:100AC000718E0000878E00009C8E0000D10A00000D
:100AD0002DE9F0438DB0064600AF0D46E8463B4B8E
:100AE000FB62022407F128023948BC624FF48651A8
:100AF00006F051F9B5F90050364A07F104092B46C2
:100B00001421484602F0C4FF88B06A46324B304890
:100B1000C2E905394FF400739383304B42F8103F1C
:100B20004FF4E65106F037F9B5F5FA6FC54641D0F6
:100B300010DC40F2E9339D421FD040F2EA339D427F
:100B40002CD0274BFB620223BB6207F128024FF433
:100B5000825136E040F2D1739D42F2D1214B1C48C4
:100B6000C7E90A4307F128024FF4845106F013F94C
:100B70001D493046FFF7A2FE0CE01C4B1448C7E9A4
:100B80000A4307F128024FF4865106F004F90120C8
:100B9000FFF79EFC3437BD46BDE8F083144B0C488C
:100BA000C7E90A4307F128024FF4865106F0F3F82B
:100BB0000020EDE70F4BC7E90A4307F128024FF485
:100BC0008451034806F0E7F8E4E700BF228F0000F5
:100BD000A4880000749700005E8E000003000001EE
:100BE000378E0000838F0000C9090000338F00009A
:100BF000478F00005A8F000010B5044686B0084B9E
:100C000005930848022304AA4FF48651049306F082
:100C1000C2F80549204606B0BDE81040FFF78CBD7C
:100C2000AB8F0000A4880000290900002DE9F04FD7
:100C300091B08407009302F004030293C2F3C2034D
:100C400003F10103DDF86880039205460E46059323
:100C500040F0BE81041D30B1072909D86FF01B0098
:100C600011B0BDE8F08F01F00706341DC6F108068B
:100C7000009B4FF00009591E4FF0040A4FF0FF335C
:100C80000193CDF810904F46CB4653460DB1009AD4
:100C900022600598002800F3EB809A48009A82426F
:100CA00003D399488242C0F0E380039AA4EB050E77
:100CB00092074FEA9E0000F106810F2F00F2B480E8
:100CC000002D00F0088107F140020DEB020C019AA3
:100CD0000CF8200C0CF8102C049801300490EAE079
:100CE0007A2860D84B280ED847285CD829282FD8D6
:100CF000252855D057D820287DD02338D0F1000B97
:100D00004BEB000B77E0A0F14C0CBCF12E0F4AD856
:100D1000DFE80CF07149494949494949494949497C
:100D20004C49494949494949495A494C4C5A5A5AE6
:100D3000714C6E497149184C18494983804C494996
:100D40004C49800000204FF0000B4FF0040A39E0BE
:100D5000A0F12A0C5FFA8CFC012202FA0CFC1CEABE
:100D60000E0F48D11CF062502ED11CEA020B42D06B
:100D7000013C5444CAF1000C04EA0C04002D61D07B
:100D8000A3EB050CA444B4453FF668AF002868D136
:100D9000042B47D158F8043B2360043404232AE091
:100DA000019A013A01924FF0000B24E011F8010C76
:100DB0006C2834D111F8023C00206C2B8346C4D13E
:100DC0004FF0080A5346D3E708F1070828F0070850
:100DD0000734F8E802AB24F0070435B10698204444
:100DE000B0423FF63BAFC4E900AB08344FF0000B14
:100DF0004FF0080A534611F8010F002878D0BBF1D4
:100E0000000F7FF46DAF2528F5D1019B01330193CD
:100E10004FF0010B4FF0040AECE7584693E700202F
:100E20008346A5E7082B02D06FF0150018E708F1FC
:100E3000070828F00708F8E80223C4E9002308346B
:100E40000823D8E768B9042B02D108F10408A4E705
:100E5000082BE9D108F1070828F0070808F108086D
:100E6000EDE7059A013A059258F8042B00920DE738
:100E7000039A900720D5A4EB050E4FEA9E004FF091
:100E8000010CBEF5007FCFD20F2FCDD8F5B107F101
:100E900040020DEB020EC0B2019A0EF8200C0EF8C3
:100EA000102CBCF1000F3FF417AF60F07F000EF87C
:100EB000200C09F101090137C5F10802043406923A
:100EC0004FF6DA7E97E74FF0000CDAE7BCF1000F3F
:100ED00001D00136EFE7029802360028EBD10098E6
:100EE000CDE9063106F007FEDDE906310644E2E70A
:100EF000631BB3F5806F97D245B9A6F10804E018DB
:100F0000AEE600BF0486000030980000029A286018
:100F10009B082B709DF81030C2B1EB7085F80290E1
:100F2000B9F1000F05D008A80022C5F1010C9742C5
:100F30000ED1C5F101030DF120084FF0000A019315
:100F40000DF1300B574512D1601B89E66B70E5E758
:100F500010F8013B190608D504EB0C0EB64503F05A
:100F60007F033FF67BAE04F8013B0132DFE7B9F1C6
:100F7000000F03D098F90020002A17DB029BD3B1A1
:100F80001AF80B2004F8012B0022019B981820442A
:100F9000B0423FF663AE98F8000004F8010B0099E8
:100FA0000392204606F0B7FD039A14440AF1010AA1
:100FB00008F10108C6E798F8002055F822300093A0
:100FC000029B45F82230009806F095FD421CDCE7B4
:100FD0006FF00D0044E600BF2DE9F04F95B000AF73
:100FE0000446D7F878B0BB61CBF3C0037A623B61AB
:100FF000396251B903784678807800EB8300204449
:101000003B6A9E421AD8031B3B6294F802A0E37825
:101010007B615646BAF1000F02D01BF0010F17D1C9
:101020007B695BBB7B6A1BB1BA69396A204698470A
:101030003D6A28465437BD46BDE8F08F451C28461A
:1010400006F059FD3B6A0130013328443B62D7E783
:1010500094F800806368FB617B6A4FEA8802FA605B
:1010600004EB8808002B40F001813D6AC1460AEB81
:10107000080300264B454ED1D04413E01BF0020F6D
:10108000D0D094F800804FEA8803FB606368FB616E
:101090007B6A04EB8808002B78D13D6ABAF1000F17
:1010A0004ED156461BF0050F0CBF022301237B6275
:1010B0007B6908EB430A0BF002033B62D045B8D0D2
:1010C00018F8021B18F8013C54F82390AC4B9945D2
:1010D00002D3AC4B994539D33B69002B43D0F86917
:1010E00005F08DFE00283ED0E9468AB06A46A64B40
:1010F0005361FB69C2E906314FF400731384A34BBB
:1011000042F8103FA24800234FF4125101F0CEF8EC
:10111000023DCD46D2E719F8012B7B6254F822003C
:1011200006F0E9FCFA6F7B6A01303AB1D7F880200B
:1011300096423EBFFA6F22F816000136054499E741
:101140001BF004061CBF7E6AD044ABE73B6923B1A9
:10115000F86905F054FE0028C6D11BF0010F05D137
:101160007B6AED1AAAE73B6A002BA7D0484606F037
:10117000C2FCFB6F43B1D7F880309E423FBFFA6F8D
:10118000431C22F816300136054497E7BAF1000FE8
:1011900071D01BF0040671D0D146002607F1400043
:1011A0005246414606F0B7FC7B695B00BB607B6939
:1011B000D04408EB43037B610BF002037B607B6947
:1011C00098455DD12378FB6163781BF0020F06EB35
:1011D00003020CBF4FEA590100211BF0010FD2B2EC
:1011E00040F09D801BF0040F14BF4846002094F887
:1011F00002B094F803803B616270A070E170BA693C
:10120000F9687B6A20469847051EFFF612AFFB6916
:1012100023703B69637084F80380BA697B6A84F841
:1012200002B0494607F140009847B0F10008C0F20B
:10123000A3803B6ABA697869A3EB0A01FB68C91A03
:10124000BB68C91A7B6A98470028C0F29780A844F7
:1012500008EB00054FF0000B07F1300AB34560D3EF
:101260000021BA697B6A08469847E2E64FF0000918
:1012700007F1300094E75646D14695E7B14693E72B
:1012800018F8021B3E4A18F8015C54F825309342C6
:1012900002D33C4A93421CD33B6923B1F86905F061
:1012A000AEFD00288BD17B68F3B909F1280207F164
:1012B0002800024409F1010302F8101C07F1500252
:1012C00052FA83F309F102095FFA89F903F8105C15
:1012D00075E73B692BB1F86905F091FD00287FF4B3
:1012E0006EAF1BF0010F09D006F1280207F12801AB
:1012F000731C561806F8205CDEB260E71BF0040F82
:101300003FF45DAF09F1280207F1280109F101035B
:1013100002EB010909F8105C5FFA83F94FE700203E
:1013200065E71BF80A3087F82F3054F82390FB6FDD
:10133000FBB133F81B80BA697B6A012107F12F00EA
:10134000984700281ADB0544B8F1000F06D148463B
:1013500006F0D1FB00F101081FFA88F8BA697B6A30
:10136000414648469847002808DB05440BF1010B2D
:1013700074E7D7F87C80DEE745465AE6054658E62E
:101380000486000030980000BA8F000004000001BD
:101390007C880000014B1860704700BF00000020EF
:1013A00030B587B00025CDE903010446009503A9B7
:1013B0000548059500F018F9DDE904309842B8BFFA
:1013C000255407B030BD00BF4D6E00002DE9F04739
:1013D000058B04462807904611D4022905F007051D
:1013E00040F0CD80204605F02DFF78B10138218BEB
:1013F000042811D8DFE800F0C3106D85950001299D
:101400000CBF45F0100545F02005258388F31188B1
:10141000BFF36F8FBDE8F08701F0070AAA4500F01F
:10142000A6800027B9463E46A368002B00F0BD8089
:1014300041F00801218388F31188BFF36F8FA16801
:10144000002900F0BB800D68002900F0B780D1F8BA
:101450000480334652462046C047002D76D02B6884
:1014600029461D46F0E701F007035A1F012A1BD841
:10147000002221F00701062B276889B2C4E9002267
:1014800009D13B4603E0628B013262831B68002B6B
:10149000F9D141F002012183204605F0D3FE002856
:1014A0007BD041F0200177E0042B0AD121F0070125
:1014B00089B22183204605F0C5FE10B141F020011C
:1014C0002183218B01F0070AAA4550D00027B94695
:1014D000AAE7236921F0070141F00601062DD3F8A0
:1014E000009021832DD1B9F1000F40D041F00801C7
:1014F000218388F31188BFF36F8F3A492046C8478C
:1015000029E021F00701236941F0040189B2042D8B
:10151000D3F804902183E6D000273E464FF0040A1A
:1015200082E721F00701236941F0050189B2052D09
:10153000D3F808902183D6D000273E464FF0050A05
:1015400072E700273E464FF0060A6DE72B4687E715
:10155000B9F1000FD1D14FF02003EFF3118883F3DD
:101560001288BFF36F8F238B23F008032383258B0F
:10157000EA062ED525F01003238305F007056669DA
:10158000218B002EBFF66FAF00232768C4E900331C
:1015900021F0070141F001012183218B01F0070AAD
:1015A000AA454FF000097FF43FAF002F9BD041F0D8
:1015B0000801218388F31188BFF36F8F002FC7D0F4
:1015C0003D68394633465246204605F067FE2F46B1
:1015D000F4E7AB067FF51AAF25F02003238305F06F
:1015E0000705FFE6C97200002DE9F04F814695B06E
:1015F0008B4617461C460025387808B9284658E31C
:101600007B1C2528039306D05946C8470028C0F202
:1016100050830135FBE1182200210EA806F086FA5E
:101620007B78252B7DD00023781C98469E469C46CF
:101630001E46014610F8012B2B2A00F0A18000F273
:101640009880202A00F09F80232A00F09F802BB1F1
:101650009DF8403043F040038DF84030B8F1000F62
:1016600005D09DF8403043F020038DF84030BEF1A6
:10167000000F05D09DF8403043F010038DF8403046
:10168000BCF1000F05D09DF8403043F008038DF801
:1016900040302EB19DF8403043F004038DF84030C7
:1016A0009DF8403003F04400442803D16FF38613C3
:1016B0008DF840309DF840302A2A43F080038DF8A1
:1016C00040307FD19DF8412042F001024B1C8DF843
:1016D00041201A782E2A9DF841200CBF01210021BB
:1016E00061F341028DF8412078D15A782A2A6ED0D0
:1016F000013300224FF00A0C194611F8010BA0F13A
:101700003006092E40F295809DF840101292C1F3E8
:10171000400040EAD2700A4660F341028DF8402052
:101720005CE0BA1C03928DF843309DF84130DA0733
:1017300040F12E8154F8048BB8F1000F07DA9DF8C0
:10174000402042F004028DF84020C8F100085E07F6
:1017500040F1278154F804ABBAF1000F80F22681E2
:101760009DF841306FF341038DF841304FF0FF3A5F
:101770001CE12D2A0DD0302A7FF469AF012358E7F0
:101780004FF0010C55E74FF0010E52E74FF0010802
:101790004FE701264DE70EFB0262303A034618463A
:1017A00010F8016BA6F1300CBCF1090FF3D9994286
:1017B0008FD09DF840101192D20F62F341018DF845
:1017C000401086E70B4600224FF00A0EE7E79DF82F
:1017D000412042F004028DF8412002331A786C2A2D
:1017E00047D02BD8682A31D06A2A4BD04C2A51D006
:1017F0001A4612F8013B0392782B9DF841208DF890
:10180000433000F2BE806D2B51D8692B00F2B980B5
:10181000572B67D8412B03D0453B022B00F2B180F8
:101820009DF84230042262F302038DF84230012316
:1018300073E00CFB0202303A0B465DE7742A25D0B8
:101840007A2AD5D19DF8412006210CE05A78682AE1
:101850009DF8412006D1012161F3C6028DF8412097
:101860000233C5E7022161F3C6028DF8412001333E
:10187000BEE75A786C2A9DF8412001D10421EBE79C
:101880000321F0E79DF841200521ECE79DF8412078
:101890000721E8E7BDF8402022F4F04222F00202DE
:1018A00042F4804242F00202ADF84020DFE76E3B96
:1018B000D9B201238B4040F282410B4237D113F061
:1018C000240F51D1D8075CD59DF84230032161F334
:1018D00002038DF8423002F07803A3F140014B423D
:1018E0004B411AE0A3F15801C9B2012000FA01F1FD
:1018F00011F4624F94D140F6010631421DD111F42A
:10190000043F3ED09DF8423060F3020302F07802BB
:10191000402A8DF8423034D000239DF84020C2F395
:1019200040010B4363F341028DF84020FDE69DF832
:101930004230022161F30203E8E79DF842100220E1
:1019400002F0780260F30201402A8DF8421002BFD3
:101950009DF8401041F001018DF84010632BDBD160
:10196000131E18BF0123D8E79DF84230032161F30D
:10197000020312F0780F8DF8423014BF01230023C8
:10198000CBE79DF8403043F001038DF84030C3E7CA
:101990009DF94020002AB4BFDDF844804FF0FF38A5
:1019A000D5E698077FF5E2AEDDF848A09DF8411036
:1019B0000023CDE911339DF8423003F00703012BDA
:1019C000C1F3C30133D1CB1E042B04D8DFE803F0ED
:1019D000214646212100236801294FEAE372CDE91F
:1019E0000E321CD19DF93830DA17CDE90E320434AD
:1019F0009DF8403013F0030650D0039B3A465946F9
:101A0000484605F03EFD0028C0F253810544039F7F
:101A1000F2E554F8043BDA17CDE90E32E8E7022983
:101A2000E5D11AB243F3C033CDE90E23DFE7022B31
:101A300024D1CB1E042B04D8DFE803F018101018B3
:101A40001800012954F8043B4FF0000214D0022979
:101A5000CDE90E32CCD19BB20E93C9E7073424F006
:101A60000704F4E80223CDE90E23C1E754F8043B50
:101A70000E9300230F93BBE7DBB2CDE7042B08D115
:101A8000073424F00704D4E900230834CDE90E23F9
:101A9000AEE7032BACD154F8043BDDE79DF84300DF
:101AA0007828B4D862281CD825283FF4ADAD582832
:101AB000ADD10DF136030093DDE90E0108AB10AA9C
:101AC00005F099FCBAF1000F074680F29A80002FCA
:101AD0009DD00DF13603D81B002E00F0C1800130DF
:101AE000BEE06338152892D801A252F820F000BF5A
:101AF000C51B0000D71B00000F1A00000F1A0000C2
:101B00000F1A00000F1A0000D71B00000F1A000068
:101B10000F1A00000F1A00000F1A0000651C0000C9
:101B2000FD1B0000231C00000F1A00000F1A00000C
:101B3000491B00000F1A0000FD1B00000F1A0000D7
:101B40000F1A0000FD1B0000BAF1000F0E9F35DBDD
:101B50005146384605F0D6FF07EB000A002F3FF448
:101B600056AF00269DF8423013F01002059200F0A7
:101B7000938002305B06119A48BF129B0492104476
:101B800048BFC018B8F1000F40F3A0809DF8402076
:101B9000A8EB0008C2F380035007069300F196807B
:101BA000510640F189803EB159463046C847002869
:101BB0007FDB069B01351E4630227EE0384605F06D
:101BC0009AFFC9E70E9B8DF82030002608AF0DF173
:101BD000210A0120C6E719075CBFC3F300135E01A9
:101BE000DDE90E2348BF2B26002BBFF662AF524221
:101BF00063EB4303CDE90E232D265AE7002658E771
:101C000000269DF840200DF13603DB1B6FF3861292
:101C10009A458DF840207FF65AAFAAEB0303119343
:101C200055E70E9890B30DF13603009310AA08AB58
:101C3000002105F0E0FBBDF8423003F0EF0343F470
:101C4000F04343F01003BAF1000F0746ADF84230FD
:101C5000D6DA00283FF4DBAE0DF13603181A002661
:101C60009A467FE70E9B07293FF6D1AEDFE801F0E9
:101C70000C04060C08080C0C1D70C8E61D80C6E696
:101C8000EA17C3E90052C2E61D60C0E62E4F0646C1
:101C900007F1050A052065E71A0748BF013069E723
:101CA0000793104606925946C8470028DDE90623E7
:101CB00004DA15B0BDE8F08F20224346194600290A
:101CC00003F1FF33ECDC45446D1A98462EB15946BA
:101CD0003046C8470028ECDB01359DF84230DA0673
:101CE00001D41B0705D559463020C8470028E0DB42
:101CF0000135059B33B19DF843005946C84700287C
:101D0000D7DB0135049E2E4405E059463020C847F4
:101D10000028CEDB0135731B002BF6DC53463A4618
:101D20005946484605F0ADFB0028C2DB0544A844EF
:101D3000A8EB0503002B7FF76AAE59462020C84761
:101D40000028B6DB0135F3E76E90000008B50446C5
:101D50004FF02002EFF3118382F31288BFF36F8FED
:101D600002F04CFE204601F0DDFE034805F081F84C
:101D700001F038F8FCE700BF7490000002F086BE66
:101D80002DE9F047DFF85880044607464FF0010977
:101D900014B93846BDE8F08794FAA4F5B5FA85F58C
:101DA00009FA05F32E0108EB05156FEA030A24EA88
:101DB00003042B7B002BEBD058F806301B694BB982
:101DC0004644042273682846196807EA0A0700F0A7
:101DD00059FADDE7284698470028D9D1F0E700BF37
:101DE000E488000030B51049104889B0002206F0A0
:101DF000C4FB0F4D0F4900220023CDE90623002428
:101E00000E23CDE90334CDE901440B4B00944FF48C
:101E10004072284603F04AFE0849284606F0BDF9FC
:101E2000204609B030BD00BF411E000068070020F9
:101E3000C00200208016002031210000AD9000007B
:101E4000014803F0C9BF00BFF00100202DE9F047B1
:101E500080461F480F4605F094FD0646002830D006
:101E600000252846BDE8F087237B73B12368DB6833
:101E70000BB12046984723681B69D3B963680422D5
:101E80001968204600F0FEF9013610344C45EBD3BA
:101E9000B8F1000FE5D0002DE2D02846FFF770FF23
:101EA0000546002FF7D000214FF4A47004F0A0FAEB
:101EB000F1E7204698470028E0D00AFA06F31D43D0
:101EC000E2E7044CDFF8109005464FF0010ADDE729
:101ED0008C090020E488000004890000014B53F8BD
:101EE000200070475C89000008B5034608462BB106
:101EF000044A136000F078FC002008BD6FF0150064
:101F0000FBE700BF0400002010B5044C237813B990
:101F1000034803F061FF0123237010BD3812002035
:101F2000F001002010B50446084805F02AFD5CB118
:101F3000BFF35B8F064B53E8001F013943E80012E3
:101F4000002AF8D1BFF35B8F10BD00BF84090020C9
:101F5000880900200020064BBFF35B8F014653E841
:101F6000000F43E80012002AF9D1BFF35B8F7047DE
:101F70008409002070B5FFF7EDFF084C084E0546B8
:101F8000B44200D370BD63685B792BB123685B6892
:101F900013B12946204698471034F1E7E488000041
:101FA0000489000010B5044C0449204605F07AFB72
:101FB000034B1C6010BD00BF3C010020488900009D
:101FC0007C090020084A094808B500231370084A14
:101FD0001360084A4FF400411360FFF785FFBDE826
:101FE0000840FFF7DFBF00BF391200207F790000F3
:101FF00084090020880900200146002201480023AE
:1020000005F071BB3C010020014805F00ABC00BF8F
:102010003C010020024B0146186805F054BC00BF8B
:102020007C090020014805F08ABC00BF3C0100206B
:1020300070B5284B187800284BD0FFF7E5FF054610
:1020400090B1BFF35B8F244B53E8001F013943E885
:102050000012002AF8D1BFF35B8F204C204EB4420F
:102060002DD32846FFF7D6FF1E4B1F4C1B68002BB5
:1020700019DD06F05AFA4FF47A72A0FB020302FB54
:102080000131C30BD4E9002043EA41439B1A4FEAD4
:10209000D13140F2E93261EB0001934271F100016C
:1020A00001D3FFF767FFD4E9003213F57A7342F1E9
:1020B0000002C4E90032BDE87040FFF7B3BF6368B7
:1020C0005B7923B1236829461B6820469847103462
:1020D000C5E770BD3812002088090020E4880000A0
:1020E00004890000840900206007002070B50D4DB0
:1020F000297861B90120FFF7A9FE0B4C0B4EB442C1
:1021000006D3FFF795FF0028FBD101232B7070BD8C
:1021100063685B791BB1236820469B68984710343D
:10212000EDE700BF39120020E488000004890000B8
:1021300000212DE9F0470846FFF788FE044648B322
:1021400040F267684FF0000904F06CF91A4B186010
:1021500030B11A4B1B68092B02DD194803F03CFE15
:10216000184FDFF85CA0002544B12046FFF708FEB9
:10217000044618B94FF0FF384FF0FF39FFF758FF0A
:10218000064628B9B5B942464B46504603F046FECE
:102190003546E9E74FF0FF384FF0FF39D4E72B68B9
:1021A0009B691BB100221146284698471035BD4255
:1021B000F5D3E8E7044DFAE78009002088090020FC
:1021C000F001002004890000E488000013B51848DD
:1021D00005F0D7FB174B1B787BB14FF02003EFF3D3
:1021E000118483F31288BFF36F8FFFF721FF84F30D
:1021F0001188BFF36F8F02B010BD0F4B1B68002B0F
:10220000F9D050B900220023CDE900230B484FF448
:102210000042002304F03CFBEDE70A28EBD107481D
:1022200006F0B7F9064802B0BDE8104003F0D4BD8F
:10223000880900203912002080090020680700204A
:10224000F001002010B5064B1B6804469847214654
:10225000A060044805F0C5FABDE81040FFF7B6BF1E
:10226000040000203C010020044A054B9B1AB1EBFE
:10227000D30F34BF52F8310000207047648800004B
:10228000E4880000084BC31A10B41B1144680133E2
:10229000237143689A7143681960436801225A7137
:1022A00010BCFFF731BE00BFE48800002DE9F04FFD
:1022B0008FB004AFC1F34A28B8600D4691467B60E9
:1022C0000C0DB8F1000F63D0002607F114034FF096
:1022D000040B4FF00A0AC7F80C80C7E907667E6254
:1022E0000193CDF808B0CDF800A007F11C03F96800
:1022F00032464846FEF770FEB0F5006F03461CD329
:102300006C468AB0D9F8041004AB2648C3E905012D
:1023100040F2FF71D9611A464FF400711984224BC3
:1023200042F8103F214833464FF41251FFF7BEFFE9
:10233000A5462C37BD46BDE8F08FC0F30A0804F16E
:102340001700184420F0070080083B60FFF754FE98
:1023500068F35325044690B13B68154AC7E908362F
:1023600000F1100107F11403F961CDE900A3CDF8E4
:1023700008B0F96807F11C034846FEF72DFE68F324
:1023800053257B68B9682A46204605F030FBD0E724
:1023900004F1170020F007008008FFF72DFE044627
:1023A000EDE700BFC2900000040000019488000027
:1023B000C37900002DE9F04F87B0DDE91269DDE94E
:1023C000105A04460F4693469846A6B31021CDF8FE
:1023D0000090334652460020CDF81490FEF726FCBC
:1023E000014605F117000844144B039104F007045B
:1023F0000BF0070BE40020F0070003EA412344EA56
:102400008B1480081C43FFF7F7FD44EA055405468A
:1024100040B13EB10399CDF800903346524610309A
:10242000FEF704FC434622463946284607B0BDE87D
:10243000F04F05F0DCBA3146D3E700BF00FE0F00D5
:102440000EB403B503AB014653F8042B04480193C3
:1024500005F0F3FA02B05DF804EB03B0704700BF7B
:10246000637A0000CA0605D48B064CBF02490349B3
:10247000FFF7E6BF704700BF029100000191000026
:102480002DE9F04F89B09B469DF848300493DDE973
:1024900013930593049B0692DDE9157604460D46D9
:1024A000002B00F0878006F00803079305F087FAF9
:1024B00006F0020A024600284BD086492046FFF764
:1024C000BFFF8046BAF1000F08D016F0440F42D18A
:1024D00081492A462046FFF7B3FF804406F00103F6
:1024E0005BB17E4B049A7E4953F822207D4B2046F7
:1024F000002A08BF1A46FFF7A3FF06F00803002BC7
:1025000055D0794B049A794953F822202046FFF799
:1025100097FF0546069B2BB175491A462046FFF7E3
:102520008FFF0544BBF1000F05D072495A46204683
:10253000FFF786FF05444544B9F1000F49D1002F4C
:102540004FD1F30700F1C08031462046FFF78AFFE4
:10255000B4E08046B6E7684B18680028BDD0674BEA
:102560004FF47A7E1B68B5FBF3F54FF46162B5FB5F
:10257000F0F300FB1355B3FBF2FA0EFB05F502FB7B
:102580001A323C21B5FBF0FCB2FBF1F300FB1C5509
:1025900001FB13220EFB05F50092B5FBF0F558493F
:1025A000CDE901C552462046FFF74AFF95E706F000
:1025B0000805AFE7BBF1010F06D1B9F1000F64D1F7
:1025C000002F7BD000250CE0B9F1000FF8D04D486A
:1025D0005CE04D484D494B46224604F0DFFB002F9E
:1025E00068D0DFF82C91DFF82CA1102F314620465F
:1025F000B84628BF4FF01008FFF734FF4FF0000B2C
:102600005D4545DC059B51461A782046FFF718FFCB
:102610004FF0010B1BF0070F03D149462046FFF78F
:102620000FFFD8453BD9059B514613F80B20204698
:10263000FFF706FF0BF1010BBBF1100FEAD1364992
:1026400020464FF0000BFFF7FBFE5A46059B9A5CB5
:10265000A2F120015F2928BF2E2230492046FFF732
:10266000EFFE0BF1010BBBF1100F1DD01BF0070F9C
:1026700003D149462046FFF7E3FED8455A46E5D840
:1026800049462046FFF7DCFEEBE71F48049DA1E723
:1026900049462046FFF7D4FE0BF1010BB0E7204975
:1026A0002046FFF7CDFEC5E7059BB7EB080743447F
:1026B00005939AD1049B002B7FF443AF204609B0C9
:1026C000BDE8F04F05F0C0B9064A05492046FFF7BE
:1026D000B7FE39E7099100000D9100006C890000F8
:1026E00032910000049100008089000035910000C3
:1026F0003B9100003F9100009409002090090020C8
:1027000016910000997A0000637A00003B7A00007D
:102710004C910000449100004E9100005091000047
:102720004A9100002DE9F0410F884B688E6886B011
:1027300005460C469046C7F382175BB1134A9B1AB5
:1027400043F3CF0100291FDB2078C0F3C200FFF75D
:102750008BFD03462146608851F8102B0097C2F389
:102760004A22002A01EB0204C0F30B1008BF00212B
:10277000CDE90308CDE90114002231462846FFF7D0
:102780007FFE06B0BDE8F0810023E3E76488000027
:1027900073B542F20F738B4228BF0B4605680F4A90
:1027A00004460521684604F071FB63680C495B68C8
:1027B00006460B22284605F033F96368324669461F
:1027C00028465B6805F02CF9636806495B681B22A4
:1027D000284605F025F902B070BD00BF74970000CF
:1027E0006F91000053910000074A0021012390429D
:1027F00006D8064A01B901231360054B18607047DB
:1028000040085B000121F2E740420F0090090020E0
:1028100094090020014B01221A7070473A120020DF
:10282000014B002019607047AC090020024B03489F
:1028300001221A7005F008B93B120020B08900008F
:102840000148FFF7A5BF00BFB089000010B5064BD7
:1028500018680C46FFF742FB21460346BDE81040CE
:1028600002480F22184700BFAC090020B0890000C1
:1028700010B9074B18707047064B1B781BB141F21B
:10288000883005F054BEA420002103F0B1BD00BF84
:102890003A1200203B1200202DE9F843DFF8749033
:1028A0001D4F80460E46042499F8005095B902F059
:1028B000A3FE28463246414602F04CFE054602F091
:1028C000A5FEE5B101233B7099F8003073B930469D
:1028D000BDE8F88332464146002002F03BFE054643
:1028E000EFE72046FFF7C4FF651E2C46002002F0EC
:1028F00079FE0028EBD03B78002BF2D1E7E73B785C
:10290000002BE4D0013C2046FFF7B2FF3B78002BC0
:10291000CAD1DCE73B1200203A120020014B002014
:1029200019607047C4090020024B034801221A7045
:1029300005F08AB84D120020DC8900000148FFF73D
:1029400027BF00BFDC89000010B5064B18680C4695
:10295000FFF7C4FA21460346BDE8104002480F22A3
:10296000184700BFC4090020DC890000F8B5074FF4
:102970000D4604464618B44201D12846F8BD14F865
:10298000011BBB6801485B689847F4E7B486000008
:102990002DE9F84305464FF02003EFF3118683F34A
:1029A0001288BFF36F8F0E4B0E4F1C68DFF8388014
:1029B0004FF00C092CB986F31188BFF36F8FBDE877
:1029C000F883D4E90123002D18BF13462BB198F8E2
:1029D000102009FB02F2B85C98472468EAE700BFC0
:1029E000E0090020D40900200009002070B5194B2F
:1029F0001C7CBFF35B8F04F01F0301229A40164B2F
:102A0000610903EB8103D04353E8001F01EA00058D
:102A100043E80056002EF7D1BFF35B8F0A4213D074
:102A20000E4B0F4D8BB10C236343EA18E85C5178D1
:102A300005F0A1F80020FFF7ABFF0C235C432A1937
:102A400000232B51C2E9013370BD83F31188BFF31A
:102A50006F8FEFE700090020E8090020777B000076
:102A6000D40900202DE9F041354B07461D7C4FF07D
:102A70002003EFF3118883F31288BFF36F8F0C24C8
:102A8000304B314E6C431A19195D00294CD007CADE
:102A900006EB040C8CE8070000221A5588F3118815
:102AA000BFF36F8F0C236B43F218F05C002839D012
:102AB0007B1C10D0D2F808C0244C254A4FF40040AB
:102AC0000021ECFB004100232046FDF719FB01210A
:102AD000381A01F057FF03F0D1FB0120FFF758FF30
:102AE000BFF35B8F1B4B6A0903EB820305F01F01E9
:102AF00001228A4053E8000F104343E800010029F7
:102B0000F8D1BFF35B8F144B3BB10C2303FB05F0F3
:102B10003318305C597805F022F8FFF767FF03F0AF
:102B2000C1FB0120BDE8F0810146284600F016F8FF
:102B30000028B3D007C8344484E80700AEE700BFDC
:102B400000090020C8090020D40900203F420F00DE
:102B500040420F00E80900205F7B00002DE9F04FA4
:102B600085B00E4603A900F043F81E4B039DD3F831
:102B700000A0DFF87480431E1BB203EB430304463E
:102B800005EB83054FF400474FF0000B24B9A14635
:102B9000484605B0BDE8F08F6868144AC4465946F7
:102BA000E0FB07C100236046FDF7AAFA0190A86880
:102BB0000E4AC4465946E0FB07C100236046FDF7B4
:102BC0009FFABAF1FF3FA94601D0824505D9731C8F
:102BD000DED0019B1844B042DAD9013CA4B20C3DCE
:102BE000D4E700BF080000203F420F0040420F0022
:102BF00008B9024B0B600020704700BFEC89000051
:102C0000014803F01BBF00BFEC89000038B5044643
:102C100018B90F4B0F485B6898476168B1F5683F7A
:102C20000FD0B1F5680F0CD00B4DA94209D011F4AB
:102C3000686107D00948214605F07FFA0023236028
:102C4000656038BD2068142204F070FFF8E700BF0B
:102C5000D4000020C89100002C5F5CA9EC0E00207D
:102C600008B520B34368B3F5683F10D1012203686B
:102C7000BFF35B8F53E8001F002903D143E8002016
:102C80000028F7D1BFF35B8F0DD1002008BD094AA2
:102C900093420AD000684FF0FF324FF0FF3302F04A
:102CA000AFFF0028F1D00448F0E70448EEE76FF4E6
:102CB000E040EBE72C5F5CA9E98FFFFFEA8FFFFFA5
:102CC00008B5D8B14368B3F5683F10D10022036856
:102CD000BFF35B8F53E8001F012903D143E80020B5
:102CE0000028F7D1BFF35B8F0BD1002008BD074A46
:102CF000934208D0006802F0FDFFF6E76FF4E04071
:102D0000F4E70348F2E70348F0E700BF2C5F5CA953
:102D1000E98FFFFFEA8FFFFF10B5044618B91D4B7E
:102D20001D485B6898476368B3F5683F2FD0B3F5DB
:102D3000680F2CD0194A934219D1236803BB184855
:102D40004FF0FF324FF0FF33214602F0FBFD08B990
:102D500023681BB90F4B13485B68984720681422FF
:102D6000002104F0E3FE4FF46863636008E0B3F50C
:102D7000683F0DD83A2B03D040F6BA629342DED1B9
:102D8000206805F020FA636843F03A03636010BDE1
:102D9000054AF3E7D4000020C89100002C5F5CA92D
:102DA000EC0E0020EE9100003A00003A08B506490A
:102DB00006484023142205F0B2F9BDE80840044952
:102DC000044803F0ADBE00BFEC090020EC0E00206B
:102DD000F4890000088A0000014910220A60704747
:102DE00010ED00E072B6404080F31188BFF36F8FA2
:102DF000BFF34F8F30BF62B6BFF36F8F704700BF16
:102E000072B6494081F31188BFF34F8F20BF80F322
:102E1000118862B6704700BF2DE9F047814600AFC8
:102E20000C4600294CD06E468AB0D1E90012A36846
:102E30006D462748A8464FF0050AC5E90501C5E9D2
:102E4000072348F810AF2348424600234FF421518E
:102E5000FFF72CFAB546D4E903126369AD461E4864
:102E6000C5F810A0C5E90501C5E9072319480023E5
:102E700042464FF42151FFF719FAB54688B0E3698D
:102E80006D46164AA8464FF0030AC5E9052348F8DF
:102E900010AF1048002342464FF4C251FFF706FA24
:102EA000B546A369AD460E4AC5F810A0C5E905238D
:102EB0000848002342464FF4C251FFF7F7F9B546E0
:102EC0002146484602F0A8FBBD46BDE8F08700BF9A
:102ED0001B920000BC8800004A920000799200001A
:102EE0008892000040B2002807DB044A4109012310
:102EF00000F01F00834042F82130704700E100E0FD
:102F000040B200280CDB4309064900F01F002033C3
:102F10000122824041F82320BFF34F8FBFF36F8F10
:102F2000704700BF00E100E0054B420900F01F00C0
:102F300053F82220012303FA00F01040704700BF2D
:102F400000E100E040B20028A8BF00F1604001F1BC
:102F50000101B8BF064B4FEA4111ACBF00F561401B
:102F600000F00F00C9B2B4BF195480F800137047C5
:102F700014ED00E030BFFFF7FDBF00BF0B4A08B5FE
:102F80000B4B22F07F029A60BFF34F8FBFF36F8F1E
:102F9000D3F8882022F47002C3F8882002F0F8FBEE
:102FA00003F0AAFA00F0EAFB02F038FC000000008F
:102FB00000ED00E00A4A0B4993680968C3F89C10C9
:102FC0000949C3F898004B6843F080534B600023D5
:102FD00083F31188BFF36F8F9368D3F89C00704719
:102FE00000090020108B000000ED00E001B505F0A5
:102FF000D9F8BDE8014016498A684FF040001044F6
:10300000EFF3098C80E8F01F202080F31288BFF3D3
:103010006F8F104F4FF00066CA6A8A603E60D2F828
:1030200098000023C2F8983080F3118804B5104648
:1030300000F048FCBDE8044002F1400090E8F01FB9
:103040008CF3098801B502F0B9FDBDE80140704775
:103050000009002004ED00E01EF0040F0CBFEFF3A8
:103060000880EFF30980816911F8021C0229FFD062
:1030700001B504F024FD01BD42F8203C009B42F85C
:103080001C3C0A49019B42F8183C029B42F8143C44
:1030900021F001014FF0807342F8043C42F8081C13
:1030A0000023203A0266C0F898307047A76E0000EF
:1030B0000A4A0346906878B113F1160FD0F88800D9
:1030C00005D0A0F140029A4205D8834203D2814242
:1030D00028BF002070470020704700BF0009002073
:1030E00008B50B4B044698600E46154602F066FD87
:1030F000204600F0E7FB284686F30988002163B6E6
:1031000081F31188BFF36F8F0022002303F0CBFE01
:103110000009002001B572B60B4A906A00281EBF54
:103120000021916205F040F862B6EFF30580A0F14E
:1031300010004FEAC0000549014409C99847BDE89D
:10314000014003490847000000090020CC86000028
:1031500055310000044B9968D86A884203D003496E
:103160004FF080520A6070470009002004ED00E033
:103170002DE9F04186B0064600AF0D46474B7B6116
:1031800002244FF4825146483C6107F1100204F0DA
:10319000A5FC444B9B6AD9046DD5434B4048C7E915
:1031A000044307F110024FF4825104F097FC1720FA
:1031B0003C4B9B6A1A050BD53C4B7B61022338487C
:1031C0003B6107F110024FF4825104F087FC182094
:1031D000344CA36A9B0523D5E846354B7B6102231B
:1031E0002F483B6107F110024FF4825104F076FC46
:1031F000A36BA26A100412D588B06A462D492848EC
:10320000C2E90513032342F8103F4FF4C25104F002
:1032100065FCC5461EB1A36A23F40043A3621920CE
:10322000204B9B6A59050BD5234B7B6102231C481D
:103230003B6107F110024FF4825104F04FFC1A2059
:10324000184B9A6AD20518D51C4B7B61022314488F
:103250003B6107F110024FF4825104F03FFC1B2048
:10326000104A936A43F47F439362183700232B700C
:10327000BD46BDE8F08116209AE79B6A9B04EFD516
:103280000F4B7B61022306483B6107F110024FF4AC
:10329000825104F023FC1C20E2E700BFB69200003C
:1032A000BC88000000ED00E0CC920000DD92000040
:1032B000F0920000099300001E9300003993000073
:1032C0005193000010B586B0364B3748059304AAD9
:1032D00002244FF48251049404F000FC334B9B6AA7
:1032E0009A015DD5324B304804AA4FF48251CDE9A2
:1032F000044304F0F3FB1E202C4B9B6ADB010AD530
:103300002C4B2948059304AA02234FF482510493BD
:1033100004F0E4FB1F20254B9B6A1C030AD5264BB7
:103320002148059304AA02234FF48251049304F028
:10333000D5FB21201D4B9B6A59030AD51F4B1A4808
:10334000059304AA02234FF48251049304F0C6FBB0
:103350002220164B9B6A9A030AD5194B12480593F3
:1033600004AA02234FF48251049304F0B7FB2320F4
:103370000E4B9B6ADB030AD5124B0B48059304AA3C
:1033800002234FF48251049304F0A8FB2420074A3F
:10339000936A6FEA03436FEA1343936206B010BD6A
:1033A0001D20A9E780930000BC88000000ED00E02C
:1033B00098930000AB930000C5930000E3930000D6
:1033C00008940000229400002DE9F04786B0814661
:1033D00000AF8A469046514B7B61022450483C61C5
:1033E00007F110024FF4825104F078FB4D4B9B6AB9
:1033F000DE0645D54C4B4A48C7E9044307F11002A5
:103400004FF48251112404F069FB464B9B6A1D075F
:103410000BD5464B7B61022341483B6107F110020B
:103420004FF48251122404F059FB3E4DAB6A9807C9
:1034300028D56C463E4B7B6102233B614FF48251A1
:10344000374807F1100204F049FB6E6BAB6A1906AE
:1034500060D588B06A46374B3148C2E90536032348
:1034600042F8103F4FF4C25104F038FBA546BAF1C0
:10347000000F03D0AB6A23F08003AB62132403E098
:103480001024C2E76FF01506264B9B6ADA070BD5AE
:10349000294B7B61022322483B6107F110024FF464
:1034A0008251142404F01AFB1E4B9B6A9B060BD519
:1034B000224B7B6102231A483B6107F110024FF453
:1034C0008251152404F00AFB164B9A6AD50602D4E1
:1034D0009A6A90070AD55B68190507D549463046B0
:1034E000FFF7E6FD10B180F3098802240D4B9A6ABC
:1034F000920642BF5A6A22F400525A629A6A42F015
:10350000FF029A6220460023183788F80030BD4633
:10351000BDE8F0876FF01506B0E700BF4D940000DE
:10352000BC88000000ED00E063940000DD92000024
:1035300096940000AE940000C494000051930000E3
:103540002DE9F043774B8BB0D3F8048000AF0546EC
:10355000C8F30804002686F31188BFF36F8F02F0CA
:103560007F43B3F17F4F0ED102F00C03082B19D12A
:103570006D4BFB6102236D48BB6107F118024FF4EC
:10358000825104F0ABFA002635460023FB71E31E9E
:10359000092B00F2A680DFE803F00A999C95A4A409
:1035A000A4A4A49F10074CBF0D460126EDE7E946F1
:1035B0005F4BFB614FF0020807F118025B48C7F848
:1035C00018804FF4825104F089FA0023554CFB71A6
:1035D000E36A9A070BD5574BC7E90683534807F1AF
:1035E00018024FF4825104F079FA002441E0E36AB2
:1035F000002B01DA504BEFE7E36A5B00F5D54F4B48
:103600004A48C7E9068307F118024FF4825104F0D3
:1036100065FA6369AA6943F480736361BFF34F8FEE
:10362000BFF36F8F636932F8022C23F480736361F8
:10363000BFF34F8FBFF36F8F4DF602739A4208D0DE
:10364000A36ADBB28BB3FA1D01212846FFF7BCFE4B
:103650003AE088B02B686A4639493448C2E9051314
:10366000032342F8103F4FF4C25104F037FA2C689C
:10367000CD46FB79ABB92022294607F1080004F0BA
:103680004AFA7B6A002E47D0C3F3080222B96FEAD8
:1036900053236FEA43237B6207F108012046FFF7BB
:1036A000BBFB2C37BD46BDE8F083A36A13F47F4F04
:1036B00004D0F91D0120FFF75BFD05E0A36AB3F517
:1036C000803F92D3FFF7FEFD0446D2E7FA1D0021AA
:1036D000BBE7F91D0020EEE71A4BFB610223BB613B
:1036E0007CE7194A194B18F4F87FE8468AB018BFEE
:1036F00013466A4616490D48C2E905134FF4007394
:103700001384103C134BD4614FF4115142F8103F15
:1037100004F0E4F9C54668E723F4FF7323F00103DE
:10372000B9E700BF00ED00E011950000BC88000083
:103730003C950000539500007495000082950000B0
:10374000A1950000BD950000F8940000E3940000EE
:10375000E195000004000001024A536943F01003A0
:103760005361704700ED00E0EFF30880EFF309814B
:1037700001B57246FFF7E4FE01BD00BF0448002317
:103780002021C2180133302B82F80013F9D1704781
:1037900000E100E0002080F31488BFF36F8FFEF794
:1037A000EDFA002011490860BFF34F8F104880F3F5
:1037B000088800F033F8202080F311880D484FF07E
:1037C000AA014FF4046204F014FC0A484FF40461A7
:1037D000401880F30988EFF314800221084380F336
:1037E0001488BFF36F8FFFF7C9FB000094ED00E072
:1037F00080270020C01900200749D1F8902000231D
:10380000C2F307221846934200DB7047C1F8983094
:10381000C1F8A0000133F6E700ED00E008B572B68C
:10382000002383F31388FFF7E7FF144B4FF0FF32B9
:10383000C3F88020C3F88420C3F88820C3F88C2004
:10384000C3F89020C3F89420C3F89820C3F89C20B4
:10385000C3F88021C3F88421C3F88821C3F88C21E0
:10386000C3F89021C3F89421C3F89821C3F89C2190
:1038700062B6BFF34F8FBFF36F8F08BD00E100E06A
:10388000084B9B6883420BD1EFF3058343B1064B92
:103890005A6842F080525A605A6A22F400425A62D0
:1038A00002F0C6BD0009002000ED00E0024B034A13
:1038B0000348012100F094B800000420000000201B
:1038C000188A0000D0F88820054B403A1A60054A53
:1038D0004021C3E901121846012100F08BB800BF56
:1038E000080F002000000B152DE9F041DFF8B4E0CF
:1038F0009C4600AF154600238B421ADA4468002C20
:103900004DD0BCF1000F1DD0661E344215D06C4660
:1039100088B06A462449C2E90513032342F8103FE0
:10392000224800234FF4C251FEF7C0FC6FF015058A
:10393000A5462846BD46BDE8F0811F2CE7D90268A0
:103940001642E4D1202C026886685FFA85F814D903
:10395000B4F1004F13D8013CB4FA84F4C4F11F044D
:103960006400B8F1070F46EA04060AD96C4688B02D
:103970006A460F4BC2E90535CFE70824F1E73E243C
:10398000EFE722F01F022A4342F0100246F0010640
:10399000CEF89850CEF89C200135CEF8A0600133C7
:1039A0000C30A9E700ED00E0F8950000B4880000B5
:1039B0001B960000044B0522C3F89420BFF34F8FE1
:1039C000BFF36F8F704700BF00ED00E0BFF35F8F64
:1039D000024B0022C3F89420704700BF00ED00E0C6
:1039E00010B5034C01232278FFF77EFF207010BD35
:1039F0004E12002008B5094A00231278FFF774FF21
:103A000010F1160F03D0064B0022072800DD08BD79
:103A1000C3F89800C3F8A0200130F6E74E1200204A
:103A200000ED00E014490868082810B521D8FFF718
:103A3000CDFF124C49680022904201F10C0105D1E2
:103A40000F4B1870FFF7B6FF002010BDC4F8982088
:103A500051F80C3C23F01F03134343F01003C4F848
:103A60009C3051F8043C43F00103C4F8A03001320B
:103A7000E2E74FF0FF30E8E7248A000000ED00E0C5
:103A80004E120020014B1860704700BF2C00002030
:103A90000CB410B586B009B90DF10B000024CDE9C6
:103AA000040109AB089A009404A905480393FDF7A3
:103AB0009BFD049B1C7006B0BDE8104002B070472F
:103AC000457B000010B54FF02003EFF3118083F326
:103AD0001288BFF36F8F114A0123C2F840354FF0AF
:103AE00080424FF08051C2F87835D1F83041082C2F
:103AF00008D1D1F83411052904D8094C615C09B109
:103B0000C2F838364FF080430122C3F8802580F395
:103B10001188BFF36F8F002010BD00BF00E001408F
:103B2000509600004FF08043C0B2C3F81C05BFF3AD
:103B30004F8F0549054BCA6802F4E0621343CB601E
:103B4000BFF34F8F00BFFDE700ED00E00400FA0572
:103B500020B1034B800143F001031847704700BFB9
:103B600010890000084B70B5C31A0D4607499B1019
:103B7000044659430648402204F01FF82B460146EC
:103B80002046BDE870401847280F0020B76DDBB60F
:103B90006C86000073B50C4C0C4A4023041B009348
:103BA0000D460B460A49A41061430646094804F035
:103BB00030F8011E05DA30462B4602B0BDE87040F1
:103BC000184702B070BD00BF280F00207D7C0000A8
:103BD000B76DDBB66C860000002270B5012104468B
:103BE0001046FFF7AFF90F4801F0D2F80E4B98429C
:103BF00015D104F048F926690C49304603F072FBF0
:103C000000280BDB012535642469084904F11C00F8
:103C100003F068FB002801DBE564002070BD6FF055
:103C20000400FBE7653C00000000AD0B448A000087
:103C300070B501460C2309484B43C418D4E90E560D
:103C4000403300221844A26303F0A4FF2DB1324692
:103C50002B460348BDE87040184770BD280F002070
:103C60006C86000010B1012804D07047034B1B6C18
:103C70005B0701D1FFF7DCBF704700BF280F0020B2
:103C800008B54FF02003EFF3118183F31288BFF3DF
:103C90006F8F124A136843F002001060DA0708D4ED
:103CA00081F31188BFF36F8F0120BDE8084004F055
:103CB000F7B84FF08043D3F80C24D3F80C34D30773
:103CC000EED5074803F066FF81F31188BFF36F8FCD
:103CD0000020BDE80840FFF7ABBF00BF780F002011
:103CE000680F00201FB500220123CDE90223094AF5
:103CF000CDF800D06B46CDF804D003F0B8FF002813
:103D000005DB4FF480420023684602F087F805B0D7
:103D10005DF804FB9B7C000010B54FF02003EFF32F
:103D2000118483F31288BFF36F8F074A136823F05F
:103D30000201DB07116002D4012004F0EDF884F3E6
:103D40001188BFF36F8F10BD780F00202DE9F0416F
:103D50003849BFF35B8F0746012251E8003F41E835
:103D600000200028F9D1BFF35B8F33B932493348C3
:103D70004B60CB608A6003F0C8FA7B1E012B2BD806
:103D8000012F07D14FF08043D3F81C3403F0030315
:103D9000012B21D004F0FBF90546F8B9284B1B781C
:103DA000E3B14FF080430222C3F808230646DFF850
:103DB00094804FF08044D4F81834D4F81824D203F7
:103DC00016D503F00303012B01D0012F10D15DB3F1
:103DD00086F31188BFF36F8FBDE8F0814FF02003A9
:103DE000EFF3118683F31288BFF36F8F0125DEE7AF
:103DF000ADB13046FFF704F8D4F81835002BDAD10E
:103E0000D4F80421002AD6D0C4F80431D4F80431FF
:103E10000123C4F81835C8F88031A360CBE700212E
:103E2000212002F0E5FAE7E74FF080430222C3F8D1
:103E30000423D1E7240F0020140F0020440F00209A
:103E40006116002000E100E008B5074804F0C6F85C
:103E500038B10648FFF716FE0448FDF79BFA00202C
:103E600008BD6FF01200FBE7B4860000713E000051
:103E70000A2838B5074D044604D1AB680D215B68AC
:103E800028469847AB6803485B68E1B298472046EC
:103E900038BD00BFB486000030B54068057B01F036
:103EA0001F04B2F5001F85B044EA451405D1204631
:103EB00001F0F0F9002005B030BD0025B2F5800F0B
:103EC000CDE9025514D1B3F1007F0CBF04230523C3
:103ED0008DF808300023194602AA204601F018F890
:103EE0001F4B984239D10121204601F08BF9E1E7BF
:103EF000B3F1C06F26D0B3F1007F14BF01230223BA
:103F00008DF808308368CB40D907E3D4B2F1A07FA5
:103F1000E0D16209012A04F01F03124A03F5E0739D
:103F200018BF4FF0A04252F82330DB07D2D40DF176
:103F300007052946204601F011F90B4B984203D0A2
:103F40000395C7E70323DBE7284601F055F9044B47
:103F50009842F5D06FF00B00ADE76FF01500AAE7BF
:103F60000000AD0B000300500400AD0B10B501F0D4
:103F700033F9044668B901F007F9084B98420AD1B1
:103F80000748214601F0E4F8224605210620FEF705
:103F9000D9FF002010BD6FF00400FBE70000AD0B5F
:103FA000A53F0000420970B5034602D0012A17D090
:103FB00070BD0D4E326951680029F9D003F01F031E
:103FC00001250C689D400029F2D08A682A4002D061
:103FD0004B68304698472CB1236821461C46F2E7CF
:103FE000024EE7E72346F8E79C860000848600003F
:103FF0002DE9FF4147683B7B01F01F0545EA43156A
:104000000E4628460DF10301144601F0A7F814F4FA
:10401000403F80460BD1284601F064F93D4B98455E
:1040200003D19DF8030001F0E1F800200CE000232B
:10403000194602AA2846CDE9023300F069FF354B44
:10404000984204D06FF0150004B0BDE8F0818045BF
:1040500003D19DF8030001F0C9F8A3034BD540F24A
:1040600006332340B3F5837F19D00CD8062B17D025
:1040700004D8ABB1022BE5D1042311E0B3F5807F66
:10408000E0D101230CE040F20222934227D0B3F5A5
:10409000407F26D0B3F5007FD4D1022300E0072370
:1040A0008DF8043084F48033C3F30043E0068DF8C8
:1040B000053054BFC4F34013032321038DF80630A9
:1040C00011D57A680123B340C2F80835002201A94E
:1040D000284600F0CBFF0F4B9842A6D0B2E705234D
:1040E000DEE70323DCE7620341BF01237A68B340C4
:1040F000C2F80C35EAE7E3064FF0000354BFC4F3FF
:10410000401403241A4601A928468DF8044000F003
:10411000FFFEE0E70000AD0B2DE9F0415A4E00EB49
:1041200081010127814202D10020BDE8F0810468AD
:1041300004F07F03C4F343257F2B4FEA144408BFE8
:104140004FF0FF33222C00F29B80DFE804F01224B2
:1041500029442C404499999999477099999999992A
:1041600099999999737B7E81999999848A8D909375
:104170009600C2F80C354FEA531CBCF1010F03F056
:104180001F0414BF4FF0A04CB44607FA04F4CCF857
:104190000845012402E0C2F814350024A64624E0B4
:1041A000C2F80835E7E7C2F8083500244FEA531E85
:1041B000BEF1010F14BF4FF0A04EB64603F01F0C26
:1041C00007FA0CFCCEF80CC54FF0010E0DE0C2F85A
:1041D0000C350124EAE7C2F81035DEE7C2F80835ED
:1041E000002DDAD10024A646062550F804CB0CF4A5
:1041F0000058B8F1000F4FEA0525CCF3C11803F0C1
:104200001F0C4FEA53131CBF01244FF0000E45EA68
:104210008805012B0CBF33464FF0A04345EA0E053D
:104220000CF5E07C45EA440543F82C507AE7C2F8E7
:104230000C35D5E7C2F860350468C4F38034002C2F
:10424000C7D098E7C2F86435F6E7C2F86835F3E7F7
:10425000C2F86C35F0E7C2F8243501244FF0000EA7
:10426000C3E7C2F8283586E7C2F83035F5E7C2F86B
:104270003435F2E7C2F83835EFE7C2F83C35ECE701
:104280006FF0850051E700BF00030050F0B54B7997
:10429000012B26D0032B21D110258B79032B1DD187
:1042A000CE790EB1012E19D10A7912B1022A15D197
:1042B0000E220B684468B3F5164F276867D02DD8D7
:1042C000B3F5165F66D016D8B3F5966F64D00AD8EA
:1042D000B3F5967F63D0B3F5167F63D06FF085009A
:1042E00054E00025D9E7B3F5166F5ED0B3F5965FBD
:1042F000F4D1384B3CE0B3F5E14F59D007D8B3F5D2
:10430000615F57D0B3F5964FE8D1334B30E047F6B5
:104310001224A342E2D14FF4000329E0B3F5613F38
:104320004AD013D8B3F5963F49D009D84DF6C024EA
:10433000A34246D0B3F5614FD0D14FF46B0317E0E1
:10434000B3F5E13FCAD14FF0EB7311E0B3F5612F44
:104350003AD008D8214CA34239D0B3F5E12FBDD1D2
:104360004FF0E86304E01E4CA342B7D14FF08053F6
:104370000469C7F82435436835431B682A43C3F8EA
:104380006C2503C9231D83E803000020F0BD4FF412
:104390001D03EDE7134BEBE74FF49E23E8E74FF4E3
:1043A000A033E5E74FF41C33E2E74FF41D23DFE7CA
:1043B0000D4BDDE70D4BDBE74FF06C73D8E70C4B93
:1043C000D6E74FF46503D3E74FF07063D0E74FF0C3
:1043D0008063CDE700B0130000A04E0090D0030032
:1043E00040420F000050270000C0750000F03A0066
:1043F00000903A012DE9F043002287B08046012168
:104400000220FEF79FFD0220FEF76CFDD8F8047035
:10441000D8F810603C680021C4F80015C6F8008088
:10442000D7F80C906A46484603F08FFC051E25DB42
:10443000009BD9F8002019791868FFF76DFE051E5A
:104440001CDB311D4046FFF721FF0546B0B97B68F4
:1044500099072BD506F1180001F046F8274B984232
:1044600010D0274B05930223049326482B4604AA19
:104470004FF482516FF00405FDF718FF284607B08E
:10448000BDE8F083337EDB0003F1804303F5F833AE
:1044900004F10C0204F59071C3F81015C3F814254B
:1044A000327E01239340184AC2F804350823C4F829
:1044B00000353B7A53B9C4F81031D4F81031736920
:1044C000C4F834350123C4F8383523607B689A0773
:1044D0005CBF4FF48073C4F804337B68DB0644BFD1
:1044E0004FF48003C4F804333369C4F8443500231F
:1044F000C4F848350123A360E360BFE70000AD0BBB
:104500009F960000DC88000000F00140F8B50446EA
:1045100007690D4603F03BFEB0B92E4B1B789BB1EB
:104520006426606803F047FC00BB012003F0A9FC8F
:10453000013EF6D10021212001F05AFFF0E786F379
:104540001188BFF36F8FF5E74FF02003EFF311866B
:1045500083F31288BFF36F8F6068314603F02BFC42
:1045600090B986F31188BFF36F8FEDE74FF020030A
:10457000EFF3118683F31288BFF36F8F60683146C3
:1045800003F019FC0028DAD03B691D7062683869B5
:104590001368C3F844050120C3F848050020C3F898
:1045A0002001D3F82051C3F858015268D3F85801BC
:1045B000D20608D5626812680820C2F800054FF4D8
:1045C0008002C3F8042301229A6081F31188BFF3AB
:1045D0006F8FF8BD6116002070B5012383400E4A2D
:1045E000BFF35B8FDC4352E8001F01EA040542E899
:1045F0000056002EF7D1BFF35B8F4FF4803282401C
:104600000648C0F80823BFF35F8FBFF36F8F0B42DC
:1046100014BF0120002070BD980F00200010014041
:1046200070B40E49D1E90034D01AC31844F1000423
:1046300022F07F46C1E90034A6F50013B3F5400F20
:1046400009D2074B1B681A0A1B069C19054B42F13D
:104650000005C3E9004570BC02F024B8B007002093
:104660009C0F0020B807002011B3BFF35B8F01231C
:10467000104A834052E800CF4CEA030C42E800C1E4
:104680000029F7D1BFF35B8F0B4A4FF4803383408F
:10469000C2F80433094BBFF35B8F1B68BFF35B8F1A
:1046A000C340DB0742BF064B4FF40032C3F8002182
:1046B000704700BF980F002000100140940F0020A9
:1046C00000E100E00D4B1868010A0006BFF35F8FA0
:1046D0000B4BD3F80435181841F10001B3F5801FD6
:1046E0000AD2084BD3E90023904271EB030303D2B3
:1046F00010F1807041F10001704700BF9C0F002055
:1047000000100140B80700202DE9F74F16461F465C
:104710000446FFF761FF0090FFF7D4FFB04271EB52
:10472000070351D23A4B301A67EB0101984271F1FD
:1047300000016AD2374B03EB0413D3E902239F42F3
:1047400008BF96424ED034494FF4803904F15005E9
:1047500009FA04F9AD00C1F848932046ADB203F060
:1047600074FB26F07F4B05F1804504F5A8732B4AB6
:10477000019305F58835DC464FF0030A019B2CF0C8
:104780007F4041F82300C1F84493D1F804856FF0CD
:104790000200A0EB0800604420F07F40904221D945
:1047A000286860B1D1F80485A8EB0B0020F07F40A9
:1047B000B0F5000F16D9204603F047FB174A0AEB65
:1047C000080C0AF1010AD9E70123154ABFF35B8FF0
:1047D000A34052E8000F184342E800010029F8D135
:1047E000BFF35B8F0B490C98230101EB0412C2E964
:1047F0000267C8500D9B5360002520460099FFF7C3
:1048000033FF284603B0BDE8F08F6FF01505F4E7DD
:1048100001008000A007002000100140FDFF7F0084
:10482000940F002073B51B4C1B4BC4F80833C4F81D
:1048300048331A4B00254FF0FF304FF0FF31C4F8DA
:104840000855C3E902014FF48033C4F80433144B14
:1048500002264FF400320121C4F804631120C3F88A
:1048600080212A46FEF76EFB1120FEF73BFB0D4A26
:104870000123A360236013600B4B0C4A0093019546
:1048800000232846FFF740FF3046FFF75FFA28462F
:1048900002B070BD0010014003000F00A00700200F
:1048A00000E100E0980F002021460000FFFF7F009C
:1048B0002DE9F7432F4CD4F8043399070BD5D4F8DE
:1048C000043143B12C4A0023C4F80431D4F8043134
:1048D000136801331360D4F80433DA032AD5BFF325
:1048E0005B8F264B53E8002F22F0010143E80010B4
:1048F0000028F7D1BFF35B8FD30702D4D4F840313F
:10490000C3B10025C4F84051D4F84031FFF7DAFEB6
:104910004FF02003EFF3118283F31288BFF36F8F00
:10492000174BD3E90267B042B94106D282F311882E
:10493000BFF36F8F03B0BDE8F0834FF0FF384FF047
:10494000FF39C3E90289D3E900101D604FF48033B9
:10495000C4F84833C4F84051D4F8403182F3118888
:10496000BFF36F8F0029E5D0009032463B462846C2
:104970008847DFE7001001409C0F0020940F0020C3
:10498000A0070020431C13B522D0012822DD124AC3
:10499000124B9042D4BF04461C46FFF793FE104BC7
:1049A0000E49D3E90023801AB0F5000F28BF002478
:1049B00004448C4228BF0C46A2180A4900914FF0CB
:1049C0000000019043F10003FFF79EFE02B010BD0E
:1049D000024CE2E70124E0E7FEFF7F00FFFF7F00DB
:1049E000B00700202146000008B5FFF76BFE024B20
:1049F0001B68C01A08BD00BFB007002010B5084CE6
:104A0000012363601120FEF77BFA064BC4F80833DC
:104A1000C4F84833044B4FF40032C3F8802110BD72
:104A20000010014003000F0000E100E07FB5FDF73A
:104A30005DFB074B0593022304930648002304AA59
:104A40004FF48251FDF732FC0020FFF76BF800BFF6
:104A5000DC9600008C8800004FF08053D3F83021A2
:104A6000082A06D1D3F83431052B02D8024AD05C8B
:104A700070470020704700BFFF960000024AD2F83E
:104A80000034002BFBD0704700E0014010B54FF020
:104A90008053D3F83021082A4ED14FF080420021B4
:104AA000C2F80C11C2F81011C2F8381502F54042D4
:104AB000D3F80414C2F82015D3F80814C2F824154A
:104AC000D3F80C14C2F82815D3F81014C2F82C151A
:104AD000D3F81414C2F83015D3F81814C2F83415EA
:104AE000D3F81C14C2F84015D3F82014C2F84415AA
:104AF000D3F82414C2F84815D3F82814C2F84C157A
:104B0000D3F82C14C2F85015D3F83014C2F8541549
:104B1000D3F83414C2F86015D3F83814C2F8641509
:104B2000D3F83C14C2F86815D3F84014C2F86C15D9
:104B3000D3F84434C2F87035FFF78EFF18B13A4B02
:104B40003A4AC3F88C26FFF787FF18B1384BFB228F
:104B5000C3F81825FFF780FF70B14FF080414FF088
:104B60008053D1F8E42ED3F8583222F00F0203F02C
:104B70000F031343C1F8E43EFFF76EFF20B12D4B46
:104B80004FF40072C3F840264FF08053D3F8303111
:104B9000082B1AD14FF08043D3F80024D20744BF2A
:104BA0006FF00102C3F800244FF08053D3F8343182
:104BB000052B02D8204AD35C3BB14FF01023D3F829
:104BC00008224FF08043C3F858254FF01023D3F844
:104BD0000022002A03DBD3F80432002B22DA174923
:104BE00001234FF01020C1F804351224FFF746FFCF
:104BF000C0F80042FFF742FFC0F80442FFF73EFF53
:104C00000023C1F80435FFF739FFBFF34F8F0C497C
:104C10000C4BCA6802F4E0621343CB60BFF34F8FC2
:104C200000BFFDE710BD00BF0050004048810300F9
:104C300000F0004000900240F996000000E00140C2
:104C400000ED00E00400FA0570B501250268BFF32D
:104C50005B8FB2FA82F3C3F11F03DBB205FA03F4F0
:104C600022EA040450E8006F964204D140E8004C68
:104C7000BCF1000FF6D1BFF35B8FE7D101480B7099
:104C800070BD00BF0000AD0B10B50368CB40DB0763
:104C900014D401238B400268BFF35B8F43EA020107
:104CA00050E8004F944204D140E8001CBCF1000FD2
:104CB000F6D1BFF35B8FEED1014810BD0148FCE790
:104CC0000000AD0B0400AD0BF7B5044618B1012888
:104CD00022D003B0F0BD4FF080430222C3F8082376
:104CE000C3F80401D3F804210122DA600746012346
:104CF0008DF8073042F210754FF08046CCB1012C90
:104D0000E7D1C7B3D6F80C3403F001033B70D6F8F3
:104D10000C34DA0321D516E04FF080430022C3F8AB
:104D20000803C3F80021D3F8002158600DF10707EC
:104D3000DDE7B7B1D6F8183403F003033B60D6F8CB
:104D40001834D803C5D59DF80700012803D103F016
:104D500098F8013DD2D1012CBBD10C4B00225A71E5
:104D6000B7E7D6F81834D903B3D5012003F089F892
:104D7000013DF6D1ADE7D6F80C34DB03EDD50120CB
:104D800003F07FF8013DF6D1E7E700BFA00F002058
:104D9000044B1A7922B9012218609A8002487047A0
:104DA00002487047A00F00200000AD0B0C00AD0BB7
:104DB00010B54FF08043D3F800216AB10022C3F848
:104DC0000021D3F800210122C3F80823114B5879A0
:104DD00010B95A711B6898474FF08043D3F80421EB
:104DE00072B10022C3F80421D3F80421D3F81824A7
:104DF000D3F81814920704D10122C3F818259A6039
:104E000010BD0222C3F80823024BBDE810401B6806
:104E100001201847A00F0020036803F01F025B0960
:104E2000012B0260024818BF4FF0A040704700BF3E
:104E300000030050034B083033F81000C0F340105B
:104E4000704700BF4C00002070B500F108030C4C07
:104E500034F81330DA0505460E4607D5C3F343236D
:104E600004EBC30254F8333052689847A3682BB15F
:104E7000E26831462846BDE87040184770BD00BF63
:104E80004C00002010B4124A083032F81030D90516
:104E90001BD5C3F3432123F4F85322F8103002F159
:104EA0000E04002034F8023F13F4807F03D0C3F3D4
:104EB0004323994209D001303028F3D1002342F82E
:104EC0003130044810BCFFF7DFBE10BC704700BF94
:104ED0004C000020C000002038B50246FFF7AAFFB2
:104EE000094C02F1080540B134F8153007495B0B55
:104EF00003F5A273002041F823001046FFF7C2FF1C
:104F0000002324F8153038BD4C000020006000401C
:104F10002DE9FF41044616461D4601B34E4F00F1F0
:104F2000080837F818309B0702D5FFF783FF10BB3E
:104F30000023CDE900338DF80E308DF80F300DF1E0
:104F40000F020B4620460DF10E0102F0E7FF37F885
:104F5000183023F0020343F0010327F8183046B35A
:104F60003D4B96F800C0726804F1080733F817103B
:104F7000880702D5AAB139481DE021F02001C904F3
:104F8000C90C23F8171062B1BCF1030FF3D8726893
:104F90001678BCF1000F11D1314A06F5A27642F81D
:104FA00026C033F8172022F01C0242EA8C0223F8B4
:104FB000172045BB2B4804B0BDE8F081B20002F1D8
:104FC000804202F5C04241EA4631D2F8100520F095
:104FD0000300C2F81005D2F8100520F44F3020F479
:104FE0004070C2F810052002D2F810E500F47C50A1
:104FF00040EA0C4040EA0E0041F0200123F817106F
:10500000C2F81005CDE7D5E900672046FFF73AFF63
:10501000002ECFD0104DD5E90023964201D19F42FA
:1050200018D011480DF10F01FFF70EFE0D4B9842FD
:10503000C1D19DF80F2045F8326005EBC20308345A
:105040005F6035F8143043EA422343F4807325F857
:105050001430AFE70022EEE74C0000200400AD0B57
:10506000006000400000AD0BC0000020F0B5044619
:1050700085B0154619B3334E00F1080736F81720EE
:10508000930703D4FFF7D6FE002858D112F01C0F67
:1050900002D04B78012B52D001238DF80F30002322
:1050A000CDE900134A1C8B1C20460DF10F0102F0C4
:1050B00035FF36F8173043F0030326F8173015B9DB
:1050C000214805B0F0BD1F4E04F1080736F817005F
:1050D000830734D595F800C06146890020F0200090
:1050E00001F18041C00401F5C041C00C26F8170051
:1050F0000023C1F810356A78002AE1D0D1F81035C4
:10510000AD7823F4991323F4F853C1F81035D1F88E
:1051100010E5230203F47C53120402F4403243EA04
:105120000E0313432A0502F4801240EA4C30134365
:1051300040F0200026F81700C1F81035C0E70348FA
:10514000BFE700BF4C0000200000AD0B0400AD0B1A
:10515000014BC3E9020170474C00002008B502462C
:10516000FFF768FE38B1054B0548083233F81230B6
:105170005B0B0B7008BD0348FCE700BF4C00002030
:105180000000AD0B0400AD0B38B50F4C94F878500F
:10519000BDB96022294604F1100002F0C7FC0620C8
:1051A000FDF7A0FE094B0A48C3F87C51D3F87C21D7
:1051B0004FF00042C3F80423012384F8783063677A
:1051C00038BD0448FCE700BF4C00002000600040F0
:1051D0000000AD0B0500AD0B034B93F878000038D1
:1051E00018BF0120704700BF4C0000200146014855
:1051F000FFF74ABDBC00002001460148FFF724BD6F
:10520000BC00002037B50446FFF714FE04F1080285
:105210001E4B33F81230E8B113F002051AD15B0BC4
:105220009A0002F1804000F5C24002F1804202F58E
:10523000C04205600068D2F8100540F00100C2F8D5
:10524000100529B1012202FA03F3114AC2F804330E
:1052500003B030BDC3F38203042B12D0052B12D050
:1052600001A80194FFF7D8FD019BD0F81015D94093
:1052700001F001010231204603B0BDE8304002F0E8
:1052800096BE0321F7E70221F5E700BF4C0000209E
:105290000060004008B50246FFF7CCFDC0B102F146
:1052A00008010E4B33F81130990711D45B0B012222
:1052B0009A409B000A4903F1804303F5C043C1F8BB
:1052C0000823D3F8102522F00302C3F8102508BDE7
:1052D000BDE808400021104602F069BE4C000020E5
:1052E0000060004013B50E4B00F10802044633F88D
:1052F0001230DB0711D5FFF7CDFF2046FFF7ECFD9D
:1053000001A80194FFF788FD019B03F5E0730222D9
:1053100040F82320034802B010BD0348FBE700BF5C
:105320004C0000200000AD0B0400AD0B2DE9F04F48
:10533000684B69486949002687B0012234461D68D8
:1053400035B1D0F8045315421EBF1C601D681643CA
:1053500004338B424FEA4202F1D1DFF87C91D9F855
:105360007C31002B00F099804FF0A043D3F820252A
:105370000492C3F82025D3F820280592C3F82028EA
:105380004FF000080DF1100A4FEA481300934FF058
:10539000010B49E0009B524A94FAA4F4B4FA84F455
:1053A0001C44E00804F10803039432F813701AF85F
:1053B000003004F007020BFA02F223EA02030AF8B3
:1053C000003003A8FFF728FD039B03F5E073B9083D
:1053D00050F82330C7F382054A072F46C3F3014331
:1053E0002CD520463946DDB2FFF72EFD03A80394E5
:1053F000FFF712FD039B03F5E07350F82330C3F36E
:1054000001439D4207D10021204602F0D0FD2946EC
:10541000204602F0CCFD03A80394FFF7FDFC039B9C
:105420000BFA03F3C0F820355AF82840002CB1D10C
:10543000B8F1000F1DD14FF00108A5E7022B0CD1E8
:105440000321204602F0B3FD05F00503012BE2D154
:1054500039462046FFF7F8FCDDE70221204601939C
:1054600002F0A5FD032DF3D0019B032BD3D1022D18
:10547000EDE74FF0A042C9F87C41D9F87C311949D9
:10548000D2F820350493C2F82035D1F820250592B2
:105490001343C1F820257FF473AF012416B907B078
:1054A000BDE8F08F96FAA6F3B3FA83F304FA03F299
:1054B0009B0003F1804303F5C04326EA0206D3F8BC
:1054C0001005D3F81015C0F30520C1F30141FFF713
:1054D000BBFCE3E700610040006000402061004049
:1054E0004C0000200003005001460148FFF7ACBB10
:1054F000C800002010B5114C114A12490323236142
:105500006361114BA261E3614FF480632362002366
:10551000A3626362E36222660C4A6266E01D1022A7
:10552000A2662367E366636702F0DBFA0849204658
:1055300002F0D7FA2023A37110BD00BFA80F0020EE
:10554000259700002E9700006112002051120020C4
:10555000329700002DE9F84F214F4FF0180B1446F9
:105560000BFB00720646936A556AAB42884631D8F7
:10557000D2F820A0AAEB050909F1FF32944211D814
:10558000182306FB03333B4422465868414628440F
:1055900002F0C1FA2C44182303FB067301205C625D
:1055A000BDE8F88F13449C4218D800FB0BBBBB44EA
:1055B0004A46DBF804002C44284402F0ACFAB4EB71
:1055C0000A04E8D0DBF80400224608EB090102F0E7
:1055D000A2FAE0E7013B5B1BA342D1D20020DFE748
:1055E000A80F0020034B182202FB00339A6A586A66
:1055F000801A7047A80F002003484FF0FF324FF089
:10560000FF3300F0FDBA00BFC8010020014800F0E0
:1056100071BB00BFC80100202DE9F04786B00546E8
:1056200000AF0E464FF02003EFF3118883F312888A
:10563000BFF36F8F00F0F6FE042D96BF2C4B2D4B61
:1056400053F82530E9468AB004466A462A49D361B0
:1056500040F2013393844FF0000A284BC2F820A097
:10566000C2E9051542F8103F254853464FF4315121
:10567000FCF71CFECD467EB1F369C3F308035BB1B2
:10568000204B7B6102233B611D48534607F110020A
:105690004FF48251FCF70AFE2CB1204602F080FD47
:1056A00008B1037803B91848E9468AB06A46174B2F
:1056B000D061C2E9053440F201331384144B42F83F
:1056C000103F00230E484FF41151FCF7EFFD314617
:1056D000CD462846FFF7AAF988F31188BFF36F8FEC
:1056E0002046FEF7CDF81837BD46BDE8F08700BF6D
:1056F000148B0000399700004F970000050000014F
:10570000BC8800007797000047970000989700003A
:1057100004000001104B70B553F82040013053F8DD
:105720002060A64200D870BDD4E900358DB128466E
:10573000984738B10028B8BF4042EB68FF28A8BF9F
:10574000FF201870EA68537843F00103537008345F
:10575000E7E79847FBE700BF288B000008B50A4B36
:10576000012203201A70FFF7D5FF01F019F9042078
:10577000FFF7D0FF00F0C6F9FAF73CFE034A137BAF
:1057800023F00103137308BD611600206008002098
:1057900008B50348034A0021121A02F02AFC08BD8A
:1057A0000002002064160020F0B5174E174C18496F
:1057B00087B0A02303FB0066012700230F22CDE959
:1057C0000232CDE904730193282303FB004405460C
:1057D0004FF4C07000FB05110E4B00944FF4A07203
:1057E000304600F0FFF8737B0B4AE66023F00403B9
:1057F00073734FF4046305FB033313442574636030
:1058000084F8207007B0F0BDC00700200009002018
:1058100000220020C95B0000C019002080B50020D4
:10582000AEB0FFF777FF2E4B83F308882D4D2E4E39
:105830006B692E4F43F400736B610024E02385F8FD
:105840002230EC772C766C76AC7685F820406B6A4B
:1058500043F4E0236B6285F82340FDF77DFFFDF7FD
:10586000BBFA4FF0FF33AB62EB62FEF7DBF8FEF7FB
:105870001DF8FCF7A7FB40F20113ADF8243006AB8E
:10588000B360CDE928442B9402F0A7FB0120FFF779
:1058900041FF0220164DFFF73DFF00F01FFD154BA5
:1058A000F5620593012314490094CDE903434FF4B5
:1058B00080623B46CDE90144284600F093F86A7BBC
:1058C000064622F0040228466A7302F04BFD204689
:1058D000FFF76AFF3A4631462846FDF701FC00BF54
:1058E0000022002000ED00E0000900205D570000CC
:1058F00060080020FA9700008023002038B5064C8D
:10590000064DAC4201D3002038BDD4E90112204637
:1059100002F073FB1434F4E7780100208C010020BE
:1059200038B5064C064D0020AC4200D338BD2046A9
:1059300002F0DFFB0028F9DB1C34F5E778010020DA
:105940007801002073B50C464FF02005EFF311816C
:1059500085F31288BFF36F8F45695DB125602B68B1
:105960004361836901338361002081F31188BFF3B0
:105970006F8F11E052EA030603D125606FF00B0030
:10598000F3E7CDE900230246083000F0B1FB18B977
:10599000024B9B685B69236002B070BD0009002068
:1059A0004FF02003EFF3118183F31288BFF36F8F61
:1059B0000B4A936B834208D1D3F88030936381F311
:1059C0001188BFF36F8F70471346002BF7D0D3F8C1
:1059D00080208242F8D1D0F88020C3F88020EEE702
:1059E000000900202DE9F04F85B0984600F16803CA
:1059F000C0E91A330732129B037322F0070904230C
:105A0000002501F1400A437309F14007119B8560AD
:105A10000446C0E906550E468373C5730F444A46D3
:105A2000AA215046DDF838B002F080F8109BC4F887
:105A30009050C4E922A902930F9B3A46CDE900B3E6
:105A4000314643462046FDF717FB0F9BA367109B8B
:105A50006566C4E91C8BE3674FF02003EFF3118206
:105A600083F31288BFF36F8F0F4B996BC4F88010CC
:105A70009C6382F31188BFF36F8F9B682BB9C4F8C6
:105A80009430384605B0BDE8F08FD3F89430C4F8B0
:105A900094301022294604F1300002F047F8012327
:105AA00084F83830EDE700BF00090020F0B587B07A
:105AB00000250595109D04950F9D03950E9D02955B
:105AC000DDE912760D9D01950C9D00950446FFF7CA
:105AD00089FFB6F1FF3F08BFB7F1FF3F05D056EA97
