:10000000403000200518000041720000D9170000A0
:10001000D9170000D9170000D91700000000000010
:10002000000000000000000000000000411400007B
:10003000D917000000000000ED130000D9170000E0
:10004000F1140000F1140000F1140000F11400009C
:10005000F1140000F1140000F1140000F11400008C
:10006000F1140000F1140000F1140000F11400007C
:10007000F1140000F1140000F1140000F11400006C
:10008000F1140000F1140000F1140000F11400005C
:10009000F1140000F1140000F1140000F11400004C
:1000A000F1140000F1140000F1140000F11400003C
:1000B000F1140000F1140000F1140000F11400002C
:1000C000F1140000F1140000F1140000F11400001C
:1000D000F1140000F1140000F1140000F11400000C
:1000E000F1140000F1140000F1140000F1140000FC
:1000F000F1140000F1140000F1140000F1140000EC
:1001000053B94AB9002908BF00281CBF4FF0FF317E
:100110004FF0FF3000F00CB8ADF1080C6DE904CEE3
:1001200000F008F8DDF804E0DDE9022304B07047D0
:10013000704700BF2DE9F04786468C460846089E6A
:10014000154674461946002B40F0C2808542B2FA2B
:1001500082F245D94AB1C2F1200300FA02FC2EFA1C
:1001600003F3954043EA0C0C94404FEA154EA8B2B5
:10017000BCFBFEF8230C0EFB18CC08FB00F943EA8D
:100180000C43994528D9EB1808F1FF3704D299455B
:1001900002D9A8F102072B44A3EB0903A4B2B3FBD5
:1001A000FEFC0EFB1C330CFB00F044EA0344A042AF
:1001B00014D92C190CF1FF3304D2A04202D9ACF1AE
:1001C00002032C44241A43EA07401EB1D440002302
:1001D00034607360BDE8F0874746DDE76346F1E7CA
:1001E00092BB431B01214FEA154EAFB2B3FBFEFC9D
:1001F000200C0EFB1C330CFB07F840EA0343984528
:1002000062D9EB180CF1FF3004D2984502D9ACF159
:1002100002002B44A3EB0803A4B2B3FBFEFC0EFBCD
:100220001C330CFB07F744EA0344A7424ED92C19B0
:100230000CF1FF3304D2A74202D9ACF102032C44E3
:10024000E41B43EA0040C0E7C2F1200320FA03F1B7
:10025000954090402EFA03F303434FEA154EAFB298
:10026000B1FBFEFC0EFB1C10190C0CFB07F841EA5D
:100270000041884504FA02F422D969180CF1FF30D4
:1002800004D2884502D9ACF102002944A1EB08014F
:100290009BB2B1FBFEFC0EFB1C110CFB07F743EA03
:1002A00001439F420ED9EB180CF1FF3104D29F425B
:1002B00002D9ACF102012B44DB1B41EA004192E779
:1002C0006046E3E76146F7E76046A3E76346B7E7C2
:1002D000834206D916B9002108467BE7C6E900E04B
:1002E000F9E7B3FA83F78FB9834201D3724508D88F
:1002F000BEEB020460EB030301209C461EB9002103
:1003000068E73846FAE7C6E9004CF8E7C7F1200C81
:10031000BB4022FA0CF41C432EFA0CF120FA0CF329
:10032000B84001434FEA14490EFA07F5B3FBF9F858
:100330001FFA84FE09FB18300B0C08FB0EFA43EA87
:1003400000439A4502FA07F240D9E31808F1FF305A
:1003500004D29A4502D9A8F102002344A3EB0A0370
:1003600089B2B3FBF9F809FB183308FB0EFE41EA2A
:1003700003418E452CD9611808F1FF3304D28E4514
:1003800002D9A8F10203214443EA0040A0FB0298ED
:10039000A1EB0E014145CE46434602D306D14D4561
:1003A00004D2B9EB020E68EB04030138002EA6D08C
:1003B000B5EB0E0261EB030101FA0CFC22FA07F324
:1003C0004CEA0303F940C6E9003198E74046C5E727
:1003D0004346D9E708B54FF0FF324FF0FF330648E8
:1003E00003F0A6FC054B06481A68013A1A60196822
:1003F000BDE8084006F0C8BDA001002000000020B4
:10040000D880000008B5074806F0BEFD0A24FFF7B3
:10041000E1FF01F099FBB0FBF4F303FB140006F0DD
:10042000A1FDF4E70A81000008B5064B06481A68EA
:1004300001321A60196806F0A7FD0448BDE80840BB
:1004400003F056BC0000002023810000A001002022
:1004500008B5084806F098FD0A24FFF7E5FF01F00B
:1004600073FBB0FBF4F303FB140000F5FA7006F025
:1004700079FDF2E755810000014B1B68184700BF6A
:1004800004000020014B1860704700BF04000020EA
:1004900007B50B46002102460091034800F014F90D
:1004A00003B05DF804FB00BF790400002DE9F047BC
:1004B000058B04462807904611D4022905F007054C
:1004C00040F0CD80204606F076FD78B10138218BD2
:1004D000042811D8DFE800F0C3106D8595000129CC
:1004E0000CBF45F0100545F02005258388F31188E1
:1004F000BFF36F8FBDE8F08701F0070AAA4500F04F
:10050000A6800027B9463E46A368002B00F0BD80B8
:1005100041F00801218388F31188BFF36F8FA16830
:10052000002900F0BB800D68002900F0B780D1F8E9
:100530000480334652462046C047002D76D02B68B3
:1005400029461D46F0E701F007035A1F012A1BD870
:10055000002221F00701062B276889B2C4E9002296
:1005600009D13B4603E0628B013262831B68002B9A
:10057000F9D141F002012183204606F01CFD00283C
:100580007BD041F0200177E0042B0AD121F0070154
:1005900089B22183204606F00EFD10B141F0200102
:1005A0002183218B01F0070AAA4550D00027B946C4
:1005B000AAE7236921F0070141F00601062DD3F8CF
:1005C000009021832DD1B9F1000F40D041F00801F6
:1005D000218388F31188BFF36F8F3A492046C847BB
:1005E00029E021F00701236941F0040189B2042DBB
:1005F000D3F804902183E6D000273E464FF0040A4A
:1006000082E721F00701236941F0050189B2052D38
:10061000D3F808902183D6D000273E464FF0050A34
:1006200072E700273E464FF0060A6DE72B4687E744
:10063000B9F1000FD1D14FF02003EFF3118883F30C
:100640001288BFF36F8F238B23F008032383258B3E
:10065000EA062ED525F01003238305F00705666909
:10066000218B002EBFF66FAF00232768C4E900334B
:1006700021F0070141F001012183218B01F0070ADC
:10068000AA454FF000097FF43FAF002F9BD041F007
:100690000801218388F31188BFF36F8F002FC7D023
:1006A0003D68394633465246204606F0B0FC2F4698
:1006B000F4E7AB067FF51AAF25F02003238305F09E
:1006C0000705FFE63B7000002DE9F04F814695B02D
:1006D0008B4617461C460025387808B9284658E34B
:1006E0007B1C2528039306D05946C8470028C0F232
:1006F00050830135FBE1182200210EA806F0E3FD2E
:100700007B78252B7DD00023781C98469E469C46FE
:100710001E46014610F8012B2B2A00F0A18000F2A2
:100720009880202A00F09F80232A00F09F802BB120
:100730009DF8403043F040038DF84030B8F1000F91
:1007400005D09DF8403043F020038DF84030BEF1D5
:10075000000F05D09DF8403043F010038DF8403075
:10076000BCF1000F05D09DF8403043F008038DF830
:1007700040302EB19DF8403043F004038DF84030F6
:100780009DF8403003F04400442803D16FF38613F2
:100790008DF840309DF840302A2A43F080038DF8D0
:1007A00040307FD19DF8412042F001024B1C8DF872
:1007B00041201A782E2A9DF841200CBF01210021EA
:1007C00061F341028DF8412078D15A782A2A6ED0FF
:1007D000013300224FF00A0C194611F8010BA0F169
:1007E0003006092E40F295809DF840101292C1F318
:1007F000400040EAD2700A4660F341028DF8402082
:100800005CE0BA1C03928DF843309DF84130DA0762
:1008100040F12E8154F8048BB8F1000F07DA9DF8EF
:10082000402042F004028DF84020C8F100085E0725
:1008300040F1278154F804ABBAF1000F80F2268111
:100840009DF841306FF341038DF841304FF0FF3A8E
:100850001CE12D2A0DD0302A7FF469AF012358E71F
:100860004FF0010C55E74FF0010E52E74FF0010831
:100870004FE701264DE70EFB0262303A0346184669
:1008800010F8016BA6F1300CBCF1090FF3D99942B5
:100890008FD09DF840101192D20F62F341018DF874
:1008A000401086E70B4600224FF00A0EE7E79DF85E
:1008B000412042F004028DF8412002331A786C2A5C
:1008C00047D02BD8682A31D06A2A4BD04C2A51D035
:1008D0001A4612F8013B0392782B9DF841208DF8BF
:1008E000433000F2BE806D2B51D8692B00F2B980E5
:1008F000572B67D8412B03D0453B022B00F2B18028
:100900009DF84230042262F302038DF84230012345
:1009100073E00CFB0202303A0B465DE7742A25D0E7
:100920007A2AD5D19DF8412006210CE05A78682A10
:100930009DF8412006D1012161F3C6028DF84120C6
:100940000233C5E7022161F3C6028DF8412001336D
:10095000BEE75A786C2A9DF8412001D10421EBE7CB
:100960000321F0E79DF841200521ECE79DF84120A7
:100970000721E8E7BDF8402022F4F04222F002020D
:1009800042F4804242F00202ADF84020DFE76E3BC5
:10099000D9B201238B4040F282410B4237D113F090
:1009A000240F51D1D8075CD59DF84230032161F363
:1009B00002038DF8423002F07803A3F140014B426C
:1009C0004B411AE0A3F15801C9B2012000FA01F12C
:1009D00011F4624F94D140F6010631421DD111F459
:1009E000043F3ED09DF8423060F3020302F07802EB
:1009F000402A8DF8423034D000239DF84020C2F3C5
:100A000040010B4363F341028DF84020FDE69DF861
:100A10004230022161F30203E8E79DF84210022010
:100A200002F0780260F30201402A8DF8421002BF02
:100A30009DF8401041F001018DF84010632BDBD18F
:100A4000131E18BF0123D8E79DF84230032161F33C
:100A5000020312F0780F8DF8423014BF01230023F7
:100A6000CBE79DF8403043F001038DF84030C3E7F9
:100A70009DF94020002AB4BFDDF844804FF0FF38D4
:100A8000D5E698077FF5E2AEDDF848A09DF8411065
:100A90000023CDE911339DF8423003F00703012B09
:100AA000C1F3C30133D1CB1E042B04D8DFE803F01C
:100AB000214646212100236801294FEAE372CDE94E
:100AC0000E321CD19DF93830DA17CDE90E320434DC
:100AD0009DF8403013F0030650D0039B3A46594628
:100AE000484606F087FB0028C0F253810544039F67
:100AF000F2E554F8043BDA17CDE90E32E8E70229B3
:100B0000E5D11AB243F3C033CDE90E23DFE7022B60
:100B100024D1CB1E042B04D8DFE803F018101018E2
:100B20001800012954F8043B4FF0000214D00229A8
:100B3000CDE90E32CCD19BB20E93C9E7073424F035
:100B40000704F4E80223CDE90E23C1E754F8043B7F
:100B50000E9300230F93BBE7DBB2CDE7042B08D144
:100B6000073424F00704D4E900230834CDE90E2328
:100B7000AEE7032BACD154F8043BDDE79DF843000E
:100B80007828B4D862281CD825283FF4ADAD582861
:100B9000ADD10DF136030093DDE90E0108AB10AACB
:100BA00006F0E2FABAF1000F074680F29A80002FB1
:100BB0009DD00DF13603D81B002E00F0C18001300E
:100BC000BEE06338152892D801A252F820F000BF89
:100BD000A50C0000B70C0000EF0A0000EF0A0000AF
:100BE000EF0A0000EF0A0000B70C0000EF0A000057
:100BF000EF0A0000EF0A0000EF0A0000450D0000B8
:100C0000DD0C0000030D0000EF0A0000EF0A0000F9
:100C1000290C0000EF0A0000DD0C0000EF0A0000C4
:100C2000EF0A0000DD0C0000BAF1000F0E9F35DB6B
:100C30005146384606F01CFB07EB000A002F3FF434
:100C400056AF00269DF8423013F01002059200F0D6
:100C5000938002305B06119A48BF129B04921044A5
:100C600048BFC018B8F1000F40F3A0809DF84020A5
:100C7000A8EB0008C2F380035007069300F19680AA
:100C8000510640F189803EB159463046C847002898
:100C90007FDB069B01351E4630227EE0384606F09B
:100CA000E0FAC9E70E9B8DF82030002608AF0DF161
:100CB000210A0120C6E719075CBFC3F300135E01D8
:100CC000DDE90E2348BF2B26002BBFF662AF524250
:100CD00063EB4303CDE90E232D265AE7002658E7A0
:100CE00000269DF840200DF13603DB1B6FF38612C2
:100CF0009A458DF840207FF65AAFAAEB0303119373
:100D000055E70E9890B30DF13603009310AA08AB87
:100D1000002106F029FABDF8423003F0EF0343F456
:100D2000F04343F01003BAF1000F0746ADF842302C
:100D3000D6DA00283FF4DBAE0DF13603181A002690
:100D40009A467FE70E9B07293FF6D1AEDFE801F018
:100D50000C04060C08080C0C1D70C8E61D80C6E6C5
:100D6000EA17C3E90052C2E61D60C0E62E4F0646F0
:100D700007F1050A052065E71A0748BF013069E752
:100D80000793104606925946C8470028DDE9062316
:100D900004DA15B0BDE8F08F202243461946002939
:100DA00003F1FF33ECDC45446D1A98462EB15946E9
:100DB0003046C8470028ECDB01359DF84230DA06A2
:100DC00001D41B0705D559463020C8470028E0DB71
:100DD0000135059B33B19DF843005946C8470028AB
:100DE000D7DB0135049E2E4405E059463020C84724
:100DF0000028CEDB0135731B002BF6DC53463A4648
:100E00005946484606F0F6F90028C2DB0544A844D6
:100E1000A8EB0503002B7FF76AAE59462020C84790
:100E20000028B6DB0135F3E79781000008B50446DA
:100E30004FF02002EFF3118382F31288BFF36F8F1C
:100E400001F02AFF204600F05FFE034806F09CF800
:100E500000F030FAFCE700BF9D81000001F04EBFBA
:100E60002DE9F84305464FF02003EFF3118683F395
:100E70001288BFF36F8F0E4B0E4F1C68DFF838805F
:100E80004FF00C092CB986F31188BFF36F8FBDE8C2
:100E9000F883D4E90123002D18BF13462BB198F82D
:100EA000102009FB02F2B85C98472468EAE700BF0B
:100EB00008040020FC030020BC0A002070B5194B78
:100EC0001C7CBFF35B8F04F01F0301229A40164B7A
:100ED000610903EB8103D04353E8001F01EA0005D9
:100EE00043E80056002EF7D1BFF35B8F0A4213D0C0
:100EF0000E4B0F4D8BB10C236343EA18E85C51781D
:100F000006F0F9F90020FFF7ABFF0C235C432A1928
:100F100000232B51C2E9013370BD83F31188BFF365
:100F20006F8FEFE7BC0A002010040020F77200006A
:100F3000FC0300202DE9F041354B07461D7C4FF0A6
:100F40002003EFF3118883F31288BFF36F8F0C2413
:100F5000304B314E6C431A19195D00294CD007CA29
:100F600006EB040C8CE8070000221A5588F3118860
:100F7000BFF36F8F0C236B43F218F05C002839D05D
:100F80007B1C10D0D2F808C0244C254A4FF40040F6
:100F90000021ECFB004100232046FFF7B1F80121BE
:100FA000381A01F03DFE03F0F3F80120FFF758FF77
:100FB000BFF35B8F1B4B6A0903EB820305F01F0134
:100FC00001228A4053E8000F104343E80001002942
:100FD000F8D1BFF35B8F144B3BB10C2303FB05F03F
:100FE0003318305C597806F07AF9FFF767FF03F0A1
:100FF000E3F80120BDE8F0810146284600F016F82C
:101000000028B3D007C8344484E80700AEE700BF27
:10101000BC0A0020F0030020FC0300203F420F0028
:1010200040420F0010040020DF7200002DE9F04F55
:1010300085B00E4603A900F043F81E4B039DD3F87C
:1010400000A0DFF87480431E1BB203EB4303044689
:1010500005EB83054FF400474FF0000B24B9A14680
:10106000484605B0BDE8F08F6868144AC446594642
:10107000E0FB07C100236046FFF742F80190A86833
:101080000E4AC4465946E0FB07C100236046FFF7FD
:1010900037F8BAF1FF3FA94601D0824505D9731C44
:1010A000DED0019B1844B042DAD9013CA4B20C3D19
:1010B000D4E700BF080000203F420F0040420F006D
:1010C00008B9024B0B600020704700BF087E00008B
:1010D000014803F045BB00BF087E000038B5044658
:1010E00018B90F4B0F485B6898476168B1F5683FC6
:1010F0000FD0B1F5680F0CD00B4DA94209D011F4F7
:10110000686107D00948214606F0A9FB0023236047
:10111000656038BD2068142206F0D5F8F8E700BFF6
:10112000D4000020C98100002C5F5CA914090020B4
:1011300008B520B34368B3F5683F10D101220368B6
:10114000BFF35B8F53E8001F002903D143E8002061
:101150000028F7D1BFF35B8F0DD1002008BD094AED
:1011600093420AD000684FF0FF324FF0FF3302F095
:1011700009FD0028F1D00448F0E70448EEE76FF4D9
:10118000E040EBE72C5F5CA9E98FFFFFEA8FFFFFF0
:1011900008B5D8B14368B3F5683F10D100220368A1
:1011A000BFF35B8F53E8001F012903D143E8002000
:1011B0000028F7D1BFF35B8F0BD1002008BD074A91
:1011C000934208D0006802F057FDF6E76FF4E04064
:1011D000F4E70348F2E70348F0E700BF2C5F5CA99F
:1011E000E98FFFFFEA8FFFFF10B5044618B91D4BCA
:1011F0001D485B6898476368B3F5683F2FD0B3F527
:10120000680F2CD0194A934219D1236803BB1848A0
:101210004FF0FF324FF0FF33214602F0DBFB08B9FD
:1012200023681BB90F4B13485B689847206814224A
:10123000002106F048F84FF46863636008E0B3F5F6
:10124000683F0DD83A2B03D040F6BA629342DED104
:10125000206806F042FB636843F03A03636010BD08
:10126000054AF3E7D4000020C98100002C5F5CA987
:1012700014090020EF8100003A00003A08B5064941
:1012800006484023142206F0DCFABDE80840044971
:10129000044803F029BB00BF1404002014090020F7
:1012A000107E0000247E0000014910220A60704771
:1012B00010ED00E072B6404080F31188BFF36F8FED
:1012C000BFF34F8F30BF62B6BFF36F8F704700BF61
:1012D00072B6494081F31188BFF34F8F20BF80F36E
:1012E000118862B6704700BF40B2002807DB044A8D
:1012F0004109012300F01F00834042F8213070476C
:1013000000E100E040B200280CDB4309064900F090
:101310001F0020330122824041F82320BFF34F8F6A
:10132000BFF36F8F704700BF00E100E0054B42093B
:1013300000F01F0053F82220012303FA00F01040B0
:10134000704700BF00E100E040B20028A8BF00F1F4
:10135000604001F10101B8BF064B4FEA4111ACBF3B
:1013600000F5614000F00F00C9B2B4BF195480F815
:101370000013704714ED00E030BFFFF7FDBF00BF62
:101380000B4A08B50B4B22F07F029A60BFF34F8FD8
:10139000BFF36F8FD3F8882022F47002C3F888203F
:1013A00002F054FA03F02EF800F020FA02F092FA5C
:1013B0000000000000ED00E0094A0A49936809684E
:1013C0009967094958674B6843F080534B60002385
:1013D00083F31188BFF36F8F9368986F704700BFD6
:1013E000BC0A0020347F000000ED00E012498A684A
:1013F0004FF030001044EFF3098C80E8F01F2020FC
:1014000080F31288BFF36F8F0C4F4FF000668A692C
:101410008A603E60506F0023536780F3118804B5E3
:10142000104600F07FFABDE8044002F1300090E879
:10143000F01F8CF309887047BC0A002004ED00E01F
:101440001EF0040F0CBFEFF30880EFF309808169F1
:1014500011F8021C0229FFD001B505F0E9FE01BD1B
:1014600042F8203C009B42F81C3C0A49019B42F890
:10147000183C029B42F8143C21F001014FF08073AC
:1014800042F8043C42F8081C0023203A02654367F6
:10149000704700BFA36F0000094A0346906870B10F
:1014A00013F1160F406E05D0A0F140029A4205D804
:1014B000834203D2814228BF00207047002070473A
:1014C000BC0A002008B5094B0D461446986000F090
:1014D00029FA204685F30988002163B681F3118833
:1014E000BFF36F8F0022002305F05BFDBC0A0020D4
:1014F00001B572B60B4A506900281EBF0021516128
:1015000006F0DCF962B6EFF30580A0F110004FEAB7
:10151000C0000549014409C99847BDE80140034995
:1015200008470000BC0A0020A87B0000311500001D
:10153000044B99689869884203D003494FF0805260
:101540000A607047BC0A002004ED00E070B5264B2D
:1015500015469A6A12F0100F9A6A14BF11241024CB
:1015600012F0080F9A6A18BF1224920706460AD58D
:10157000586B9A6A140634D519B19A6A22F080021F
:101580009A62132401E06FF01500174B9A6A12F06B
:10159000010F9A6A18BF142412F0200F9A6A18BF1C
:1015A0001524D20602D49B6A9B070AD50E4B5B68B2
:1015B000190506D53146FFF76FFF10B180F3098892
:1015C0000224094B9A6A920642BF5A6A22F40052D8
:1015D0005A629A6A42F0FF029A6200232B702046F8
:1015E00070BD6FF01500CCE700ED00E0134B9A6A78
:1015F00012F0007F9A6A14BF1E201D2012F0807F17
:101600009A6A18BF1F2012F4002F9A6A18BF21206F
:1016100012F4802F9A6A18BF222012F4003F9A6AAF
:1016200018BF232012F4803F9A6A6FEA02426FEAE1
:1016300012429A6218BF2420704700BF00ED00E0FC
:1016400010B5194B0246986A9C6A10F4805F14BF6B
:101650001720162014F4006F9C6A18BF1820A405E8
:1016600009D5986B986A000404D51AB19A6A22F4D5
:1016700000429A6219200C4B9A6A12F4806F9A6A9F
:1016800018BF1A20D2050CD49B6A13F4005F18BF50
:101690001C20054A936A43F47F43936200230B7036
:1016A00010BD1B20F5E700BF00ED00E070B5454B15
:1016B0005B688AB00546C3F30803002686F31188E9
:1016C000BFF36F8F02F07F40B0F17F4F11D102F076
:1016D0000C0008280DD010074CBF0D460126002233
:1016E000033B8DF80720032B05D8DFE803F01E5DD0
:1016F000615A3546F3E700249DF807309BB9202254
:10170000294602A805F0D4FD099B002E54D0C3F34E
:10171000080222B96FEA53236FEA4323099302A90F
:10172000204605F083FD0AB070BD264BDA6A9107AA
:10173000E1D4DA6A002ADEDBDA6A5200DBD55A69C4
:10174000A96942F480725A61BFF34F8FBFF36F8F64
:101750005A6931F8021C22F480725A61BFF34F8F2C
:10176000BFF36F8F4DF6027291420AD09A6AD2B2DD
:101770004AB10DF1070201212846FFF7E7FE0446B2
:10178000BAE72C68B8E79A6A12F47F4F05D00DF1DA
:1017900007010120FFF754FFF1E79B6AB3F5803F93
:1017A000A9D3FFF723FFEAE70DF107020021E3E7E2
:1017B0000DF107010020EDE723F4FF7323F001038F
:1017C000ACE700BF00ED00E0024A536943F01003AC
:1017D0005361704700ED00E0EFF30880EFF30981FB
:1017E00001B57246FFF762FF01BD00BF0448002348
:1017F0002021C2180133302B82F80013F9D1704731
:1018000000E100E0002080F31488BFF36F8FFFF742
:1018100025FB00200D490860BFF34F8F0C4880F373
:10182000088800F02BF8202080F3118809484FF435
:101830000461401880F30988EFF314800221084303
:1018400080F31488BFF36F8FFFF79AFD94ED00E0EB
:1018500040300020801E00200749D1F8902000234E
:10186000C2F307221846934200DB7047C1F8983054
:10187000C1F8A0000133F6E700ED00E008B572B64C
:10188000002383F31388FFF7E7FF144B4FF0FF3279
:10189000C3F88020C3F88420C3F88820C3F88C20C4
:1018A000C3F89020C3F89420C3F89820C3F89C2074
:1018B000C3F88021C3F88421C3F88821C3F88C21A0
:1018C000C3F89021C3F89421C3F89821C3F89C2150
:1018D00062B6BFF34F8FBFF36F8F08BD00E100E02A
:1018E000084B9B6883420BD1EFF3058343B1064B52
:1018F0005A6842F080525A605A6A22F400425A6290
:1019000002F020BDBC0A002000ED00E0024B034ABB
:101910000348012100F070B80000042000000020FE
:10192000347E0000426E054B403A1A60044A402162
:10193000C3E901121846012100F068B830090020FF
:1019400000000B15F0B5204E00258D4239DA4468B1
:1019500074B353B104F1FF3C14EA0C0F2FD11F2CC8
:101960002DD907681CEA070F29D1202C0768D0F869
:1019700008C05FFA82FE1ED9B4F1004F1DD8013CA9
:10198000B4FA84F4C4F11F046400BEF1070F4CEAFA
:10199000040C14D827F01F04144344F01004C6F8B4
:1019A0009820C6F89C404CF00104C6F8A0400132D3
:1019B00001350C30C9E70824E7E73E24E5E76FF07E
:1019C00015021046F0BD00BF00ED00E0044B0522FB
:1019D000C3F89420BFF34F8FBFF36F8F704700BFE2
:1019E00000ED00E0BFF35F8F024B0022C3F89420AC
:1019F000704700BF00ED00E010B5034C01232278D2
:101A0000FFF7A0FF207010BDB815002008B5094AE7
:101A100000231278FFF796FF10F1160F02D0064A46
:101A2000072800DD08BDC2F89800C2F8A0300130D8
:101A3000F6E700BFB815002000ED00E01449086883
:101A4000082810B521D8FFF7CDFF124C49680022B5
:101A5000904201F10C0105D10F4B1870FFF7B6FF52
:101A6000002010BDC4F8982051F80C3C23F01F034F
:101A7000134343F01003C4F89C3051F8043C43F086
:101A80000103C4F8A0300132E2E74FF0FF30E8E78D
:101A9000407E000000ED00E0B8150020014B18600A
:101AA000704700BF2C00002010B54FF02003EFF36B
:101AB000118083F31288BFF36F8F114A0123C2F89C
:101AC00040354FF080424FF08051C2F87835D1F860
:101AD0003041082C08D1D1F83411052904D8094C1B
:101AE000615C09B1C2F838364FF080430122C3F877
:101AF000802580F31188BFF36F8F002010BD00BFD9
:101B000000E001402F8200004FF08043C0B2C3F8D4
:101B10001C05BFF34F8F0549054BCA6802F4E0620C
:101B20001343CB60BFF34F8F00BFFDE700ED00E034
:101B30000400FA0520B1034B800143F0010318476C
:101B4000704700BF007E000007B508488368042284
:101B50001B680DEB02019847002802DA05F070FDC2
:101B60000190019803B05DF804FB00BF787B000092
:101B7000084B70B5C31A0D4607499B1004465943DC
:101B80000648402205F0D9FB2B4601462046BDE819
:101B90007040184750090020B76DDBB6187B000075
:101BA00073B50C4C0C4A4023041B00930D460B46A6
:101BB0000A49A41061430646094805F0EBFB011EE3
:101BC00005DA30462B4602B0BDE87040184702B037
:101BD00070BD00BF5009002001740000B76DDBB676
:101BE000187B0000002270B5012104461046FFF763
:101BF000ABFB0F4801F004FA0E4B984215D105F0EB
:101C000035FD26690C49304605F025FA00280BDB26
:101C1000012535642469084904F11C0005F01BFA0C
:101C2000002801DBE564002070BD6FF00400FBE7D5
:101C3000711C00000000AD0B607E000070B5014615
:101C40000C2309484B43C418D4E90E5640330022F4
:101C50001844A26305F05EFB2DB132462B460348C3
:101C6000BDE87040184770BD50090020187B000087
:101C700010B1012804D07047034B1B6C5B0701D1E6
:101C8000FFF7DCBF704700BF5009002008B54FF0D8
:101C90002003EFF3118183F31288BFF36F8F124A91
:101CA000136843F002001060DA0708D481F311884A
:101CB000BFF36F8F0120BDE8084005F0E4BC4FF092
:101CC0008043D3F80C24D3F80C34D307EED507485F
:101CD00005F020FB81F31188BFF36F8F0020BDE872
:101CE0000840FFF7ABBF00BFA0090020900900200B
:101CF0001FB500220123CDE90223094ACDF800D007
:101D00006B46CDF804D005F074FB002805DB4FF4DA
:101D100080420023684602F00BF805B05DF804FB32
:101D20001F74000010B54FF02003EFF3118483F30C
:101D30001288BFF36F8F074A136823F00201DB0795
:101D4000116002D4012005F0DAFC84F31188BFF39E
:101D50006F8F10BDA00900202DE9F0413849BFF375
:101D60005B8F0746012251E8003F41E80020002830
:101D7000F9D1BFF35B8F33B9324933484B60CB6045
:101D80008A6005F07BF97B1E012B2BD8012F07D130
:101D90004FF08043D3F81C3403F00303012B21D010
:101DA00005F086FD0546F8B9284B1B78E3B14FF0E6
:101DB00080430222C3F808230646DFF894804FF0E0
:101DC0008044D4F81834D4F81824D20316D503F07C
:101DD0000303012B01D0012F10D15DB386F31188CD
:101DE000BFF36F8FBDE8F0814FF02003EFF3118652
:101DF00083F31288BFF36F8F0125DEE7ADB1304664
:101E0000FFF766FAD4F81835002BDAD1D4F804219C
:101E1000002AD6D0C4F80431D4F804310123C4F820
:101E20001835C8F88031A360CBE70021212002F0EB
:101E300069FAE7E74FF080430222C3F80423D1E7B1
:101E40004C0900203C0900206C090020CB1900201F
:101E500000E100E008B5074805F0B3FC38B10648DA
:101E6000FFF71CFE0448FEF70DFB002008BD6FF0D5
:101E70001200FBE7907B00007D1E00000A2838B5A9
:101E8000074D044604D1AB680D215B68284698478E
:101E9000AB6803485B68E1B29847204638BD00BF95
:101EA000907B00004FF02003EFF3118283F3128840
:101EB000BFF36F8F094BD3F8001161B10021D3F844
:101EC0000805C3F80011D3F80031C0B282F31188BD
:101ED000BFF36F8F70476FF00A00F7E700D0004044
:101EE000F0B5034610469C7893F803C04FF02005E8
:101EF000EFF3118285F31288BFF36F8F1F7893F889
:101F000001E0E41B04EA0C04A04288BFA0B23E1822
:101F10000CEA06063D461E7082F31188BFF36F8FF0
:101F20000A188A4217D177450DD14FF02001EFF3FF
:101F3000118281F31288BFF36F8F1978597082F381
:101F40001188BFF36F8F1B79241AA34222BF064B5F
:101F500001221A60F0BD5E190135767901F8016B36
:101F600005EA0C05DDE700BF00D00040DB432DE9AA
:101F7000F04713F001050E46144604D02348FFF73E
:101F8000AFFFBDE8F087A2B34FF02003EFF3118855
:101F900083F31288BFF36F8F0D20FFF7C7F9074651
:101FA0000D20FFF7AFF988F31188BFF36F8FDFF8CB
:101FB00060A0DFF86080CAF80051DAF800314FF411
:101FC00000590123CAF800302546C8F88091DAF894
:101FD000003183B1FFF766FF031EC8F88091F6DB7E
:101FE000013DADB27355002DF1D117B10D20FFF7B2
:101FF0007BF92046C5E74FF02003EFF3118083F310
:102000001288BFF36F8FFFF763F9E0E7C409002080
:1020100000D0004000E100E02DE9F041124F0D46F4
:10202000144607F1350814B92046BDE8F0814FF099
:10203000FF334FF0FF32384601F07AFE2246294640
:102040004046FFF74DFF0646384601F051FE3EB9C7
:102050004FF0FF324FF0FF33044801F069FEE6E72E
:10206000A41BA4B23544DEE7A4090020B409002073
:1020700038B5184C01221146204605F035FC0122E6
:10208000002104F1100005F02FFC40F207432387E4
:102090004FF0706323620C2384F8243000250E4B2C
:1020A00084F83550E586D3F8042522F00102C3F800
:1020B00004250121C3F80051D3F80021C3F804130B
:1020C0002A4619600D20FFF73FF90D20FFF70CF9A4
:1020D000284638BDA409002000D0004010B5FFF705
:1020E000E1FE002820DB174B93F8222093F82140D3
:1020F00093F82310141B31EA0404C0B20DD193F8F5
:10210000372093F8364093F83810141B31EA040452
:102110000BD10D4B01225A600EE09C180132114088
:1021200084F8250083F8221010BD9C18013211405C
:1021300084F83A0083F837100448BDE8104001F0F5
:10214000D7BD00BFA409002000D00040B409002082
:1021500030B54068057B01F01F04B2F5001F85B063
:1021600044EA451405D1204601F0CCF9002005B021
:1021700030BD0025B2F5800FCDE9025514D1B3F181
:10218000007F0CBF042305238DF808300023194677
:1021900002AA204600F0F4FF1F4B984239D10121DA
:1021A000204601F067F9E1E7B3F1C06F26D0B3F143
:1021B000007F14BF012302238DF808308368CB40D1
:1021C000D907E3D4B2F1A07FE0D16209012A04F07B
:1021D0001F03124A03F5E07318BF4FF0A04252F8F4
:1021E0002330DB07D2D40DF107052946204601F044
:1021F000EDF80B4B984203D00395C7E70323DBE7C9
:10220000284601F031F9044B9842F5D06FF00B00ED
:10221000ADE76FF01500AAE70000AD0B000300501A
:102220000400AD0B10B501F00FF9044668B901F0D8
:10223000E3F8084B98420AD10748214601F0C0F85C
:10224000224605210620FFF77FF8002010BD6FF021
:102250000400FBE70000AD0B5D220000420970B5F1
:10226000034602D0012A17D070BD0D4E3269516865
:102270000029F9D003F01F0301250C689D400029B7
:10228000F2D08A682A4002D04B68304698472CB179
:10229000236821461C46F2E7024EE7E72346F8E7AB
:1022A000487B0000307B00002DE9FF4147683B7B05
:1022B00001F01F0545EA43150E4628460DF10301BE
:1022C000144601F083F814F4403F80460BD12846B1
:1022D00001F040F93D4B984503D19DF8030001F012
:1022E000BDF800200CE00023194602AA2846CDE9DB
:1022F000023300F045FF354B984204D06FF01500D3
:1023000004B0BDE8F081804503D19DF8030001F0E1
:10231000A5F8A3034BD540F206332340B3F5837FE2
:1023200019D00CD8062B17D004D8ABB1022BE5D1AD
:10233000042311E0B3F5807FE0D101230CE040F2EB
:102340000222934227D0B3F5407F26D0B3F5007F19
:10235000D4D1022300E007238DF8043084F48033C5
:10236000C3F30043E0068DF8053054BFC4F34013B7
:10237000032321038DF8063011D57A680123B34079
:10238000C2F80835002201A9284600F0A7FF0F4B2C
:102390009842A6D0B2E70523DEE70323DCE7620319
:1023A00041BF01237A68B340C2F80C35EAE7E3067F
:1023B0004FF0000354BFC4F3401403241A4601A98C
:1023C00028468DF8044000F0DBFEE0E70000AD0B8E
:1023D0002DE9F0415A4E00EB81010127814202D1E3
:1023E0000020BDE8F081046804F07F03C4F34325B6
:1023F0007F2B4FEA144408BF4FF0FF33222C00F22A
:102400009B80DFE804F0122429442C4044999999D8
:10241000994770999999999999999999737B7E811E
:10242000999999848A8D90939600C2F80C354FEA59
:10243000531CBCF1010F03F01F0414BF4FF0A04C5C
:10244000B44607FA04F4CCF80845012402E0C2F8C7
:1024500014350024A64624E0C2F80835E7E7C2F8A0
:10246000083500244FEA531EBEF1010F14BF4FF090
:10247000A04EB64603F01F0C07FA0CFCCEF80CC5B4
:102480004FF0010E0DE0C2F80C350124EAE7C2F866
:102490001035DEE7C2F80835002DDAD10024A64653
:1024A000062550F804CB0CF40058B8F1000F4FEAA1
:1024B0000525CCF3C11803F01F0C4FEA53131CBFC2
:1024C00001244FF0000E45EA8805012B0CBF33466E
:1024D0004FF0A04345EA0E050CF5E07C45EA4405C3
:1024E00043F82C507AE7C2F80C35D5E7C2F86035CE
:1024F0000468C4F38034002CC7D098E7C2F8643570
:10250000F6E7C2F86835F3E7C2F86C35F0E7C2F8D1
:10251000243501244FF0000EC3E7C2F8283586E7C2
:10252000C2F83035F5E7C2F83435F2E7C2F838358D
:10253000EFE7C2F83C35ECE76FF0850051E700BFEC
:1025400000030050F0B54B79012B26D0032B21D18D
:1025500010258B79032B1DD1CE790EB1012E19D107
:102560000A7912B1022A15D10E220B684468B3F51C
:10257000164F276867D02DD8B3F5165F66D016D8EA
:10258000B3F5966F64D00AD8B3F5967F63D0B3F5F0
:10259000167F63D06FF0850054E00025D9E7B3F5CE
:1025A000166F5ED0B3F5965FF4D1384B3CE0B3F5CF
:1025B000E14F59D007D8B3F5615F57D0B3F5964FC7
:1025C000E8D1334B30E047F61224A342E2D14FF476
:1025D000000329E0B3F5613F4AD013D8B3F5963F25
:1025E00049D009D84DF6C024A34246D0B3F5614F77
:1025F000D0D14FF46B0317E0B3F5E13FCAD14FF0F0
:10260000EB7311E0B3F5612F3AD008D8214CA34207
:1026100039D0B3F5E12FBDD14FF0E86304E01E4C93
:10262000A342B7D14FF080530469C7F824354368FB
:1026300035431B682A43C3F86C2503C9231D83E86F
:1026400003000020F0BD4FF41D03EDE7134BEBE753
:102650004FF49E23E8E74FF4A033E5E74FF41C3333
:10266000E2E74FF41D23DFE70D4BDDE70D4BDBE722
:102670004FF06C73D8E70C4BD6E74FF46503D3E704
:102680004FF07063D0E74FF08063CDE700B01300E8
:1026900000A04E0090D0030040420F0000502700E1
:1026A00000C0750000F03A0000903A012DE9F743B0
:1026B0008046002201210220FEF746FE0220FEF79E
:1026C00013FED8F80470D8F810603C680021C4F8F4
:1026D0000015C6F80080D7F80C9001AA484604F00F
:1026E00023FF051E54DB019BD9F8002019791868D7
:1026F000FFF76EFE051E4BDB311D4046FFF722FF44
:102700000546002844D17B6899071AD506F11800C0
:1027100001F022F8224B98423ED1337EDB0003F1D8
:10272000804303F5F83304F10C0204F59071C3F80B
:102730001015C3F81425327E01239340194AC2F8BC
:1027400004350823C4F800353B7A53B9C4F8103176
:10275000D4F810317369C4F834350123C4F838351E
:1027600023607B689A075CBF4FF48073C4F804331E
:102770007B68DB0644BF4FF48003C4F8043333693D
:10278000C4F844350023C4F848350123A360E3604E
:10279000284603B0BDE8F0836FF00405F8E700BFFA
:1027A0000000AD0B00F00140F8B5044607690D4686
:1027B00005F07EF8B0B92E4B1B789BB1642660689B
:1027C00004F0E8FE00BB012004F04EFF013EF6D10C
:1027D0000021212001F096FDF0E786F31188BFF378
:1027E0006F8FF5E74FF02003EFF3118683F3128824
:1027F000BFF36F8F6068314604F0CCFE90B986F36A
:102800001188BFF36F8FEDE74FF02003EFF31186D0
:1028100083F31288BFF36F8F6068314604F0BAFE0D
:102820000028DAD03B691D70626838691368C3F804
:1028300044050120C3F848050020C3F82001D3F85F
:102840002051C3F858015268D3F85801D20608D570
:10285000626812680820C2F800054FF48002C3F8CD
:10286000042301229A6081F31188BFF36F8FF8BDB2
:10287000CB19002070B5012383400E4ABFF35B8F54
:10288000DC4352E8001F01EA040542E80056002E2E
:10289000F7D1BFF35B8F4FF4803282400648C0F817
:1028A0000823BFF35F8FBFF36F8F0B4214BF01206C
:1028B000002070BD040A00200010014070B40E49D1
:1028C000D1E90034D01AC31844F1000422F07F4645
:1028D000C1E90034A6F50013B3F5400F09D2074B48
:1028E0001B681A0A1B069C19054B42F10005C3E937
:1028F000004570BC01F05CBEC0020020080A002048
:10290000C802002011B3BFF35B8F0123104A83403C
:1029100052E800CF4CEA030C42E800C10029F7D18D
:10292000BFF35B8F0B4A4FF480338340C2F804330C
:10293000094BBFF35B8F1B68BFF35B8FC340DB07A3
:1029400042BF064B4FF40032C3F80021704700BF6E
:10295000040A002000100140000A002000E100E00D
:102960000D4B1868010A0006BFF35F8F0B4BD3F8BD
:102970000435181841F10001B3F5801F0AD2084B45
:10298000D3E90023904271EB030303D210F180706E
:1029900041F10001704700BF080A0020001001400B
:1029A000C80200202DE9F74F16461F460446FFF7E0
:1029B00061FF0090FFF7D4FFB04271EB070351D2E3
:1029C0003A4B301A67EB0101984271F100016AD26B
:1029D000374B03EB0413D3E902239F4208BF96420F
:1029E0004ED034494FF4803904F1500509FA04F906
:1029F000AD00C1F848932046ADB204F015FE26F0B4
:102A00007F4B05F1804504F5A8732B4A019305F52A
:102A10008835DC464FF0030A019B2CF07F4041F8DB
:102A20002300C1F84493D1F804856FF00200A0EBB5
:102A30000800604420F07F40904221D9286860B1AE
:102A4000D1F80485A8EB0B0020F07F40B0F5000F13
:102A500016D9204604F0E8FD174A0AEB080C0AF1E3
:102A6000010AD9E70123154ABFF35B8FA34052E85F
:102A7000000F184342E800010029F8D1BFF35B8F33
:102A80000B490C98230101EB0412C2E90267C850FC
:102A90000D9B5360002520460099FFF733FF284621
:102AA00003B0BDE8F08F6FF01505F4E7010080007A
:102AB000B002002000100140FDFF7F00000A00204E
:102AC00073B51B4C1B4BC4F80833C4F848331A4B7E
:102AD00000254FF0FF304FF0FF31C4F80855C3E92F
:102AE00002014FF48033C4F80433144B02264FF430
:102AF00000320121C4F804631120C3F880212A4662
:102B0000FEF722FC1120FEF7EFFB0D4A0123A36024
:102B1000236013600B4B0C4A009301950023284659
:102B2000FFF740FF3046FFF717F9284602B070BDA7
:102B30000010014003000F00B002002000E100E09F
:102B4000040A0020BD280000FFFF7F002DE9F743A5
:102B50002F4CD4F8043399070BD5D4F8043143B182
:102B60002C4A0023C4F80431D4F80431136801332B
:102B70001360D4F80433DA032AD5BFF35B8F264BF6
:102B800053E8002F22F0010143E800100028F7D19C
:102B9000BFF35B8FD30702D4D4F84031C3B1002513
:102BA000C4F84051D4F84031FFF7DAFE4FF020036B
:102BB000EFF3118283F31288BFF36F8F174BD3E9C2
:102BC0000267B042B94106D282F31188BFF36F8F1A
:102BD00003B0BDE8F0834FF0FF384FF0FF39C3E991
:102BE0000289D3E900101D604FF48033C4F84833E4
:102BF000C4F84051D4F8403182F31188BFF36F8F8D
:102C00000029E5D0009032463B4628468847DFE75A
:102C100000100140080A0020000A0020B002002035
:102C2000431C13B522D0012822DD124A124B9042D8
:102C3000D4BF04461C46FFF793FE104B0E49D3E960
:102C40000023801AB0F5000F28BF002404448C42F2
:102C500028BF0C46A2180A4900914FF000000190CD
:102C600043F10003FFF79EFE02B010BD024CE2E705
:102C70000124E0E7FEFF7F00FFFF7F00C00200208D
:102C8000BD28000008B5FFF76BFE024B1B68C01A99
:102C900008BD00BFC002002010B5084C01236360CE
:102CA0001120FEF72FFB064BC4F80833C4F8483355
:102CB000044B4FF40032C3F8802110BD00100140D6
:102CC00003000F0000E100E04FF08053D3F8302103
:102CD000082A06D1D3F83431052B02D8024AD05C39
:102CE00070470020704700BFC2820000024AD2F83D
:102CF0000034002BFBD0704700E0014010B54FF0CE
:102D00008053D3F83021082A4ED14FF08042002161
:102D1000C2F80C11C2F81011C2F8381502F5404281
:102D2000D3F80414C2F82015D3F80814C2F82415F7
:102D3000D3F80C14C2F82815D3F81014C2F82C15C7
:102D4000D3F81414C2F83015D3F81814C2F8341597
:102D5000D3F81C14C2F84015D3F82014C2F8441557
:102D6000D3F82414C2F84815D3F82814C2F84C1527
:102D7000D3F82C14C2F85015D3F83014C2F85415F7
:102D8000D3F83414C2F86015D3F83814C2F86415B7
:102D9000D3F83C14C2F86815D3F84014C2F86C1587
:102DA000D3F84434C2F87035FFF78EFF18B13A4BB0
:102DB0003A4AC3F88C26FFF787FF18B1384BFB223D
:102DC000C3F81825FFF780FF70B14FF080414FF036
:102DD0008053D1F8E42ED3F8583222F00F0203F0DA
:102DE0000F031343C1F8E43EFFF76EFF20B12D4BF4
:102DF0004FF40072C3F840264FF08053D3F83031BF
:102E0000082B1AD14FF08043D3F80024D20744BFD7
:102E10006FF00102C3F800244FF08053D3F834312F
:102E2000052B02D8204AD35C3BB14FF01023D3F8D6
:102E300008224FF08043C3F858254FF01023D3F8F1
:102E40000022002A03DBD3F80432002B22DA1749D0
:102E500001234FF01020C1F804351224FFF746FF7C
:102E6000C0F80042FFF742FFC0F80442FFF73EFF00
:102E70000023C1F80435FFF739FFBFF34F8F0C492A
:102E80000C4BCA6802F4E0621343CB60BFF34F8F70
:102E900000BFFDE710BD00BF0050004048810300A7
:102EA00000F0004000900240BC82000000E00140C1
:102EB00000ED00E00400FA0570B501250268BFF3DB
:102EC0005B8FB2FA82F3C3F11F03DBB205FA03F49E
:102ED00022EA040450E8006F964204D140E8004C16
:102EE000BCF1000FF6D1BFF35B8FE7D101480B7047
:102EF00070BD00BF0000AD0B10B50368CB40DB0711
:102F000014D401238B400268BFF35B8F43EA0201B4
:102F100050E8004F944204D140E8001CBCF1000F7F
:102F2000F6D1BFF35B8FEED1014810BD0148FCE73D
:102F30000000AD0B0400AD0BF7B5044618B1012835
:102F400022D003B0F0BD4FF080430222C3F8082323
:102F5000C3F80401D3F804210122DA6007460123F3
:102F60008DF8073042F210754FF08046CCB1012C3D
:102F7000E7D1C7B3D6F80C3403F001033B70D6F8A1
:102F80000C34DA0321D516E04FF080430022C3F859
:102F90000803C3F80021D3F8002158600DF107079A
:102FA000DDE7B7B1D6F8183403F003033B60D6F879
:102FB0001834D803C5D59DF80700012803D104F0C3
:102FC00053FB013DD2D1012CBBD10C4B00225A71D5
:102FD000B7E7D6F81834D903B3D5012004F044FB81
:102FE000013DF6D1ADE7D6F80C34DB03EDD5012079
:102FF00004F03AFB013DF6D1E7E700BF0C0A0020E0
:10300000044B1A7922B9012218609A80024870474D
:10301000024870470C0A00200000AD0B0C00AD0BFD
:1030200010B54FF08043D3F800216AB10022C3F8F5
:103030000021D3F800210122C3F80823114B58794D
:1030400010B95A711B6898474FF08043D3F8042198
:1030500072B10022C3F80421D3F80421D3F8182454
:10306000D3F81814920704D10122C3F818259A60E6
:1030700010BD0222C3F80823024BBDE810401B68B4
:10308000012018470C0A0020036803F01F025B09A7
:10309000012B0260024818BF4FF0A040704700BFEC
:1030A00000030050034B083033F81000C0F3401009
:1030B000704700BF4C00002070B500F108030C4CB5
:1030C00034F81330DA0505460E4607D5C3F343231B
:1030D00004EBC30254F8333052689847A3682BB10D
:1030E000E26831462846BDE87040184770BD00BF11
:1030F0004C00002010B4124A083032F81030D905C4
:103100001BD5C3F3432123F4F85322F8103002F106
:103110000E04002034F8023F13F4807F03D0C3F381
:103120004323994209D001303028F3D1002342F8DB
:103130003130044810BCFFF7DFBE10BC704700BF41
:103140004C000020C000002038B50246FFF7AAFF5F
:10315000094C02F1080540B134F8153007495B0B02
:1031600003F5A273002041F823001046FFF7C2FFC9
:10317000002324F8153038BD4C00002000600040CA
:103180002DE9FF41044616461D4601B34E4F00F19E
:10319000080837F818309B0702D5FFF783FF10BBEC
:1031A0000023CDE900338DF80E308DF80F300DF18E
:1031B0000F020B4620460DF10E0104F0A2FA37F87B
:1031C000183023F0020343F0010327F8183046B308
:1031D0003D4B96F800C0726804F1080733F81710E9
:1031E000880702D5AAB139481DE021F02001C904A1
:1031F000C90C23F8171062B1BCF1030FF3D8726841
:103200001678BCF1000F11D1314A06F5A27642F8CA
:1032100026C033F8172022F01C0242EA8C0223F861
:10322000172045BB2B4804B0BDE8F081B20002F185
:10323000804202F5C04241EA4631D2F8100520F042
:103240000300C2F81005D2F8100520F44F3020F426
:103250004070C2F810052002D2F810E500F47C504E
:1032600040EA0C4040EA0E0041F0200123F817101C
:10327000C2F81005CDE7D5E900672046FFF73AFF11
:10328000002ECFD0104DD5E90023964201D19F42A8
:1032900018D011480DF10F01FFF70EFE0D4B9842AB
:1032A000C1D19DF80F2045F8326005EBC203083408
:1032B0005F6035F8143043EA422343F4807325F805
:1032C0001430AFE70022EEE74C0000200400AD0B05
:1032D000006000400000AD0BC0000020F0B50446C7
:1032E00085B0154619B3334E00F1080736F817209C
:1032F000930703D4FFF7D6FE002858D112F01C0F15
:1033000002D04B78012B52D001238DF80F300023CF
:10331000CDE900134A1C8B1C20460DF10F0104F06F
:10332000F0F936F8173043F0030326F8173015B9D3
:10333000214805B0F0BD1F4E04F1080736F817000C
:10334000830734D595F800C06146890020F020003D
:1033500001F18041C00401F5C041C00C26F81700FE
:103360000023C1F810356A78002AE1D0D1F8103571
:10337000AD7823F4991323F4F853C1F81035D1F83C
:1033800010E5230203F47C53120402F4403243EAB2
:103390000E0313432A0502F4801240EA4C30134313
:1033A00040F0200026F81700C1F81035C0E70348A8
:1033B000BFE700BF4C0000200000AD0B0400AD0BC8
:1033C000014BC3E9020170474C00002008B50246DA
:1033D000FFF768FE38B1054B0548083233F8123064
:1033E0005B0B0B7008BD0348FCE700BF4C000020DE
:1033F0000000AD0B0400AD0B38B50F4C94F87850BD
:10340000BDB96022294604F1100003F05CFF0620DC
:10341000FDF76AFF094B0A48C3F87C51D3F87C21B9
:103420004FF00042C3F80423012384F87830636727
:1034300038BD0448FCE700BF4C000020006000409D
:103440000000AD0B0500AD0B034B93F8780000387E
:1034500018BF0120704700BF4C0000200146014802
:10346000FFF74ABDBC00002001460148FFF724BD1C
:10347000BC00002037B50446FFF714FE04F1080233
:103480001E4B33F81230E8B113F002051AD15B0B72
:103490009A0002F1804000F5C24002F1804202F53C
:1034A000C04205600068D2F8100540F00100C2F883
:1034B000100529B1012202FA03F3114AC2F80433BC
:1034C00003B030BDC3F38203042B12D0052B12D0FE
:1034D00001A80194FFF7D8FD019BD0F81015D94041
:1034E00001F001010231204603B0BDE8304004F094
:1034F00051B90321F7E70221F5E700BF4C00002096
:103500000060004008B50246FFF7CCFDC0B102F1F3
:1035100008010E4B33F81130990711D45B0B0122CF
:103520009A409B000A4903F1804303F5C043C1F868
:103530000823D3F8102522F00302C3F8102508BD94
:10354000BDE808400021104604F024B94C000020DA
:103550000060004013B50E4B00F10802044633F83A
:103560001230DB0711D5FFF7CDFF2046FFF7ECFD4A
:1035700001A80194FFF788FD019B03F5E073022287
:1035800040F82320034802B010BD0348FBE700BF0A
:103590004C0000200000AD0B0400AD0B2DE9F04FF6
:1035A000684B69486949002687B0012234461D6886
:1035B00035B1D0F8045315421EBF1C601D68164378
:1035C00004338B424FEA4202F1D1DFF87C91D9F803
:1035D0007C31002B00F099804FF0A043D3F82025D8
:1035E0000492C3F82025D3F820280592C3F8202898
:1035F0004FF000080DF1100A4FEA481300934FF006
:10360000010B49E0009B524A94FAA4F4B4FA84F402
:103610001C44E00804F10803039432F813701AF80C
:10362000003004F007020BFA02F223EA02030AF860
:10363000003003A8FFF728FD039B03F5E073B908EA
:1036400050F82330C7F382054A072F46C3F30143DE
:103650002CD520463946DDB2FFF72EFD03A8039492
:10366000FFF712FD039B03F5E07350F82330C3F31B
:1036700001439D4207D10021204604F08BF82946E2
:10368000204604F087F803A80394FFF7FDFC039B92
:103690000BFA03F3C0F820355AF82840002CB1D1BA
:1036A000B8F1000F1DD14FF00108A5E7022B0CD196
:1036B0000321204604F06EF805F00503012BE2D14A
:1036C00039462046FFF7F8FCDDE70221204601934A
:1036D00004F060F8032DF3D0019B032BD3D1022D0E
:1036E000EDE74FF0A042C9F87C41D9F87C31194987
:1036F000D2F820350493C2F82035D1F82025059260
:103700001343C1F820257FF473AF012416B907B025
:10371000BDE8F08F96FAA6F3B3FA83F304FA03F246
:103720009B0003F1804303F5C04326EA0206D3F869
:103730001005D3F81015C0F30520C1F30141FFF7C0
:10374000BBFCE3E7006100400060004020610040F6
:103750004C0000200003005001460148FFF7ACBBBD
:10376000C800002010B5144C144A154903232361E6
:103770006361144BA261E3614FF480632362002311
:10378000A3626362E36222660F4A6266E01D102252
:10379000A2662367E366636703F059FDBFF35F8F9B
:1037A0000A49204603F053FDBFF35F8F2023A37126
:1037B000BFF35F8F10BD00BF140A0020E882000035
:1037C000F1820000CB150020BB150020F58200001F
:1037D000104B70B553F82040013053F82060A642DA
:1037E00000D870BDD4E900358DB12846984738B16E
:1037F0000028B8BF4042EB68FF28A8BFFF20187020
:10380000EA68537843F0010353700834E7E79847B8
:10381000FBE700BF387F000008B50A4B01220320F8
:103820001A70FFF7D5FF00F047FF0420FFF7D0FF25
:1038300000F030F904F034F9034A137B23F001035C
:10384000137308BDCB1900205003002008B50348AE
:10385000034A0021121A03F0DAFF08BDB00100206C
:10386000D019002070B5002386B00122CDE90423D1
:10387000134E144D01930F22CDE902321249142345
:1038800003FB005506EBC01604464FF4C07000FB66
:1038900004110E4B00954FF4A072304600F0C8F8AA
:1038A000737B0B4AEE6023F0040373734FF40463DD
:1038B00004FB033313442C746B6006B070BD00BF6F
:1038C000D0020020BC0A0020C02600204D3B000092
:1038D000801E002080B50020A6B0FFF779FF2D4B99
:1038E00083F308882C4D2D4E6B692D4F43F40073E4
:1038F0006B610024E02385F82230EC772C766C761F
:10390000AC7685F820406B6A43F4E0236B6285F85F
:103910002340FDF759FFFDF7C7FC4FF0FF33AB62C3
:10392000EB62FEF78BF8FDF7F1FF40F20113ADF803
:10393000243006ABB360CDE91F44229403F040FF6E
:103940000120FFF745FF0220164DFFF741FF00F071
:103950004FFC154BB5610593012314490094CDE943
:1039600003434FF400623B46CDE90144284600F092
:103970005FF86A7B064622F0040228466A7303F069
:10398000F9FF2046FFF76EFF3A4631462846FDF71D
:1039900099FD00BFC026002000ED00E0BC0A002019
:1039A0001938000050030020FC820000402800204D
:1039B00038B5064C064D0020AC4200D338BD204639
:1039C00003F029FF0028F9DB1C34F5E75001002043
:1039D0005001002073B50C464FF02005EFF3118124
:1039E00085F31288BFF36F8F45695DB125602B6841
:1039F0004361836901338361002081F31188BFF340
:103A00006F8F11E052EA030603D125606FF00B00BF
:103A1000F3E7CDE900230246083000F0F3FA18B9C5
:103A2000024B9B685B69236002B070BDBC0A00203A
:103A30002DE9FF410E9E0673042646730D9E867384
:103A400000F158050F46D61DC0E916550C9A002501
:103A500026F007064037C0E90655C0E919768560AB
:103A6000C573C56606F1400802920B9A019288441C
:103A70000A9A009242460446FDF7F2FC044B656543
:103A80009B6803B11B6F2367404604B0BDE8F0811B
:103A9000BC0A00202DE9F043294C2A4D87B0264668
:103AA000AE4204F12C040FD300F072FB244CDFF87B
:103AB00098904FF4004640F2E737AC4220D307B06D
:103AC000BDE8F04300F078BB54F8043C059354F88B
:103AD0000C3C049354F8103C039354F8143C0293A8
:103AE00054F8183C019354F81C3C009354E9092302
:103AF00054E90B01FFF79CFF54F82C3C5E65CEE7C0
:103B0000636A5A1C0DD023EAE37300213846C3FBD5
:103B1000060151EAC333D4F8008004D1404600F0D6
:103B2000E7FA2C34C9E74FF47A720023FCF7E8FA7D
:103B300002460B4608F11800494600F0C3FCF0E7C6
:103B4000287D0000807D0000D979000008B50B4C6D
:103B50000B4D4FF02002EFF3118382F31288BFF375
:103B60006F8F03F085FF2B78606113B9FDF7A2FB1F
:103B7000EFE7FDF7DFF90028EBD1F7E7BC0A0020FB
:103B8000CB1900202DE9F341044617461E464FF09D
:103B90002003EFF3118883F31288BFF36F8FC3689C
:103BA000334A7BB180689168884219D057EA06038E
:103BB00018D188F31188BFF36F8F6FF00F0002B038
:103BC000BDE8F081916891F90E1021610133E36045
:103BD0009368A36088F31188BFF36F8F0020EEE72E
:103BE0002169F2E791F90E1090F90E309942A8BFC1
:103BF00019466FF07E029142B8BF11468B422EDD0E
:103C000003F063FE0546CDE900761A482246414698
:103C100000F0F8F90028E1D04FF02003EFF311860F
:103C200083F31288BFF36F8FA068D0B12368216936
:103C30009C420AD04BB193F90E309942A8BF194665
:103C40006FF07E039942B8BF194603F03EFE40B1C3
:103C50000848314600F03AFA6FF00A00AFE7002555
:103C6000D1E7002DF4D186F31188BFF36F8FF3E70E
:103C7000BC0A0020CC19002038B5836804466BB319
:103C8000194A926893422CD1C368012B03D9013B96
:103C9000C360002038BD4FF02003EFF3118583F39C
:103CA0001288BFF36F8F0169806803F00EFE204613
:103CB00003F096FEA06058B190F90E202261002218
:103CC000826703F057FE0948294600F0FFF9E0E754
:103CD000E06085F31188BFF36F8FDAE76FF01500AE
:103CE000D8E74FF0FF30D5E7BC0A0020CC19002000
:103CF00038B504464FF02003EFF3118583F31288A3
:103D0000BFF36F8F03F06CFE48B10022826703F0AF
:103D100031FE29460548BDE8384000F0D7B9D4E95E
:103D200002329A4218BF0133A360F2E7CC19002097
:103D300013B54FF02004EFF3118184F31288BFF321
:103D40006F8F846844B1013C846081F31188BFF3B4
:103D50006F8F002002B010BD52EA030406D181F338
:103D60001188BFF36F8F6FF00F00F3E7CDE90023E9
:103D70000246024800F046F9ECE700BFCC190020EB
:103D8000C3897F2B12D80A4B1B6863B1094B90F98A
:103D90000E201B689A4209DB437BDB0606D1064BEB
:103DA000C31A18BF012303F0010070470023FAE78C
:103DB000E80A0020E40A0020D0020020044BC01AC8
:103DC000044BC0105843044B01221A54704700BFE3
:103DD000D0030020ABAAAAAACC19002070B50E4BC4
:103DE0000E4C1E7C06EB460304EBC304054620463E
:103DF00003F028FE0A4B002228469A55FFF7C0FF21
:103E000048B1084B08491A68013A2046D317BDE863
:103E1000704000F057BB70BDBC0A0020D0030020EA
:103E2000CC190020E80A0020BD3D000038B50D4D3A
:103E30002B4653F81C4F9C4200D004B9EC68AB6889
:103E400038B95A7BD20604D1A26912B9DA897F2A1D
:103E500005D89C4202D02046FFF7C0FF2346AB6145
:103E600038BD00BFBC0A002070B590F90D20437B1F
:103E7000002A014604DA03F07F03437303F040FD98
:103E80004B7B154A63F07F0310464B7350F81C3F81
:103E9000146A834208BF002323B9C1E900042160EA
:103EA00011620CE091F90E5093F90E60B5420ED0FC
:103EB000AE420CDD5868C1E900300160596090687D
:103EC000431A5842BDE870405841FFF7AFBF9C42CB
:103ED000E3D01B68E0E700BFBC0A002070B490F993
:103EE0000D30427B002B29DBD30627D183692BBB06
:103EF000134962F07F0242730A4652F81C4F944203
:103F000018BF23460C6A23B9C0E900242060086268
:103F10000CE090F90E5093F90E60B5420AD0AE4213
:103F200008DD5A68C0E900321060586070BC00209B
:103F3000FFF77CBFA342E7D01B68E4E770BC704783
:103F4000BC0A002008B590F90D20437B002A0146E9
:103F500004DA03F07F03437303F0D2FC044B986848
:103F6000431A58425841BDE80840FFF75FBF00BF01
:103F7000BC0A002070B515461C46064603F0D2FC6C
:103F8000B4F1FF3F08BFB5F1FF3F08D02A462346F2
:103F900006F118000249BDE8704000F093BA70BD08
:103FA000D979000038B54FF02003EFF3118583F382
:103FB0001288BFF36F8F104B104A9C681068A042A4
:103FC00006D1FFF70BFF85F31188BFF36F8F38BD64
:103FD00000211B7C11600A4AD35C002BF3D02046E1
:103FE000FFF7CEFE0028EED0637BDB0602D1204631
:103FF000FFF73AFF2046E4E7BC0A0020E00A002071
:10400000CC19002070B50C480C4D86682E600C460B
:104010001146DDE904234FF02006EFF3118586F306
:104020001288BFF36F8F8068FFF7A4FF2046BDE8BA
:104030007040FDF7C1B900BFBC0A0020E00A0020B3
:10404000F8B504464FF02003EFF3118683F312888E
:10405000BFF36F8F437BDA0649B219D18569BDB9C9
:1040600003F07F03437303F04BFC437B164A8173D9
:1040700063F07F034373134653F81C0F984218BF35
:104080000546106A5DB9C4E900300460146211E0AD
:10409000A173002086F31188BFF36F8FF8BD95F9E7
:1040A0000E70B9420BD08F4209DD6B68C4E9005332
:1040B0001C606C600120FFF7B9FE0120EAE7A8420E
:1040C000E1D02D68DEE700BFBC0A002049B9EFF35C
:1040D000058030B9054B9A699B689A4201D0FDF77B
:1040E0006BB981F31188BFF36F8F7047BC0A002052
:1040F00010B54FF02002EFF3118482F31288BFF362
:104100006F8F427B510704D484F31188BFF36F8F04
:1041100010BD22F004024273FFF7E0FE2146024880
:10412000BDE81040FFF7D2BFCD19002070B504469E
:10413000183003F087FC4FF02003EFF3118683F370
:104140001288BFF36F8F94F90D20637B002A05DA84
:1041500003F07F036373204603F0D2FB0B4D637BB8
:10416000A86843F010036373031B58425841FFF7DC
:104170005DFE86F31188BFF36F8FAB68A34203D156
:10418000BDE8704003F054BC70BD00BFBC0A002005
:104190004FF02003EFF3118183F31288BFF36F8F89
:1041A000044B9A68D37B013BD37381F31188BFF32F
:1041B0006F8F7047BC0A002010B54FF02003EFF35B
:1041C000118483F31288BFF36F8F084B9A68D37BF7
:1041D0000133D3730020FFF729FE84F31188BFF366
:1041E0006F8FBDE8104003F023BC00BFBC0A002065
:1041F000024B03F11C02C3E907227047BC0A0020EE
:10420000F8B54FF02003EFF3118583F31288BFF365
:104210006F8F19498868437B03F07F03437303F072
:104220006FFB8B685A7B084662F07F025A7350F826
:104230001C2F0C6A824208BF002222B9C3E9000485
:1042400023600B620CE093F90E6092F90E70BE428F
:104250000ED0B7420CDD5168C3E900210B605360FA
:104260000120FFF7E3FD2846BDE8F840FDF7A4B8BC
:10427000A242E3D01268E0E7BC0A002050EA010342
:104280002DE9F04105460E4603D1FFF7B9FF0020A6
:104290002CE0831C71F1FF332ADB03F0F9FB2C18AF
:1042A0004FF02003EFF3118883F31288BFF36F8F71
:1042B000114F124BB8681860FFF744FEB8681049F8
:1042C0002A463346183000F0FDF8BA68537B43F0B5
:1042D000100353734046FDF76FF803F0D9FB201A23
:1042E00063EB0303012873F10003D0DBBDE8F08129
:1042F0006FF00104241AD3E7BC0A0020E00A002072
:10430000D9790000B1F1FF3F08BFB0F1FF3F08B518
:1043100006D1084B9868FFF709FF4FF0FF3008BD42
:10432000FFF7ACFF4FF47A7380FB0303C00B40EA46
:104330004340F4E7BC0A0020014B9868704700BF77
:10434000BC0A00202DE9F04104464FF02003EFF3B2
:10435000118683F31288BFF36F8F037BD9070BD5C8
:1043600086F31188BFF36F8F404080F311884FF0C0
:10437000040002DFBDE8F081437B1A0704D586F311
:104380001188BFF36F8FF5E723F0200242F0080198
:10439000D20920D14173A36813B1204603F0B8FAC3
:1043A00004F1180003F04EFB04F158074FF0000829
:1043B000A56DBD4200D0B5B90120FFF737FD104B08
:1043C0009B68A342DBD1EFF30583002BD7D13046A6
:1043D000FCF7F2FFD3E703F05F0343F008034373F6
:1043E00003F08EFAD7E7284603F092FA05F1180099
:1043F00003F028FBC5F878802846FFF76FFDD7E764
:10440000BC0A002008B50648064A0749121A03F0FC
:1044100000FABDE80840054A0549064803F0F9B925
:1044200000000020B00100203483000000000000E4
:104430003483000000000020034B1B680BB9FEF71B
:1044400021BC0020704700BFEC0A002010B50E4BC5
:104450001C689C4204D1FFF7EFFF6FF0004010BDD5
:10446000FFF7EAFF002CF8D0D4E904321B1A62EB04
:10447000E072B3F1004F72F10001EEDA002AACBF36
:1044800018460020EBE700BFCC00002030B570B12B
:104490000B4B5B6898420AD0036843B1D3E904210F
:1044A000D0E90445121941EB0501C3E90421D0E923
:1044B000003213605A600023C0E9003330BD00BFF2
:1044C000CC000020B3F1FF3F08BFB2F1FF3FF8B5C9
:1044D00004461D4616465CD081604FF02003EFF382
:1044E000118783F31288BFF36F8F013275F1FF33A9
:1044F00024DA2D49D1E900206FF001039B1A4FF017
:10450000FF3262EB00009E1B60EB0500012E70F194
:10451000000301DA01260020C4E90460234ED6F826
:1045200000C07568B44508BF4FF0000CBCF1000F27
:104530000DD1C4E900652C6074601CE0FFF77CFFBE
:10454000013645F10005361845EBE070E4E7DCE99B
:104550000420D4E90431934271EB000E1ADAD21A26
:10456000DCF8043060EB0100CCE90420C4E900C3AE
:104570001C60CCF804403368B34206D09C4204D19E
:10458000FFF764FF0021FEF74BFB87F31188BFF3B1
:104590006F8FF8BD9B1A61EB0001AC45C4E9043193
:1045A000C7D0DCF800C0C1E7E8030020CC00002041
:1045B0002DE9F84F4FF02003EFF3118C83F31288AD
:1045C000BFF36F8FDFF8B0A0DFF8B0902C4FC9F8C1
:1045D0000000DAF800000024504508BF0020002544
:1045E000D7E90021D9F80030E04680B3D0E9046C67
:1045F0004FEAE37EB3427EEB0C0B05DAF61A6CEB66
:104600000E04C0E9046422E0B21841EBE671C0E98F
:104610000445C7E90021FFF739FF88F31188BFF38C
:104620006F8F836898474FF02003EFF3118883F36F
:104630001288BFF36F8FD9F80030DAF800009B1BA7
:104640005045C446C9F80030CAD1D7E900219A18AC
:1046500041EBE3730024C7E90023C9F80040FFF7EA
:10466000F5FE2146FEF7DCFA88F31188BFF36F8F61
:10467000BDE8F84FFFF796BCCC000020EC0A002004
:10468000E803002010B54FF02003EFF3118483F30B
:104690001288BFF36F8FFFF7CFFE064A0346D2E9B9
:1046A0000001181841EBE37184F31188BFF36F8F99
:1046B00010BD00BFE8030020014802F065BC00BF48
:1046C0000483000010B50C4C236813B10B4B1B681E
:1046D0002BB900F029FE30B9084B01221A600123E2
:1046E0002360002010BD0138062801D9044810BD00
:1046F000044B53F8200010BDF40A0020F00A0020FB
:10470000FE8FFFFF507F0000BFF34F8F0549064B20
:10471000CA6802F4E0621343CB60BFF34F8F00BF5F
:10472000FDE700BF00ED00E00400FA0510B4094BFE
:1047300009490A4C4FF0FE32C3F800244968C3F817
:104740000424C3F80824C3F80C240023C4F800355B
:1047500010BC084700B00250D400002000A0025056
:10476000D0E90012014BC3E900127047D4000020C9
:104770002DE9F043134B144E002814BF04461C4689
:1047800083B02368B34219D00D4620464FF4E07140
:1047900004F10409174604F58E7800F0E9F848465C
:1047A00000F0ACFC404600F0DBFA084900972B46CD
:1047B0004A46404600F0EAFA08B92660002003B0F5
:1047C000BDE8F083F80A0020A5BCC95A8551000055
:1047D00070B51D460C4B002818BF03460B481E68D9
:1047E000864282B00DD1002603F58E7000963346C6
:1047F000144600F017FB002818BF34462C6002B0A6
:1048000070BD0348FBE700BFF80A0020A5BCC95AE9
:10481000E88FFFFF10B5044650B1636813F0685F7E
:1048200005D0064A934202D000232360626010BD87
:10483000034B04485B689847EFE700BF2C5F5CA917
:10484000D40000206C7F0000C8B143680D4A934239
:1048500013D013F0685F0ED0012350E8002F1946E3
:1048600040E8001C9CF0000FF7D1012AF5D0BFF3FF
:104870005F8F0020704704487047044870476FF40A
:10488000E04070472C5F5CA9E98FFFFFEA8FFFFFD4
:1048900080B14368094A93420AD013F0685F05D09B
:1048A000BFF35F8F002303601846704704487047CA
:1048B000044870476FF4E040704700BF2C5F5CA96C
:1048C000E98FFFFFEA8FFFFF10B5044620B1044BCC
:1048D00063600022226010BD0248FFF727FFF6E761
:1048E0003A00003A947F000070B5D0E90023174CDD
:1048F000174D6360D0E90230C4E902302260486895
:10490000D1F800C0134BC3E900C0D5F81801D1F8A5
:1049100008C0C3F808C010F0685FD1F80CC009697E
:10492000C3F80CC0196110D00B49C5F8BC110023A5
:10493000C5E9453105F58A70C5F8B8319047236857
:1049400005F5DC70BDE87040184770BDF000002030
:10495000F80A0020DC0000202C5F5CA938B131B1DE
:10496000014400220346013081421A70FAD1704797
:1049700038B131B1014400220346013088421A7037
:10498000FAD170472DE9F04FB2F5C07FB5B000F213
:10499000D780DFF8B49114460D464FF4D072002151
:1049A0000DF15C080746484602F08DFC404601F0D8
:1049B00051F90023A9F8103063BA09F11806A9F8D3
:1049C000123020232946224689F81730304602F05B
:1049D0006FFC5E4B079303F104338022089303F1CD
:1049E00004330993325503F1043307A940460A936F
:1049F00001F046F9824600287FD104F119030BAE7D
:104A00000FAC02930397019604940198DFF840B12C
:104A10001022002102F057FCDDF808A005940E9B3F
:104A20005BF8044C5BF80C7C0B995BF8100C5BF8A2
:104A3000085CDDE90C625C40019B7E40554081EAE8
:104A400000071A4601214046CDE90B76CDE90D5409
:104A500001F030F9BAF1100F94BFAAEB0A0AAAF1DB
:104A6000100A0BF1100B002865D1BAF1000FD6D156
:104A7000059C01992046102202F01AFC99F8033097
:104A800010340133A04589F80330BED1049C039F44
:104A9000019E80222146404601F0F2F8824670BB1A
:104AA00007F120093D4613AB1A460121404601F0AB
:104AB00001F91022824613A928461544BAF1000FC5
:104AC0001DD102F0F5FB4D45EDD1404601F0D2F885
:104AD0001D484FF4D071FFF74BFF20462021FFF710
:104AE00047FF07A81021FFF743FF30461021FFF7CB
:104AF0003FFF504635B0BDE8F08F0FAC0BAE4046DF
:104B000001F0B8F810484FF4D071FFF731FF20469C
:104B10002021FFF72DFF07A81021FFF729FF102103
:104B20003046FFF725FF20213846FFF721FF50468A
:104B300035B0BDE8F08F039F019E049C8246DEE7FE
:104B40006FF0370AF3E700BFC80C00200001020332
:104B5000D80C00202DE9F04188B004460D462022F3
:104B60000021684602F0AFFB04F120066F46E27BAD
:104B70000132D2B2E273002A4DD1A27B0132D2B20D
:104B8000A273002A47D1637B0133DBB26373002B2E
:104B900041D1237B0133DBB22373002B3BD1E37A7A
:104BA0000133DBB2E372002B35D1A37A0133DBB2E0
:104BB000A372002B2FD1637A0133DBB2637253BB34
:104BC000237A0133DBB223722BBBE3790133DBB2EF
:104BD000E37103BBA3790133DBB2A371DBB9637962
:104BE0000133DBB26371B3B923790133DBB22371D3
:104BF0008BB9E3780133DBB2E37063B9A378013397
:104C0000DBB2A3703BB963780133DBB2637013B9D5
:104C10002378013323703B4622460121304601F0C0
:104C200049F8804650BB103708AB9F429FD1029A8B
:104C3000AB68039F0799534002933046EE68009B90
:104C40007E400396049F2E697E4004966E69059F00
:104C50007E400596069FAE697E400696EE697140DD
:104C6000079129684B40009301996B6880224B4063
:104C70006946019301F004F8804638B16846202166
:104C8000FFF776FE404608B0BDE8F08110220DEB3C
:104C90000201204602F00CFBF0E700BF2DE9F843CB
:104CA00004468069B0F5C07F52D81D46C0F5C07378
:104CB000AB424DD3C5F5C0731B1A9342164647D37A
:104CC000DFF898904FF4C0720F464846002102F07A
:104CD000FAFAD4F89430A269D4F898004946984773
:104CE000002838D1D4F818803DB1D4E925302A46BF
:104CF00009EB0801984770BBA84407B1C6B917492A
:104D000042460846FFF73EFE054638B113484FF4C9
:104D1000C071FFF72DFE2846BDE8F8830F492046F5
:104D2000FFF718FF05460028F0D101232361EDE7C6
:104D300009EB08003946324602F0BAFA0749B04496
:104D400042460846FFF71EFE05460028DED1E5E78D
:104D50006FF03705DFE76FF03305DCE7680E002002
:104D600010B5A4220446002102F0ADFA064B4FF024
:104D7000FF314FF6F0722161E26104F19C001B6883
:104D8000BDE81040184700BF400100202DE9F04366
:104D900085B005460F461646002110226846994602
:104DA00002F091FA1D4B05F19C081B68404698479C
:104DB00020B10446204605B0BDE8F08305F120048B
:104DC000204600F047FFAA69C5E925762E69E2B9B9
:104DD0002022002EAA611FDB20466946802200F0B7
:104DE0004FFF044630B90C9A334649462846FFF730
:104DF00055FF04460A4B40461B689847002818BFD9
:104E00000446204605B0BDE8F083002EE4DA172AF8
:104E100002D801325608DFE70026DDE73C0100201A
:104E2000380100202DE9F04F8DB0B2F5806F169F4C
:104E300000F2E380B7F5807F00F2DC80044615467F
:104E40000E462022002104A8984602F03CFA6C4B42
:104E500004F19C091B68484698478346002840F0A7
:104E600092802269E3699A4200F391806369002B82
:104E700040F08D80002F40F0A980DFF888A16F46B8
:104E8000002D00F0988004F120086F460EE0102DF0
:104E9000AB4628BF4FF0100B30465A46394602F059
:104EA00007FAB5EB0B055E4400F08580E37B013328
:104EB000DBB2E373002B4DD1A37B0133DBB2A373D1
:104EC000002B47D1637B0133DBB26373002B41D1ED
:104ED000237B0133DBB22373002B3BD1E37A013315
:104EE000DBB2E372002B35D1A37A0133DBB2A372BC
:104EF000002B2FD1637A0133DBB2637253BB237A69
:104F00000133DBB223722BBBE3790133DBB2E371F4
:104F100003BBA3790133DBB2A371DBB9637901333E
:104F2000DBB26371B3B923790133DBB223718BB97F
:104F3000E3780133DBB2E37063B9A3780133DBB20A
:104F4000A3703BB963780133DBB2637013B9237884
:104F5000013323703B4622460121404600F0AAFE61
:104F60008346002893D0DAF800304846984720213D
:104F7000034604A8002B18BF9B46FFF7F9FC10213D
:104F80003846FFF7F5FC58460DB0BDE8F08F3A46BD
:104F9000414600232046FFF781FEDFF868A0002885
:104FA0003FF46DAFDAF80030484698478346002852
:104FB0003FF465AFE7E704A92046FFF7CBFD834642
:104FC0000028D0D1236901332361CCE73A4641461A
:104FD00004A8FFF7D7FC834618B1DFF828A06F4676
:104FE000C1E704A92046FFF7B5FD834600283FF43A
:104FF00044AFF2E76FF0370BC5E76FF0350BC2E750
:105000003C010020380100202DE9F043202B8BB01B
:105010001D4606468846914626D8DBB202AF8DF87B
:105020000480B0468DF8053058F8041B21B940467D
:1050300000F084FE044640B901233360022201A936
:10504000404600F08FFE044638B138462021FFF775
:105050008FFC20460BB0BDE8F0832A464946404607
:1050600000F080FE0446F0E702AF19461046002328
:105070003A4600F0FDFF04460028E6D12023B94659
:105080001D46CCE7F0B5D0F8F830A7B0002BD8BF5C
:1050900002AE2CDDD0F80C410546002302AE019390
:1050A000A4F10107D0F80001D5F8FC4001AB902233
:1050B0003146A047B7FA87F77F09044610B9019B2C
:1050C0003BB9A7B130469021FFF752FC204627B0EC
:1050D000F0BD014632462846FFF796FF50B9D5F895
:1050E0000431019A1344C5F80431002FEAD16FF05E
:1050F0003C04E7E70446204627B0F0BD70B5002524
:10510000044604F5887614222946C0F8F850FC308D
:1051100002F0D9F808222946304602F0D4F8154B9F
:1051200030461B689847204640F8045B00F0ECFDD1
:10513000114B30461B689847D8B9D4F8F830AB42C9
:1051400011DC03EB830204EB82022021C2F8081178
:105150000121C2F80C1101330849C2F80001C2F85C
:10516000FC10C4F8F830064B30461B68BDE87040B0
:10517000184770BD400100203C010020595B000031
:10518000380100202DE9F047202A88B079D83E4B1D
:1051900000F588791B6804464846174688469847B4
:1051A0000546F8B9D4F8F83040F20116002B64D067
:1051B0002046FFF767FF054638B9D4F8F830002BD2
:1051C00014DC013EF2D16FF03B056E4620213046E3
:1051D000FFF7CEFB2D4B48461B689847002818BFA9
:1051E0006FF01D05284608B0BDE8F087D4E94132CC
:1051F000934203D3D4F80C21012A02D0013ED7D127
:10520000E1E71F2BFAD96E4601462022304604F111
:10521000040A02F058F83146504600F0CDFD05462C
:105220000028D3D1504600F083FD504600F06CFDBD
:105230002946504600F082FD05460028C6D150465A
:105240002022314600F08EFD05460028BED10346DF
:1052500032462021304600F00BFF05460028B5D12C
:10526000D4F8F830002BC4BF0023C4F804313A4608
:105270004046314602F01CF8A8E76FF03F056E4645
:10528000A4E76FF03B05ADE73C01002038010020AA
:1052900030B58DB00021282202A8019102F013F848
:1052A00002A800F00DFF044610B120460DB030BD3D
:1052B000174D4FF0FF31286800F044F9044620B143
:1052C0001448FFF733FA012C18D0002000F06AF9D7
:1052D000D0B9114A02A901A800F030FC044601200F
:1052E00000F060F960B9286800F034F90028DCD0DB
:1052F0000A48FFF71BFA20460DB030BD0524F2E73F
:105300000748FFF713FAEEE70648FFF70FFAE0E762
:1053100024010020B87F0000E80F0020108000006A
:10532000F07F0000D07F000030B583B000F05CF863
:1053300028B100F0ABF80324204603B030BD00F0E4
:1053400077F8D8B900F02EF9E0B9224CD4F8283912
:105350001B0EF02B0AD1D4F8242A1F4B9A4231D0CD
:1053600000F044F8072400F091F8E5E700F03EF87B
:1053700000F08CF80624204603B030BD04242046FB
:1053800003B030BD00F032F800F080F8FFF780FF86
:10539000044698B9114D2B68002BCDD10246014629
:1053A000FFF7E6F950B90E4901AB6822FFF710FA92
:1053B00020B90C4B2B60204603B030BD052420469D
:1053C00003B030BD012000F0EDF80028DAD1C4F8B8
:1053D0000C0ADBE700B002500000E02008120020B9
:1053E0000C1200205AEA5A5A0020704700207047D9
:1053F000430504D5044B4FF0FF32C3F80821024B9C
:10540000C3F8080A704700BF00B00250014BC3F850
:10541000040A704700B0025008B100F06BB84FF4B6
:105420007500704708B100F04FB84FF47500704731
:1054300010B5114800F072F800B110BD0F4800F02F
:105440006DF80028F9D10E4C204600F067F80028CE
:10545000F3D10C4B0C481C6000F060F801460028AA
:10546000EBD100F02DF8044608B1204610BD00F045
:105470007BF82046FAE700BF34010020300100200D
:105480002C010020240100202801002008B5084834
:1054900000F04EF8074800F04BF8074800F048F8D5
:1054A000064800F045F8BDE8084000F00BB800BF22
:1054B00034010020300100202C01002028010020B0
:1054C00000207047704700BF10B4094C0246D4F862
:1054D000003A1342FBD021B1D4F804310B60C4F878
:1054E0000831034BC3F8082A002010BC704700BFE6
:1054F00000B00250044AD2F8003A1842FBD0C2F879
:10550000080A0020704700BF00B0025001F0B9BE89
:1055100001F0D9BE0A46002101F0D5BE08B5034B03
:1055200002681B6810689847002008BDF000002042
:1055300008B5034B02685B6810689847002008BDF7
:10554000F0000020024B02689B681068184700BFFB
:10555000F000002008B5034B0268DB68106898472C
:10556000002008BDF000002070B5094C094D2069ED
:10557000AB68984718B1084B08485B689847084AD9
:10558000EB68206900211160BDE87040184700BF3A
:10559000DC000020F0000020D40000202880000063
:1055A00074120020F8B51A4D1A4E0446B2682869E4
:1055B0009047E8B9184F3B684CB1A3B1012B19D003
:1055C000013B3B602869F36898470020F8BD43B968
:1055D000124A0121C2F800151149D1F81029002AF8
:1055E000FBD101333B60F368286998470020F8BD80
:1055F0000C48F8BD0A4AD2F81039002BFBD1074AF3
:105600006FF07E40C2F80035FFF700FF3B68D7E738
:10561000DC000020F00000207412002000A00250E6
:1056200000B00250E98FFFFF014B1B68184700BF15
:10563000F0000020014B9B68184700BFF0000020DD
:10564000014BDB68184700BFF00000202DE9F04750
:10565000002878D00C46002975D01D46002B72D04A
:1056600007461AB1012200232A6003602B68002B31
:1056700064D02946204600F0DBFD804600285FD13B
:105680002868214600F0BAFD8046002858D12B68D2
:10569000082B6CD0042B6DD0A3F10209B9FA89F95B
:1056A0004FEA5919354E0121C6F8C411C6F8401108
:1056B000C6F8C411636AC6F83031D6F83021934277
:1056C000F6D14FF0000A4FF0FF30C6F82CA1FFF7DB
:1056D0008FFE6FF01B03C6F800315046FFF796FEB1
:1056E000C6F80C91D6F8040A40F48060FFF78EFEED
:1056F0000A23C6F83831089B012B29D02369204A98
:10570000A2FB03231B09626A02FB03F303EB4303BF
:105710001A4ADB039B09C2F8D8310123C2F82C31A5
:105720003B682A6823F07F4343EA02633B602A68B0
:1057300043EA02233B604046BDE8F087DFF844803F
:105740004046BDE8F087DFF840804046BDE8F0877E
:105750004FF08053D3F80C2C013206D0D3F80C3C18
:10576000074AA2FB03231B09CDE71623CBE74FF023
:10577000030997E74FF0020994E700BF00B0025019
:10578000ABAAAAAA310CF100350CF10050B34B1EA4
:10579000B3F5047F26D24FF0000C30B5CD00E646BD
:1057A0006446630904F01F0150F823301F2923FACF
:1057B00001F306D003F001031CB901249E46A44660
:1057C000EFE79E4504F1010406D09E464FF0010C20
:1057D000AC42E6D1002030BD0CF1010C9445F7D16C
:1057E000014830BD00487047360CF100C8B32DE9C0
:1057F000F0434C1EB4F5047F1CD2DBB1D2B14FF0A4
:10580000000ECF007646F046754603F1FF396C096D
:1058100005F01F0150F824401F2924FA01FC0CD088
:105820000CF0010C4DB90126E0463546B646EEE7D0
:10583000964218D90D48BDE8F08373450CD0C44595
:1058400008BF0136F145F3D00EF1010E0135BD421E
:10585000DDD10020BDE8F0834FF0010EE046764632
:10586000F4E7024870479E46F0E700BF370CF100AE
:105870002DE9F04F91B00D46DDE91B41824600292C
:105880006ED1286906901A981C6000230360002AD4
:1058900000F02E819C4B6A6AD3F83811D3F830316E
:1058A0009A4269D10A2967D19AF80330089304F122
:1058B000080306990793954B934CA3FB01239B0880
:1058C00003EB4303A1EB43030393042305931A9BC8
:1058D000069E1E60002E00F0E980002700F0B8FC54
:1058E0000997BAF1000F00F0D580DDF81C804FF069
:1058F0000109002D00F0CE80089B002B3ED008A9A6
:10590000284600F095FC00283AD0814B984220D0E0
:10591000089B082B00F0E4805B00002208930092B3
:1059200008AB29465046FFF791FE7A4B984200F0AB
:10593000D38070B9DAF80020130A03F47F0313430D
:1059400023F07F43CAF80030059B013B0593BED18D
:105950000020039000F07CFC039811B0BDE8F08FAC
:105960004FF08050D0F80C6C013614BFD0F80C0CFE
:105970004FF40470069086E76748EAE76548C4E795
:105980000898294600F03AFC0028BED1089B082B55
:1059900000F0A880042B00F0A880A3F10203B3FA62
:1059A00083F35B090493C4F8C491C4F84091C4F82C
:1059B000C4916B6AC4F83031D4F830219342F6D1E7
:1059C0004FF0000BC4F82CB14FF0FF30FFF710FD83
:1059D0006FF01B035846C4F80031FFF717FD049B16
:1059E000C4F80C31D4F8040A40F48060FFF70EFDCF
:1059F0000A23C4F838312B69ABF1553BABFB0323C9
:105A00006A6A1B0902FB03F303EB4303DB039B09F5
:105A1000C4F8D831C4F82C91DAF80030089923F092
:105A20007F420B0243EA01631343CAF8003009A81E
:105A300000F0D4FB099B03F01A0303437FF468AF23
:105A4000ABFB063BD4F814310A93D4F818310B930E
:105A5000D4F81C310C93D4F820310D93D4F82431B0
:105A60000E93D4F828310F93B7EB9B0F01D1039B12
:105A700093B9404618220AA9183EFFF747FD08F1DE
:105A80001808013796B100F0E3FB00230993002DBD
:105A90007FF432AF214838E74046F61A1A460AA981
:105AA00098440137FFF732FD002EECD1069F079E88
:105AB0006A6939463046FFF769FEAA6940B94FF472
:105AC000806339463046FFF791FE00283FF440AF2F
:105AD0001A9A0023136018E72B6A002B3FF439AFA2
